:020000040800F2
:1000000000000320ED240008851900088B19000862
:1000100091190008971900089D19000800000000B8
:10002000000000000000000000000000A31900080C
:10003000B119000800000000BF190008CD19000820
:100040003D2500083D2500083D2500083D25000808
:100050003D2500083D2500083D2500083D250008F8
:100060003D2500083D2500083D2500083D250008E8
:100070003D2500083D2500083D2500083D250008D8
:100080003D2500083D2500083D2500083D250008C8
:100090003D2500083D2500083D2500083D250008B8
:1000A0003D2500083D2500083D2500083D250008A8
:1000B0003D2500083D2500083D2500083D25000898
:1000C0003D2500083D2500083D2500083D25000888
:1000D0003D2500083D2500083D2500083D25000878
:1000E0003D2500083D2500083D2500083D25000868
:1000F0003D2500083D2500083D2500083D25000858
:100100003D2500083D2500083D2500083D25000847
:100110003D2500083D250008D91900083D250008A7
:100120003D2500083D2500083D2500083D25000827
:100130003D250008ED1900083D2500083D25000873
:100140003D2500083D2500083D2500083D25000807
:100150003D2500083D2500083D250008011A00083E
:100160003D2500083D2500083D2500083D250008E7
:100170003D2500083D2500083D2500080000000041
:100180003D2500083D2500083D2500083D250008C7
:100190003D2500083D2500083D2500083D250008B7
:0C01A00000000000000000003D250008E9
:1001B00010B5054C237833B9044B13B10448AFF3A1
:1001C00000800123237010BD2001002000000000EA
:1001D000CC2A010808B5034B1BB103490348AFF310
:1001E000008008BD0000000024010020CC2A010886
:1001F00010F8012B11F8013B012A28BF9A42F7D0D1
:10020000D01A7047034613F8012B002AFBD1181AA5
:1002100001387047000000000000000000000000EE
:1002200001F0FF01102A2BDB10F0070F08D010F8A7
:10023000013B013A8B422DD010F0070F42B3F6D1AB
:10024000F0B441EA012141EA014122F007047FF0C4
:1002500000070023F0E80256083C85EA010586EA1B
:10026000010685FA47F5A3FA87F586FA47F6A5FA57
:1002700087F68EB9EED1F0BC01F0FF0102F0070263
:1002800032B110F8013B013A83EA010313B1F8D10E
:100290000020704701387047002D06BF35460338EF
:1002A000073815F0010F07D1013015F4807F02BF28
:1002B000013015F4C03F0130F0BC0138704700BF79
:1002C00053B94AB9002908BF00281CBF4FF0FF31BD
:1002D0004FF0FF3000F074B9ADF1080C6DE904CEB9
:1002E00000F006F8DDF804E0DDE9022304B0704711
:1002F0002DE9F047089D04468E46002B4DD18A42D9
:10030000944669D9B2FA82F252B101FA02F3C2F10B
:10031000200120FA01F10CFA02FC41EA030E94409C
:100320004FEA1C48210CBEFBF8F61FFA8CF708FBBD
:1003300016E341EA034306FB07F199420AD91CEB95
:10034000030306F1FF3080F01F81994240F21C81C7
:10035000023E63445B1AA4B2B3FBF8F008FB10330F
:1003600044EA034400FB07F7A7420AD91CEB040444
:1003700000F1FF3380F00A81A74240F20781644414
:10038000023840EA0640E41B00261DB1D440002399
:10039000C5E900433146BDE8F0878B4209D9002DFD
:1003A00000F0EF800026C5E9000130463146BDE887
:1003B000F087B3FA83F6002E4AD18B4202D38242F1
:1003C00000F2F980841A61EB030301209E46002DA0
:1003D000E0D0C5E9004EDDE702B9FFDEB2FA82F2F5
:1003E000002A40F09280A1EB0C014FEA1C471FFA53
:1003F0008CFE0126200CB1FBF7F307FB131140EA3A
:1004000001410EFB03F0884208D91CEB010103F106
:10041000FF3802D2884200F2CB804346091AA4B2C8
:10042000B1FBF7F007FB101144EA01440EFB00FE9C
:10043000A64508D91CEB040400F1FF3102D2A64501
:1004400000F2BB800846A4EB0E0440EA03409CE7A0
:10045000C6F12007B34022FA07FC4CEA030C20FA4D
:1004600007F401FA06F31C43F9404FEA1C4900FA6D
:1004700006F3B1FBF9F8200C1FFA8CFE09FB1811EA
:1004800040EA014108FB0EF0884202FA06F20BD95D
:100490001CEB010108F1FF3A80F08880884240F2AD
:1004A0008580A8F102086144091AA4B2B1FBF9F0F1
:1004B00009FB101144EA014100FB0EFE8E4508D9EC
:1004C0001CEB010100F1FF346CD28E456AD9023871
:1004D000614440EA0840A0FB0294A1EB0E01A14256
:1004E000C846A64656D353D05DB1B3EB080261EBC4
:1004F0000E0101FA07F722FA06F3F1401F43C5E99E
:10050000007100263146BDE8F087C2F12003D840D3
:100510000CFA02FC21FA03F3914001434FEA1C4715
:100520001FFA8CFEB3FBF7F007FB10360B0C43EA07
:10053000064300FB0EF69E4204FA02F408D91CEBB7
:10054000030300F1FF382FD29E422DD902386344B5
:100550009B1B89B2B3FBF7F607FB163341EA034155
:1005600006FB0EF38B4208D91CEB010106F1FF38A4
:1005700016D28B4214D9023E6144C91A46EA00469B
:1005800038E72E46284605E70646E3E61846F8E62D
:100590004B45A9D2B9EB020864EB0C0E0138A3E776
:1005A0004646EAE7204694E74046D1E7D0467BE757
:1005B000023B614432E7304609E76444023842E7CF
:1005C000704700BF80B582B000AF1B4B1B68184658
:1005D00000F0F6FB7860194B1B68184600F0F0FB42
:1005E00038607B68B3F1FF3F05D13B68B3F1FF3F53
:1005F00001D1134B1CE07B68B3F1FF3F06D13A6891
:100600001049114811F028F90F4B11E03B68B3F184
:10061000FF3F06D17A680D490B4811F01DF90A4BCE
:1006200006E03B687A680A49074811F015F9064B5D
:1006300018460837BD4680BD6C00002080000020B1
:10064000E42A0108002B01083C010020282B0108A6
:10065000502B010898B500AF114B1B68184600F0ED
:10066000AFFB04460F4B1B68184600F0A9FB03467E
:100670009C4201D20C4B10E00A4B1B68184600F05C
:100680009FFB0446064B1B68184600F099FB034687
:100690009C4201D2054B00E00023184698BD00BFE4
:1006A0006000002074000020000002080000110813
:1006B00090B583B000AFFFF7CDFF78607B68144A38
:1006C000934210D10F2000F087FB124B1C68124B95
:1006D0001B68184600F074FB0346013B1946204690
:1006E00000F04FFB0FE00E2000F076FB0A4B1C6879
:1006F000084B1B68184600F063FB0346013B194694
:10070000204600F03EFB00BF0C37BD4690BD00BF49
:1007100000000208740000206000002080B584B052
:1007200000AF7860FFF796FFF860FB68094A9342D4
:1007300006D1094B1B687968184600F022FB05E0DA
:10074000064B1B687968184600F01BFB00BF10378A
:10075000BD4680BD000002086C0000208000002023
:1007600080B582B000AFFFF775FF78607B680A4AFA
:10077000934206D1094B1B680021184600F001FB8B
:1007800005E0074B1B680021184600F0FAFA00BF8D
:100790000837BD4680BD00BF000002087000002081
:1007A0008400002080B586B000AF214B1B6818463E
:1007B00000F006FB78611F4B1B68184600F000FB39
:1007C00038611D4B1B68184600F0FAFAF8601B4BA5
:1007D0001B68184600F0F4FAB860194B1B681846FD
:1007E00000F0EEFA7860174B1B68184600F0E8FA44
:1007F00038607B69B3F1FF3F02D13B69002B02D027
:10080000FB68002B02D00E2000F0E6FABB68B3F1C3
:10081000FF3F02D17B68002B02D03B68002B02D047
:100820000F2000F0D9FA00BF1837BD4680BD00BFC9
:100830006800002064000020700000207C00002080
:10084000780000208400002080B586B000AFFFF75C
:1008500001FF78617B69304A934206D12F4B1B68B8
:100860000021184600F08DFA09E07B692C4A93427A
:1008700005D12C4B1B680021184600F082FA2A484B
:1008800005F03AF801F082FB284B1B6B274A23F056
:1008900004031363254B1B6B244A23F008031363E3
:1008A000224B1B6B214A23F0020313631F4B1B6B6C
:1008B0001E4A23F00103136304F066FE01F0C2FF39
:1008C0001B4B00221A601A4B00225A60184B002260
:1008D0009A6001233B603B6883F3108800BF72B6C7
:1008E00000BF144A7B6993607B691B683B613B696D
:1008F0007B607B6883F3088800BF7B6904331B68D7
:10090000FB60FB68BB6062B600BFBB68984700BF76
:100910001837BD4680BD00BF0000020864000020FB
:100920000000110878000020A402002000380240D6
:1009300010E000E000ED00E080B582B000AF78602C
:1009400039603B681B781A460A4B53F822307A68A4
:100950009A420AD13B681B78184600F03DFA3B6882
:100960001B780133DAB23B681A7000BF0837BD4606
:1009700080BD00BF0000002080B584B000AF0346FA
:10098000FB800C2010F0DAFD0346FB60FB88184664
:1009900010F0D4FD03461A46FB689A60FB68FA889B
:1009A000DA80F86800F086F8FB6818461037BD4614
:1009B00080BD80B582B000AF78600B46FB707B686D
:1009C0009A887B68DB889A421FD200F0E7F87B6840
:1009D0009B687A6812881344FA781A707B681B88BF
:1009E00001337A68D28893FBF2F101FB02F29B1A81
:1009F0009AB27B681A807B689B8801339AB27B68C5
:100A00009A8000F0DFF8012300E000231846083741
:100A1000BD4680BD80B586B000AFF860B9601346B2
:100A2000FB800023FB820FE0FB8ABA6813441B782B
:100A30001946F868FFF7BDFF0346002B01D1FB8A7A
:100A400007E0FB8A0133FB82FA8AFB889A42EBD3E8
:100A5000FB8A18461837BD4680BD80B584B000AF0C
:100A600078607B689B88002B01D100231EE000F09A
:100A700095F87B689B88013B9AB27B689A807B687B
:100A80009B687A68528813441B78FB737B685B8889
:100A900001337A68D28893FBF2F101FB02F29B1AD0
:100AA0009AB27B685A8000F08DF8FB7B18461037AD
:100AB000BD4680BD80B582B000AF786000F06EF8B2
:100AC0007B6800229A807B6800221A807B68002263
:100AD0005A8000F077F800BF0837BD4680BD80B46B
:100AE00083B000AF78607B689B88002B14BF012324
:100AF0000023DBB218460C37BD465DF8047B704717
:100B000090B587B000AFF860B9601346FB80F86815
:100B1000FFF7E5FF0346002B01D100231DE0F86835
:100B200000F01FF80346FB82FA8AFB889A4201D93B
:100B3000FB88FB820023BB820AE0BB8ABA68D41818
:100B4000F868FFF78AFF03462370BB8A0133BB8234
:100B5000BA8AFB8A9A42F0D3FB8A18461C37BD46F4
:100B600090BD80B483B000AF78607B689B881846E6
:100B70000C37BD465DF8047B704780B483B000AF8E
:100B800078607B68DA887B689B88D31A9BB21846AA
:100B90000C37BD465DF8047B7047000080B483B01D
:100BA00000AFEFF310837B607B68054A136072B679
:100BB00000BF00BF0C37BD465DF8047B704700BF27
:100BC000BC01002080B483B000AF064B1B687B6083
:100BD0007B6883F3108800BF00BF0C37BD465DF80B
:100BE000047B7047BC01002080B588B000AFF8607E
:100BF000B9601346FB71F868FFF704FBF861FB6905
:100C00000133184610F09AFC0346BB61F968B869D5
:100C100010F042FE0C2010F091FC03467B617B69D2
:100C2000BA691A607B69BA685A607B69FA791A7284
:100C30007B6918462037BD4680BD000080B584B072
:100C400000AF786039607B68002B03D07B685B68FD
:100C5000002B01D1002337E07B681B7A022B2CD0BC
:100C6000022B30DC002B02D0012B13D02BE007F13C
:100C70000C031946386800F031F80346002B01D107
:100C8000134B21E07B685B6807F10C021046984724
:100C9000034619E007F10B031946386800F03AF8EB
:100CA0000346002B01D10B4B0EE07B685B6807F11C
:100CB0000B0210469847034606E07B685B680020FD
:100CC0009847034600E0044B18461037BD4680BDE8
:100CD000782B0108982B0108BC2B010880B584B043
:100CE00000AF786039600023FB6007F10C030A2233
:100CF0001946786810F04AFE02463B681A60FB68A5
:100D00007A689A4201D1002300E001231846103787
:100D1000BD4680BD80B582B000AF786039600E49B5
:100D20007868FFF765FA0346002B04D13B68002280
:100D30001A7001230CE009497868FFF759FA034655
:100D4000002B04D13B6801221A70012300E000232C
:100D500018460837BD4680BDD42B0108D82B0108A2
:100D600080B483B000AF78607B68002B01D1002392
:100D700001E07B681B6818460C37BD465DF8047BB4
:100D80007047B0B584B000AF786039600123FB7361
:100D900003F020FA0BE03B6800221C461546224671
:100DA0002B467968022003F0C1F90346FB73FB7BF5
:100DB000002BF0D103F030FA00BF1037BD46B0BDB4
:100DC00080B483B000AF78607B681B6818460C372E
:100DD000BD465DF8047B704780B584B000AF786095
:100DE0000123FB7303F0F6F90E4B00221A600D4A43
:100DF0007B6893600B4B0122DA600A4B02221A6176
:100E000007E007F108031946064803F055FB0346BF
:100E1000FB73FB7B002BF4D103F0FEF900BF10370E
:100E2000BD4680BDC001002080B58AB000AF07F18B
:100E3000140300221A605A609A60DA601A61002373
:100E40003B61364B1B6B354A43F080031363334BD6
:100E50001B6B03F080033B613B690023FB602F4B5E
:100E60001B6B2E4A43F0040313632C4B1B6B03F0E4
:100E70000403FB60FB680023BB60284B1B6B274A05
:100E800043F001031363254B1B6B03F00103BB60AD
:100E9000BB6800237B60214B1B6B204A43F010038F
:100EA00013631E4B1B6B03F010037B607B680023F6
:100EB0003B601A4B1B6B194A43F002031363174B39
:100EC0001B6B03F002033B603B6800228021144847
:100ED00003F0DEFD80237B610123BB610023FB6106
:100EE00000233B6207F1140319460D4803F024FC6C
:100EF0004FF480737B610223BB610023FB610023FD
:100F00003B6200237B6207F114031946054803F096
:100F100013FC00BF2837BD4680BD00BF003802402B
:100F2000001002400000024080B485B000AF78603D
:100F30000B46FB700023FB7323E0FB7B7A681344B2
:100F40001B78392B10D8FB7B7A6813441B782F2B26
:100F50000AD9FB7B7A6813441A78FB7B79680B44C7
:100F6000303AD2B21A7009E0FB7B7A6813441A78DF
:100F7000FB7B79680B44373AD2B21A70FB7B0133A2
:100F8000FB73FA7BFB789A42D7D300BF00BF1437BC
:100F9000BD465DF8047B704780B487B000AFF86051
:100FA000B9607A607B800023FB8214E07B681B8839
:100FB0001A46B7F9163013441A46BB681A44B7F9F3
:100FC0001630F9680B4412781A70B7F916309BB2D4
:100FD00001339BB2FB82B7F916207B889A42E5DB8E
:100FE0007B681A887B8813449AB27B681A8000BF9A
:100FF0001C37BD465DF8047B7047000080B586B0A5
:1010000000AF78600B467B800023FB819FE1FB896A
:101010001A467B6813441B783A2B40F09481FB8975
:1010200001339BB2FB8107F10E02082379689748D0
:10103000FFF7B2FF08219548FFF776FF934B5B78E7
:101040001A46924B1B781B011344DBB25B00DAB2E9
:101050008F4B1A708D4B5B799AB28C4BDB7899B2BF
:101060008A4B9B789BB21B019BB20B449BB21B012A
:1010700099B2864B1B799BB20B449BB21B019BB26E
:1010800013449AB2834B1A80804BDA797F4B9B7959
:101090001B01DBB21344DAB27F4B1A707C4B1B7816
:1010A0005B08DAB27B4B1B88DBB21344DAB2794BB4
:1010B0001B881B0A9BB2DBB21344DAB2764B1B7857
:1010C0001344DAB2754B1A70734B1B78002B40F047
:1010D000A28075E007F10E02082379686B48FFF7DC
:1010E0005BFF08216948FFF71FFF0023FB7524E021
:1010F000FB7D664AD25CFB7D1201D1B2634AD154BA
:10110000FB7D624AD15CFB7D0133604AD25CFB7D92
:101110000A43D1B25D4AD154FB7D5C4AD35C1A4686
:10112000FB7D9B0002FA03F31A465D4B1B681343D9
:101130005B4A1360FB7D0233FB75FB7D072BD7D920
:10114000544B1B881A46574B1B6813445649184684
:10115000FFF7F2FB4F4B1B881A46524B1B68134498
:101160004F4A126811461846FFF70BFE4C4B1B689E
:10117000DAB24B4B1B681B0ADBB21344DAB2484BA2
:101180001B681B0CDBB21344DAB2454B1B681B0E09
:10119000DBB21344DAB2414B1B781344DAB23F4B53
:1011A0001A703B4B1B78083BDAB2394B1A70394B3B
:1011B0001B8804339AB2374B1A80394B00221A60CD
:1011C000334B1B78002B85D1344B1B785B42DAB252
:1011D000324B1A7007F10E02022379682B48FFF791
:1011E000DBFE02212948FFF79FFE284B5A78274B48
:1011F0001B781B01DBB21344DAB22C4B1A70274B5D
:101200001A782A4B1B789A4201D00023A7E0234B7F
:1012100000221A7097E0204B1B78042B40F08F803F
:1012200007F10E02042379681848FFF7B5FE042180
:101230001648FFF779FE154B1B781A07134B5B789E
:101240001B061A43114B9B781B051A430F4BDB7887
:101250001B0413431A46134B1A60154B1B78002BC3
:1012600030D0FFF7F7F938613B691B0C1B040D4ABE
:101270001268934201D0022371E03B690D4A934208
:101280001AD1094B05221A7019E000BFE8010020AD
:10129000D8010020DC010020D9010020E401002059
:1012A000E0010020D4010020F0010020DA0100203C
:1012B00088000020000002082B4B10221A702B4BD4
:1012C00000221A702A4B1A78294B9B781344DBB200
:1012D0001B01DAB2264B5B781344DAB2244BDB787D
:1012E0001344DAB2234B1B781344DAB2214B1A7041
:1012F000204B1B785B42DAB21E4B1A7007F10E02CC
:10130000022379681A48FFF747FE02211848FFF7C1
:101310000BFE174B5A78164B1B781B01DBB213449C
:10132000DAB2154B1A70134B1A78134B1B789A428A
:1013300001D0002313E00F4B00221A7003E00F4B83
:101340001B78012B09D0FB8901339BB2FB81FB8900
:101350007A889A423FF65BAE00E000BF0123184650
:101360001837BD4680BD00BFF00100208800002076
:10137000E8010020E4010020DA010020D90100206A
:1013800080B500AF094B0A4A1A60084B06225A6022
:10139000064B4FF420729A60044803F092FB034618
:1013A000002B01D000F0D7F900BF80BDF401002070
:1013B0000030004080B400AFBFF34F8F00BF064B3A
:1013C000DB6803F4E0620449044B1343CB60BFF3D2
:1013D0004F8F00BF00BFFDE700ED00E00400FA05FD
:1013E00080B582B000AF02222E492F48FFF7FCFBE8
:1013F00003462E4A136000222D492E48FFF7F4FBC6
:1014000003462A4A536002222B492C48FFF7ECFB83
:101410000346264A9360022229492A48FFF7E4FB43
:101420000346224AD360022227492848FFF7DCFB03
:1014300003461E4A136101F0E3F900F05FFD00F07E
:1014400051F8FFF7F1FC00F08BFC00F0BFFBFFF759
:1014500097FF05F07FFD00F087FD0521134800F0A0
:101460007FF91B4803F06FFB05F0C0FE00F03AFD6A
:101470000346002B01D000F011F9164B1B78002B0E
:10148000EFD0154B1B781A46144B00219954134882
:1014900000F09AF97860124800F04CF9786800F092
:1014A0002DF9DEE7D5150008DC2B010884020020A9
:1014B00011160008E42B01086D160008EC2B01083A
:1014C000FD150008F42B010881160008FC2B01080B
:1014D000F401002081020020800200200002002090
:1014E000042C010880B594B000AF07F1200330222E
:1014F0000021184610F062F807F10C0300221A6070
:101500005A609A60DA601A610023BB602F4B1B6C33
:101510002E4A43F0805313642C4B1B6C03F0805312
:10152000BB60BB6800237B60294B1B68284A43F4DF
:1015300040431360264B1B6803F440437B607B6889
:1015400009233B624FF480337B6201237B630223D8
:10155000BB634FF48003FB630F233B64D8237B649E
:101560000223BB640423FB6407F12003184603F045
:101570004BFB0346002B01D000F0EDF803F0F4FA2A
:101580000346002B01D000F0E6F80F23FB60022396
:101590003B6100237B614FF4A053BB614FF4805348
:1015A000FB6107F10C030521184603F0A5FD034676
:1015B000002B01D000F0CFF800224FF48001002072
:1015C00003F080FE00BF5037BD4680BD00380240AA
:1015D0000070004080B500AFFFF7E4F8FFF73AF87D
:1015E0000346002B01D1034B02E0FFF72DF9024B1C
:1015F000184680BD082C0108282C010880B400AFD3
:10160000024B1846BD465DF8047B7047302C01083C
:1016100080B584B000AF7860FFF7C4F8FFF748F8F2
:101620007B681B681846FFF779F80F4800F082F8CE
:10163000642001F08BF900F02FFD0346FB73FB7B68
:10164000012B05D1FFF78CF8FFF7C4FF034606E036
:10165000FB7B022B01D1FFF7ADFEFFF7ABFE184677
:101660001037BD4680BD00BFE42C010880B500AF37
:10167000FFF798F8FEF7A6FF0346184680BD000066
:1016800080B500AF0E20FFF7A7FB0F20FFF7A4FBEC
:10169000014B184680BD00BF002D010880B582B007
:1016A00000AF134B1B781A46124B13440121184606
:1016B00000F03AFC0346002B16D00D4B1B781A465F
:1016C0000C4B9B5CFB710A4B1B780133DAB2084B65
:1016D0001A70FB1D0121184600F0BCFBFB790D2B95
:1016E00002D1054B01221A7000BF0837BD4680BDEC
:1016F00080020020000200208102002080B582B01C
:1017000000AF78607868FEF77DFD03469BB219460E
:10171000786800F09FFB054B00221A70044B0022F2
:101720001A7000BF0837BD4680BD00BF8002002090
:101730008102002080B582B000AF78607868FEF743
:1017400061FD03469BB21946786800F083FB00BF39
:101750000837BD4680BD80B400AF72B600BFFEE75B
:1017600080B584B000AF78600B467B80144B1B685B
:10177000002B21D17B889B0018460FF0DFFE03462B
:101780001A460F4B1A600023FB810DE0FB899B007A
:101790007A681A440A4B1968FB899B000B4412684B
:1017A0001A60FB890133FB81FA897B889A42EDD369
:1017B000044A7B88138000E000BF1037BD4680BD1F
:1017C000980200209C02002080B588B000AF7860AD
:1017D000786800F066F8786800F08AF8786100238D
:1017E000FB617B69B3F1FF3F09D07B697A681344E1
:1017F00000221A707B6901337A681344FB617B68AD
:101800003B6100237B8320E0154B1A687B8B9B0098
:1018100013441B68FB60124B1A687B8B9B001344BC
:101820001B681846FFF79CFA034639691846FEF70D
:10183000DFFC0346002B05D1F969F868FFF7FEF9D4
:10184000034608E07B8B01337B83064B1B887A8B36
:101850009A42D9D3044B18462037BD4680BD00BFFD
:10186000980200209C020020102D010880B483B053
:1018700000AF0346FB71FB790A2B08D0FB79202BC4
:1018800005D0FB79092B02D0FB790D2B01D1012367
:1018900000E00023DBB218460C37BD465DF8047B40
:1018A000704780B584B000AF78607868FEF7AAFC16
:1018B0000346BB60BB68013BFB6011E0FB687A68D4
:1018C00013441B781846FFF7D1FF0346002B0BD0BB
:1018D000FB687A68134400221A70FB68013BFB60C6
:1018E000FB68002BEADA00E000BF1037BD4680BD80
:1018F00080B584B000AF78607868FEF783FC03465B
:10190000BB60BB68013BFB600AE0FB687A6813447C
:101910001B78202B01D1FB6807E0FB68013BFB60D3
:10192000FB68002BF1DA4FF0FF3318461037BD4645
:1019300080BD000080B483B000AF00237B60104BFB
:101940005B6C0F4A43F4804353640D4B5B6C03F4B0
:1019500080437B607B6800233B60094B1B6C084A1B
:1019600043F080531364064B1B6C03F080533B60C1
:101970003B6800BF0C37BD465DF8047B704700BF75
:101980000038024080B400AFFEE780B400AFFEE74D
:1019900080B400AFFEE780B400AFFEE780B400AFD4
:1019A000FEE780B400AF00BFBD465DF8047B704722
:1019B00080B400AF00BFBD465DF8047B704780B4C3
:1019C00000AF00BFBD465DF8047B704780B500AF37
:1019D00000F09CFF00BF80BD80B500AF024803F05F
:1019E000BAFF00BF80BD00BFA402002080B500AFD9
:1019F000024801F0B3FC00BF80BD00BF0C500020C6
:101A000080B500AF024804F0B5FB00BF80BD00BF49
:101A1000FC02002080B400AF01231846BD465DF8EB
:101A2000047B704780B483B000AF78603960054BA9
:101A300016221A604FF0FF3318460C37BD465DF88A
:101A4000047B70479481002080B582B000AF78603D
:101A50004FF0FF317868FFF7E5FFFEE780B586B00D
:101A600000AFF860B9607A6000237B610AE0AFF3F1
:101A700000800146BB685A1CBA60CAB21A707B6902
:101A800001337B617A697B689A42F0DB7B68184698
:101A90001837BD4680BD80B586B000AFF860B9602C
:101AA0007A6000237B6109E0BB685A1CBA601B782E
:101AB0001846AFF300807B6901337B617A697B68EC
:101AC0009A42F1DB7B6818461837BD4680BD80B46A
:101AD00083B000AF78604FF0FF3318460C37BD4637
:101AE0005DF8047B704780B483B000AF78603960E4
:101AF0003B684FF400525A60002318460C37BD462D
:101B00005DF8047B704780B483B000AF7860012338
:101B100018460C37BD465DF8047B704780B485B02D
:101B200000AFF860B9607A60002318461437BD46EC
:101B30005DF8047B7047000080B487B000AF786028
:101B4000144A154BD31A7B617B693B61134B1B68AD
:101B5000002B02D1114B124A1A60104B1A687B6895
:101B600013443A699A4205D20E4B0C221A604FF088
:101B7000FF3309E0094B1B68FB60084B1A687B6860
:101B80001344064A1360FB6818461C37BD465DF8CF
:101B9000047B70470000032000400000A0020020EA
:101BA000A08100209481002080B400AF064BD3F8C0
:101BB0008830054A43F47003C2F8883000BFBD4640
:101BC0005DF8047B704700BF00ED00E080B582B097
:101BD00000AF3B4600221A605A60154B154A1A6046
:101BE000134B4AF6C7725A60114B00229A60104B91
:101BF00042F21072DA600E4B00229A610C4803F038
:101C0000BBFD0346002B01D0FFF7A5FD00233B6081
:101C100000237B603B461946054804F06DF80346F7
:101C2000002B01D0FFF797FD00BF0837BD4680BDF0
:101C3000A40200200010004080B584B000AF78609E
:101C40007B681B680E4A934215D10023FB600D4B45
:101C50001B6C0C4A43F0100313640A4B1B6C03F01B
:101C60001003FB60FB6800220021362000F091FF8A
:101C7000362000F0AAFF00BF1037BD4680BD00BF70
:101C8000001000400038024080B582B000AF78609C
:101C90007B681B68044A934202D1432000F0FEF89F
:101CA00000BF0837BD4680BD0010004080B582B03F
:101CB00000AF0346FB71074AFB791370472000F021
:101CC00084FF01220349044804F0F3F800BF0837F9
:101CD000BD4680BDEC020020FC02002080B582B031
:101CE00000AF78607B68044A934201D100F0B6F9F6
:101CF00000BF0837BD4680BDFC02002080B500AFA4
:101D0000472000F062FF01220249034804F016F95F
:101D100000BF80BDED020020FC02002080B582B033
:101D200000AF78607B68064A934204D1054B1B786C
:101D3000184600F065F900BF0837BD4680BD00BFFA
:101D4000FC020020ED02002080B500AF034804F043
:101D500025F9472000F047FF00BF80BDFC020020AE
:101D600080B500AF114B124A1A60104B4FF4E132AC
:101D70005A600E4B00229A600C4B0022DA600B4B2B
:101D800000221A61094B0C225A61084B00229A6109
:101D9000064B0022DA61054804F03EF80346002BAA
:101DA00001D0FFF7D8FC00BF80BD00BFFC020020BF
:101DB0000014014080B58AB000AF786007F11403C9
:101DC00000221A605A609A60DA601A617B681B68A8
:101DD0001D4A934233D100233B611C4B5B6C1B4A71
:101DE00043F020035364194B5B6C03F020033B6109
:101DF0003B690023FB60154B1B6B144A43F0040343
:101E00001363124B1B6B03F00403FB60FB68C023DE
:101E10007B610223BB610023FB6103233B62082338
:101E20007B6207F114031946094802F085FC002281
:101E30000021472000F0ADFE472000F0C6FE00BFA5
:101E40002837BD4680BD00BF001401400038024065
:101E50000008024080B584B000AF78600B467B80FC
:101E60007B68002B01D1002310E00A4B1B687A88A5
:101E700079681846FEF7CEFD0346FB81064B1B78BA
:101E8000DBB2002B01D000F093F8FB891846103725
:101E9000BD4680BDF0020020F802002080B584B06D
:101EA00000AF0346FB71FB79002B01D1002310E04A
:101EB0000A4B1B68FA7911461846FEF77AFD03466D
:101EC000FB73074B1B78DBB2002B01D000F070F8DE
:101ED000FB7B18461037BD4680BD00BFF0020020D6
:101EE000F802002080B500AF034B1B681846FEF7D0
:101EF000F6FD0346184680BDF402002080B500AF11
:101F00004FF48070FEF738FD0346054A13604FF426
:101F10008070FEF731FD0346024A136000BF80BDAA
:101F2000F0020020F402002080B584B000AF786099
:101F30000B467B800A4B1B687A8879681846FEF747
:101F4000DFFD0346FB81074B1B78DBB2002B01D082
:101F500000F028F8FB8918461037BD4680BD00BF49
:101F6000F4020020F802002080B500AF054B0122EA
:101F70001A70054B01221A7000F01AF800F012F8DE
:101F800000BF80BDF80200209000002080B500AFA7
:101F9000034B00221A70FFF7D7FE00BF80BD00BFC1
:101FA000F802002080B500AFFFF7A8FE00BF80BD9B
:101FB00080B582B000AF104B1B78DBB2002B16D07F
:101FC0000E4B1B681846FEF78AFD0346002B0FD008
:101FD000094B00221A70094B1B681846FEF73DFD9D
:101FE0000346FB71FB791846FFF760FE00E000BF77
:101FF0000837BD4680BD00BF90000020F0020020E1
:1020000080B582B000AF0346FB71114B1B681846C8
:10201000FEF7B3FD0346002B06D00D4B1B68FA7983
:1020200011461846FEF7C5FC00F02AF80346002BBF
:1020300002D1084B01221A70074B1B78DBB2002B30
:1020400001D0FFF7AFFF00BF0837BD4680BD00BF1E
:10205000F4020020F9020020F802002080B500AF51
:10206000054B01221A70054B1B78DBB2002B01D007
:10207000FFF79EFF00BF80BD90000020F802002007
:1020800080B400AF034B1B781846BD465DF8047B57
:10209000704700BFF902002080B582B000AF002376
:1020A0007B7100233B710023FB713E4B01221A70B0
:1020B0003D4803F0B1FB3D4B01221A705DE03C4B03
:1020C0004AF6AA221A6001213A48FFF72DFF03467B
:1020D0001A46394B1A80384B1B88012B00D04CE034
:1020E000324B1B78002B05D02F4803F005FC2F4BFB
:1020F00000221A70642000F029FC2E4B1B78FB7123
:10210000FF23BB71FB79182B2CD0182B2DDC012B56
:1021100002D0042B20D028E0FB79184600F088F884
:102120000346BB71BB79002B03D10620FFF7B6FE37
:1021300023E0BB79782B07D13B1D0021184600F026
:1021400003F978237B7118E03B1D0321184600F04A
:10215000FBF803467B7110E00620FFF79FFEAA23E1
:102160007B710AE0FF237B7107E03B1D03211846CA
:1021700000F0EAF803467B7100BF7B79DBB2002BED
:102180009DD07B79DBB2AA2B01D1012306E07B79BC
:10219000DBB2782B01D1022300E000231846083778
:1021A000BD4680BD91000020A4020020C60400208E
:1021B00000300040400300204004002080B485B07F
:1021C00000AF78600B467B800023FB8126E07B8894
:1021D000013B7B807B685A1C7A601B781B021AB219
:1021E000B7F90E3053401BB2FB8100237B7312E022
:1021F000B7F90E30002B08DAFB895B009BB283F441
:10220000815383F00103FB8102E0FB895B00FB81CA
:102210007B7B01337B737B7B072BE9D97B88002B8E
:10222000D5D1FB8918461437BD465DF8047B70474D
:1022300080B5A6B000AF0346FB710023A7F8963027
:1022400002213E48FFF770FE0346A7F89630B7F824
:102250009630022B01D004236CE0384B1A78384BAF
:102260001B789A4201D0022364E0344B1B781A4653
:10227000324B5B781344FF2B01D002235AE007F165
:10228000100380211846FFF74FFE0346A7F896304B
:10229000B7F89630802B01D004234BE007F10C03F4
:1022A00002211846FFF740FE0346A7F89630B7F81C
:1022B0009630022B01D004233CE03B7B1B021AB278
:1022C0007B7B1BB213431BB2A7F8943007F11003BA
:1022D00080211846FFF772FF0346A7F89230B7F83F
:1022E0009420B7F892309A4201D0012322E007F1FE
:1022F0001003184600F062F800F0AAF8114B1B8892
:1023000019460E48FEF77AFE034687F8913097F893
:102310009130002B01D108230CE097F89130022B6B
:1023200001D1782306E0064B1B780133DAB2044B67
:102330001A70002318469837BD4680BD4003002020
:10234000910000204004002080B584B000AF786088
:102350000B46FB700023FB737B681B780133DAB2FA
:102360007B681A707B681B78FA789A4208D8182024
:10237000FFF794FD1820FFF791FDFF23FB7304E0A6
:102380001520FFF78BFD0023FB73094B1B78012BF6
:1023900008D1FB7B002B05D1064803F03DFA064B24
:1023A00001221A70FB7B18461037BD4680BD00BF66
:1023B00091000020A4020020C604002080B485B053
:1023C00000AF78601E4B1B88002B11D00023FB73DD
:1023D00008E0FA7BFB7B1B49895C1B4AD154FB7BE1
:1023E0000133FB73FB7B9AB2154B1B889A42F0D3E7
:1023F000134B1A88154B1A80114B00221A800023A8
:10240000FB730DE0FB7B7A681A44104B1B8819465E
:10241000FB7B0B4411780C4AD154FB7B0133FB73DB
:1024200097F90F30002BEDDA084B1B8880339AB2F6
:10243000064B1A8000BF1437BD465DF8047B704719
:10244000C404002044040020400300204004002075
:1024500080B483B000AF214B1B88DBB2013BFB7122
:10246000FB791F4AD35C0A2B11D1FB79BB7100BFEA
:102470001A4B1A88BB799BB2D31A9BB2013B9AB212
:10248000184B1A80174B1B88002B04D120E0FB79D6
:10249000013BFB71E4E7114B1A88124B1B88D31ADE
:1024A0009AB20E4B1A800023FB710BE0BB795A1CC9
:1024B000FB791A44FB790A49895C0B4AD154FB79B0
:1024C0000133FB71FB799AB2064B1B889A42EDD31C
:1024D0000C37BD465DF8047B704700BF4004002008
:1024E00040030020C404002044040020DFF834D05E
:1024F0000D480E490E4A002302E0D458C45004335C
:10250000C4188C42F9D30B4A0B4C002301E0136032
:102510000432A242FBD3FFF747FB0EF0EBFFFEF7BE
:102520005FFF704700000320000000202001002012
:10253000845A0108200100209C810020FEE780B41D
:1025400083B000AF786039607B68002B0BD03B68AC
:10255000DB68002B07D03B689B68002B03D03B68EF
:102560001B69002B02D14FF0FF3314E03B681A685F
:102570007B689A603B685A687B68DA603B68DA6817
:102580007B685A613B689A687B681A613B681A6984
:102590007B689A61002318460C37BD465DF8047BC2
:1025A000704780B586B000AF78600023FB600023E1
:1025B000BB6000237B6100233B617B685B68002B71
:1025C0007CD17B689B68002B02D07B689B68984716
:1025D0007B6820221A6000237B611CE07B685B69BA
:1025E00007F108021221786998470346002B03DAA5
:1025F0006FF004033B610BE0BB6803F01F037A69D3
:102600009A4205D17B687A691A6000233B6105E034
:102610007B6901337B617B691F2BDFD97B681B687A
:102620001F2B02D96FF002033B613B69002B45D1A0
:102630007B681B697A6810684FF400420021984754
:102640000346002B37DB7B685B697A68106807F10B
:102650000802002198470346002B28DB7B689B6912
:1026600098470346FB601CE07B689B6998470346DC
:102670001A46FB68D31AB3F5FA7F0ED87B685B69FC
:102680007A68106807F10802002198470346002B7A
:1026900007DA6FF004033B6110E06FF001033B6168
:1026A0000CE0BB6803F40043002BDDD106E06FF0C3
:1026B00004033B6102E06FF003033B613B69002BC5
:1026C00012D17B689B6998470346FB6000BF7B681B
:1026D0009B69984703461A46FB68D31AB3F5FA6F0D
:1026E000F5D97B6801225A603B6918461837BD4608
:1026F00080BD80B584B000AF78600023FB607B684C
:102700005B697A68106807F10C020121984703465B
:10271000002B02DA6FF004036EE07B685B697A6875
:10272000106807F10C02012198470346002B02DADA
:102730006FF0040360E0FB6803F00403002B01D199
:10274000012359E07B685B697A68106807F10C0225
:10275000002198470346002B02DA6FF004034BE098
:10276000FB6803F48053002B1BD1FB6803F4005378
:10277000002B06D0FB6803F48073002B01D00223EA
:102780003AE0FB6803F40053002B01D0032333E04D
:10279000FB6803F48073002B01D004232CE0052395
:1027A0002AE07B685B697A68106807F10C021F21D8
:1027B00098470346002B02DA6FF004031CE0FB6825
:1027C00003F48053002B01D1062315E0FB6803F0CE
:1027D0001C03182B01D102230EE0FB6803F01C033D
:1027E000082B01D1032307E0FB6803F01C03142B23
:1027F00001D1042300E0052318461037BD4680BDF3
:1028000080B500AF0E4B1B680D4A43F40073136094
:102810000B4B1B680A4A43F480631360084B1B6828
:10282000074A43F480731360032000F0A7F90F20D8
:1028300000F03CF8FFF77EF80023184680BD00BF8B
:10284000003C024080B500AF134B4FF0FF321A62DC
:10285000114B00221A62104B4FF0FF325A620E4B9E
:1028600000225A620C4B4FF0FF321A610A4B0022D1
:102870001A61094B4FF0FF325A61074B00225A612F
:10288000054B4FF0FF329A61034B00229A6100F032
:1028900005F80023184680BD0038024080B400AF20
:1028A00000BFBD465DF8047B7047000080B582B074
:1028B00000AF7860124B1A68124B1B7819464FF420
:1028C0007A73B3FBF1F3B2FBF3F3184600F099F916
:1028D0000346002B01D001230EE07B680F2B0AD8A2
:1028E000002279684FF0FF3000F053F9064A7B6808
:1028F0001360002300E0012318460837BD4680BD61
:102900008C000020980000209400002080B400AFCC
:10291000064B1B781A46064B1B681344044A136087
:1029200000BFBD465DF8047B704700BF98000020E3
:10293000C804002080B400AF034B1B681846BD4696
:102940005DF8047B704700BFC804002080B584B0E8
:1029500000AF7860FFF7EEFFB8607B68FB60FB6854
:10296000B3F1FF3F05D00A4B1B781A46FB681344AE
:10297000FB6000BFFFF7DEFF0246BB68D31AFA68B0
:102980009A42F7D800BF00BF1037BD4680BD00BFD8
:102990009800002080B485B000AF78607B6803F0B9
:1029A0000703FB600C4BDB68BB60BA684FF6FF03A4
:1029B0001340BB60FB681A02BB68134343F0BF635C
:1029C00043F40033BB60044ABB68D36000BF1437D4
:1029D000BD465DF8047B704700ED00E080B400AFB9
:1029E000044BDB681B0A03F007031846BD465DF87D
:1029F000047B704700ED00E080B483B000AF034675
:102A0000FB7197F90730002B0BDBFB7903F01F02FA
:102A1000074997F907305B09012000FA02F241F8F3
:102A2000232000BF0C37BD465DF8047B704700BF14
:102A300000E100E080B483B000AF0346FB7197F97A
:102A40000730002B12DBFB7903F01F020A4997F9CC
:102A500007305B09012000FA02F2203341F82320FD
:102A6000BFF34F8F00BFBFF36F8F00BF00BF0C37A6
:102A7000BD465DF8047B704700E100E080B483B0A0
:102A800000AF03463960FB7197F90730002B0ADB72
:102A90003B68DAB20C4997F907301201D2B20B4405
:102AA00083F800230AE03B68DAB20849FB7903F0B7
:102AB0000F03043B1201D2B20B441A7600BF0C374D
:102AC000BD465DF8047B704700E100E000ED00E0EA
:102AD00080B489B000AFF860B9607A60FB6803F039
:102AE0000703FB61FB69C3F10703042B28BF042321
:102AF000BB61FB690433062B02D9FB69033B00E091
:102B000000237B614FF0FF32BB6902FA03F3DA4323
:102B1000BB681A407B699A404FF0FF317B6901FA2C
:102B200003F3D9437B680B40134318462437BD4653
:102B30005DF8047B7047000080B582B000AF78601C
:102B40007B68013BB3F1807F01D301230FE00A4A88
:102B50007B68013B53600F214FF0FF30FFF78EFF82
:102B6000054B00229A60044B07221A600023184686
:102B70000837BD4680BD00BF10E000E080B582B0E0
:102B800000AF78607868FFF705FF00BF0837BD46E3
:102B900080BD80B586B000AF0346B9607A60FB7334
:102BA00000237B61FFF71AFF78617A68B96878695A
:102BB000FFF78EFF024697F90F3011461846FFF7D0
:102BC0005DFF00BF1837BD4680BD80B582B000AF45
:102BD0000346FB7197F907301846FFF70DFF00BF5A
:102BE0000837BD4680BD80B582B000AF0346FB719B
:102BF00097F907301846FFF71DFF00BF0837BD469D
:102C000080BD80B582B000AF78607868FFF794FF30
:102C1000034618460837BD4680BD80B584B000AF76
:102C200078607B689B6DFB60FFF784FEB8607B6813
:102C300093F83530DBB2022B08D07B6880225A65CE
:102C40007B68002283F83420012352E07B681B68F4
:102C50001A687B681B6822F016021A607B681B6882
:102C60005A697B681B6822F080025A617B681B6C82
:102C7000002B03D17B689B6C002B07D07B681B6803
:102C80001A687B681B6822F008021A607B681B6860
:102C90001A687B681B6822F001021A6013E0FFF7D4
:102CA00049FE0246BB68D31A052B0CD97B6820224B
:102CB0005A657B68032283F835207B68002283F8FD
:102CC0003420032315E07B681B681B6803F00103B5
:102CD000002BE4D17B68DB6D3F229A40FB689A6051
:102CE0007B68012283F835207B68002283F834203A
:102CF000002318461037BD4680BD80B483B000AFB6
:102D000078607B6893F83530DBB2022B04D07B68A7
:102D100080225A6501230CE07B68052283F8352068
:102D20007B681B681A687B681B6822F001021A60C6
:102D3000002318460C37BD465DF8047B704780B40D
:102D400083B000AF78607B685B6D18460C37BD467A
:102D50005DF8047B7047000080B584B000AF7860F8
:102D60007B68002B01D101236CE07B68D3F88430B1
:102D7000002B06D17B682322C3F88420786804F0F6
:102D8000EDFB0023BB60314B5B6C304A43F4804366
:102D900053642E4B5B6C03F48043BB60BB682C4BCD
:102DA0005B682B4A23F400035360294B5A687B6805
:102DB0009B68274913434B60254B5B687B681B6806
:102DC00003F580531B687A68126843F0010302F52B
:102DD00080521360FFF7AEFDF86011E0FFF7AAFD27
:102DE0000246FB68D31AB3F5FA7F09D97B6804223F
:102DF000C3F888207B68E022C3F88420012321E007
:102E00007B681B6803F580531B6803F00103002BEC
:102E1000E4D1786800F0E4FE786800F08BFF786811
:102E200000F0E1FF7B685B681A460021786800F0DB
:102E300049FF7B680022C3F888207B681022C3F812
:102E40008420002318461037BD4680BD003802405C
:102E50000038014080B584B000AF78607B68D3F85B
:102E60008430102B50D17B682322C3F884207B68E8
:102E70000422DA66786800F0FDF97B681B681A683E
:102E80007B681B6842F008021A607B681B681B683D
:102E9000FB600120FFF75AFD7B681B68FA681A6027
:102EA0007B681B681A687B681B6842F004021A6022
:102EB0007B681B681B68FB600120FFF747FD7B6890
:102EC0001B68FA681A60786800F02AFD7B681B6846
:102ED00003F580539B697A68126843F4005302F546
:102EE000805293617B681B6803F580539B697A6805
:102EF000126843F0020302F5805293617B6823223B
:102F0000C3F88420002300E0012318461037BD4693
:102F100080BD80B584B000AF78607B68D3F8843022
:102F2000232B4AD17B682322C3F884207B681B684B
:102F300003F580539B697A68126823F4005302F505
:102F4000805293617B681B6803F580539B697A68A4
:102F5000126823F0020302F5805293617B681B68BC
:102F60001A687B681B6822F004021A607B681B6881
:102F70001B68FB600120FFF7E9FC7B681B68FA68AF
:102F80001A60786800F0CCFC7B681B681A687B6864
:102F90001B6822F008021A607B681B681B68FB60D4
:102FA0000120FFF7D3FC7B681B68FA681A607B6816
:102FB0001022C3F88420002300E0012318461037B4
:102FC000BD4680BD80B586B000AFF860B9607A605C
:102FD000BB68002B09D1FB68D3F8883043F00102AD
:102FE000FB68C3F8882001237CE0FB68D3F88430B9
:102FF000232B76D10022B968F86800F061FF034600
:10300000002B09D0FB68D3F8883043F00202FB683C
:10301000C3F88820012365E0BFF34F8F00BFFB6832
:103020009A6AFB68063253F822307B61FB689B6A20
:103030005A1CFB689A62FB689B6A032B04D9FB68E5
:103040009B6A1A1FFB689A62FB68996AFB681A6898
:10305000FB68063153F8213002F580525360FFF7C8
:1030600069FC386137E0FB681B6803F580535B69D6
:1030700003F40053002B11D0FB68D3F8883043F0E1
:103080000802FB68C3F88820FB681B6803F58053BF
:103090005A69FB68C3F88C20012323E07B68B3F1F5
:1030A000FF3F18D0FFF746FC02463B69D31A7A6807
:1030B0009A4202D37B68002B0DD1FB68D3F888308D
:1030C00043F00402FB68C3F888207B694FF040524C
:1030D0001A60012306E07B691B68002BC3DB002319
:1030E00000E0012318461837BD4680BD80B588B082
:1030F00000AF7860396000237B610023FB733B687D
:10310000002B09D17B68D3F8883043F001027B683B
:10311000C3F888200123A8E07B68D3F88430232BF0
:1031200001D00123A1E07B68DB6DFB617B68FA695C
:10313000123253F82230BB617B68DB6EC3F10403AB
:10314000BB606AE0BB691B6803F48073002B07D087
:10315000BB699A697B689A67BB69DA697B685A6759
:10316000BB691B6803F40073002B03D17B68DB6F22
:10317000002B40D0BB691B6803F40073002B05D003
:103180007B6800221A667B6800225A667B685B694E
:103190003B61BB691B6803F48073002B0CD0BB69D7
:1031A0001B681B0CC3F30D03043B3B61BB691A682E
:1031B0007B681A670123FB73BB699A68BB691A6253
:1031C0007B6803F17C007B6803F18001BB691B6AAB
:1031D0001A463B699BB204F08BFB7B681B6E5A1C42
:1031E0007B681A667B685A6E3B691A447B685A662C
:1031F000BB6900221A62FB690133FB61FB69032B87
:1032000002D9FB69043BFB617B68FA69123253F80F
:103210002230BB617B6901337B61BB691B68002B7A
:1032200006DB7A69BB689A4202D2FB7B002B89D00D
:103230007B68DA6E7B691A447B68DA667B68DB6ED2
:10324000002B02D0786800F015F87B68FA69DA651F
:10325000FB7B012B08D17B68DA6F3B681A607B68C7
:103260000022DA67002300E0012318462037BD461C
:1032700080BD000080B588B000AF78600023FB609F
:103280000123FB747B689B6EFB617B68FA691232D9
:1032900053F822307B617B68DB6EBB6140E07B6969
:1032A0001B6A002B12D107F10C03184604F0F0FA48
:1032B000FB68002B02D10023FB7407E0FB681A4671
:1032C0007B691A62FB681A467B699A60FB7C002B5B
:1032D00026D07B689B6D002B03D17B691E4A5A6008
:1032E00003E07B6944F2F8525A60BFF35F8F00BF7E
:1032F0007B691B6843F000427B691A60FB690133FC
:10330000FB61FB69032B02D9FB69043BFB617B6812
:10331000FA69123253F822307B61BB69013BBB6111
:10332000BB69002B02D0FB7C002BB8D17B68DB6E25
:10333000BA699A420CD07B681B6803F580531A4621
:10334000002393607B68FA699A667B68BA69DA66DB
:1033500000BF2037BD4680BDF845008080B582B0F3
:1033600000AF78607B681B6803F580535B6903F0EE
:103370004003402B12D17B681B6803F58053DB6947
:1033800003F04003402B09D17B681B6803F5805391
:103390001A46504B5361786800F0ACF87B681B68A4
:1033A00003F580535B6903F00103012B13D17B68A4
:1033B0001B6803F58053DB6903F00103012B0AD17D
:1033C0007B681B6803F580531A464FF00113536165
:1033D000786800F085F87B681B6803F580535B69AB
:1033E00003F40043B3F5004F4CD17B681B6803F531
:1033F0008053DB6903F40043B3F5004F42D17B688F
:10340000D3F8883043F008027B68C3F888207B68D3
:103410001B6803F580535B6903F40053B3F5005F49
:103420001AD17B681B6803F580535A692A4B1340F5
:103430007A68C2F88C307B681B6803F58053DB69BF
:103440007A68126823F4C03302F58052D3617B6836
:10345000E022C3F8842012E07B681B6803F58053E8
:103460005A6948F2806313407A68C2F88C307B68EE
:103470001B6803F580531A4648F2806353617868ED
:1034800000F042F87B681B689B6B03F00803082B75
:103490000ED17B681B68DB6A03F060027B68C3F8AF
:1034A0009420786800F03AF87B680022C3F89420F2
:1034B0000A4B5B6903F40023002B06D0074B4FF443
:1034C00000225A61786800F033F800BF0837BD4623
:1034D00080BD00BF4000010000207E00003C014094
:1034E00080B483B000AF786000BF0C37BD465DF894
:1034F000047B704780B483B000AF786000BF0C37A6
:10350000BD465DF8047B704780B483B000AF78603F
:1035100000BF0C37BD465DF8047B704780B483B0B4
:1035200000AF786000BF0C37BD465DF8047B704784
:1035300080B483B000AF786000BF0C37BD465DF843
:10354000047B704780B586B000AFF860B9607A60E0
:103550003B60FB681B681B697B617B6903F01C0394
:103560007B61BB68DB029BB27A6913437B617B683A
:103570009B0103F4F8637A6913437B617B6923F051
:1035800002037B617B6943F001037B61FB681B687D
:103590007A691A61FFF7CEF938610DE0FFF7CAF9D1
:1035A00002463B69D31AB3F5803F01D3012310E0F3
:1035B000FB681B681B697B617B6903F00103002BBF
:1035C000ECD1FB681B685B699BB21A463B681A60CA
:1035D000002318461837BD4680BD80B586B000AFC1
:1035E000F860B9607A603B60FB681B681B697B61AF
:1035F0007B6903F01C037B61BB68DB029BB27A69C9
:1036000013437B617B689B0103F4F8637A6913437E
:103610007B617B6943F002037B617B6943F00103BB
:103620007B613B689AB2FB681B685A61FB681B6848
:103630007A691A61FFF77EF938610DE0FFF77AF9D0
:1036400002463B69D31AB3F5803F01D3012309E059
:10365000FB681B681B697B617B6903F00103002B1E
:10366000ECD1002318461837BD4680BD80B483B026
:1036700000AF786039603B68002B01D10123D9E0AD
:103680007B681B681B6803F01003002B14BF012329
:103690000023DBB21A463B6883F828207B681B684E
:1036A0001B6803F060023B685A627B681B681B68FA
:1036B00003F40073002B0CBF01230023DBB21A4676
:1036C0003B6883F820207B681B681B6803F4803309
:1036D000002B14BF01230023DBB21A463B68DA77C4
:1036E0007B681B681B6803F40053002B0CBF01238D
:1036F0000023DBB21A463B689A777B681B681B681D
:1037000003F48053002B14BF01230023DBB21A46BD
:103710003B681A777B681B681B6803F400623B6890
:103720009A617B681B681B6803F480423B685A619E
:103730007B681B681B6803F48003002B0CBF01230C
:103740000023DBB21A463B685A747B681B681B680F
:1037500003F40003002B0CBF01230023DBB21A4645
:103760003B681A747B681B681B6803F08003002B9E
:1037700014BF01230023DBB21A463B68DA737B686F
:103780001B681B6803F460223B689A607B681B68B7
:103790001B6803F48063002B14BF01230023DBB2FA
:1037A0001A463B681A717B681B689B6903F0020329
:1037B000002B14BF01230023DBB21A463B6883F8B9
:1037C00054207B681B689B6903F08003002B0CBFAF
:1037D00001230023DBB21A463B6883F84C207B6848
:1037E0001B689B6903F030023B681A657B681B68A5
:1037F0009B691B0C9AB23B689A647B681B689B6947
:1038000003F00403002B14BF01230023DBB21A468C
:103810003B6883F856207B681B689B6903F00803AC
:10382000002B14BF01230023DBB21A463B6883F848
:103830005520002318460C37BD465DF8047B7047C1
:1038400080B582B000AF786039603B68002B01D151
:1038500001230BE07B68D3F88430102B05D1396845
:10386000786800F083F8002300E001231846083749
:10387000BD4680BD80B584B000AF78607B681B68B2
:103880001B69FB60FB6823F01C03FB6001F048FE32
:10389000B860BB681D4A934208D9BB681C4A934272
:1038A00004D8FB6843F00803FB6027E0BB68184AB4
:1038B000934208D9BB68174A934204D2FB6843F08D
:1038C0000C03FB601AE0BB68124A934203D3BB6847
:1038D000114A934211D9BB680F4A934208D9BB6879
:1038E0000E4A934204D8FB6843F00403FB6005E0F2
:1038F000FB6843F01003FB6000E000BF7B681B68BF
:10390000FA681A6100BF1037BD4680BDFF2C310137
:10391000BF0E160200879303FFE0F5057FD1F00884
:1039200080B584B000AF78600023FB607B681B68C3
:1039300003F580539B697A68126843F4801302F59B
:10394000805293617B681B6803F580539B69FB6021
:103950000120FEF7FBFF7B681A68FB6802F58052C6
:10396000936100BF1037BD4680BD000080B584B0B4
:1039700000AF786039607B681B681B68FB60FA6881
:10398000514B1340FB603B681B7C002B02D14FF472
:10399000000200E000223B685B7C002B02D14FF468
:1039A000800300E000231A433B689B681A433B688E
:1039B000DB7F1B041A433B685B6913433A68927FC1
:1039C000002A02D14FF4005200E000221A433B6863
:1039D0001B7F1B031A433B689B691A433B681B7997
:1039E0009B0213433A6892F82020002A02D14FF438
:1039F000007200E000221A433B68DB7BDB011A43C4
:103A00003B685B6A1A433B6893F828301B011343F9
:103A1000FA681343FB607B681B68FA681A607B686E
:103A20001B681B68FB600120FEF790FF7B681B682A
:103A3000FA681A607B681B689B69FB60FA684FF63E
:103A400041731340FB603B689B6C1B043A6892F81F
:103A50004C20002A01D1802200E000221A433B685A
:103A60001B6D13433A6892F85520012A01D10822B0
:103A700000E0002213433A6892F85620012A01D14F
:103A8000042200E0002213433A6892F85420012AED
:103A900001D1022200E000221343FA681343FB60C5
:103AA0007B681B68FA689A617B681B689B69FB608E
:103AB0000120FEF74BFF7B681B68FA689A6100BF24
:103AC0001037BD4680BD00BF0F8120FF80B584B098
:103AD00000AF786039607B681B6803F580539B6991
:103AE000FB60FA683D4B1340FB603B681B7B002B7F
:103AF00002D14FF0806200E000223B685B7B5B06F6
:103B000013433A68527F002A02D14FF4801200E03A
:103B100000221A433B689B7B5B051A433B685B6949
:103B20001A433B681B7FDB011A433B689B7F9B0169
:103B30001A433B681B6A1A433B6893F824309B0086
:103B40001343FA681343FB607B681B6803F58053DB
:103B50001A46FB6893617B681B6803F580539B6979
:103B6000FB600120FEF7F2FE7B681B6803F58053C3
:103B70001A46FB6893613B681B795A063B689B6851
:103B80001A433B689B691A433B681B691A433B68AD
:103B900093F82530DB011A433B689B6A9B001A436C
:103BA0003B681B6813437A68126843F4000302F50C
:103BB000805213607B681B6803F580531B68FB60B1
:103BC0000120FEF7C3FE7B681B6803F580531A468D
:103BD000FB68136000BF1037BD4680BD233FDEF891
:103BE00080B5A6B000AF7860012387F84430012388
:103BF00087F845300023FB63002387F85330012307
:103C000087F85230002387F85030012387F8383086
:103C1000002387F85430002387F843300023BB6526
:103C2000002387F85C300023FB67002387F880308F
:103C30000023C7F88430002387F88A30002387F8F0
:103C400088304FF48043BB644FF40063FB6400236F
:103C500087F8893007F1340319467868FFF786FE44
:103C600001233B7501237B75012387F82530012350
:103C7000BB750023FB61002387F82430002387F8FD
:103C800026300023BB62012387F82C3001233B73CD
:103C90004FF480333B614FF480033B624FF4005399
:103CA000BB61012387F82D3000233B630023BB60F9
:103CB00007F1080319467868FFF708FF00BF983737
:103CC000BD4680BD80B487B000AFF860B9607A604F
:103CD0007B6805331B781B027A6804321278134321
:103CE0007B61BA68114B13441A467B6913607B6889
:103CF00003331B781A067B6802331B781B041A43B4
:103D00007B6801331B781B0213437A6812781343D4
:103D10007B61BA68064B13441A467B69136000BF87
:103D20001C37BD465DF8047B704700BF40800240F1
:103D30004480024080B485B000AF78600023FB600F
:103D40003EE07B68D968FA6813469B001344DB00A9
:103D50000B44BB60BB6800221A60BB6800225A603B
:103D6000BB6800229A60BB680022DA60B9687B6891
:103D7000FA68063243F82210BB681B6843F48012CD
:103D8000BB681A60FB68022B0CD87B68D968FB689B
:103D90005A1C13469B001344DB000B441A46BB68B5
:103DA000DA6004E07B68DB681A46BB68DA60BB68EF
:103DB0001B6843F44002BB681A60FB680133FB6078
:103DC000FB68032BBDD97B6800229A627B68DA68A6
:103DD0007B681B6803F580531A6100BF1437BD462A
:103DE0005DF8047B704780B485B000AF7860002335
:103DF000FB6046E07B681969FA6813469B00134430
:103E0000DB000B44BB60BB6800221A60BB68002269
:103E10005A60BB6800229A60BB680022DA60BB6807
:103E200000221A62BB6800225A62BB684FF000424F
:103E30001A60BB6844F2F8525A60BB685B6823F0B2
:103E40000042BB685A60B9687B68FA68123243F86E
:103E50002210FB68022B0CD87B681969FB685A1C7E
:103E600013469B001344DB000B441A46BB68DA6020
:103E700004E07B681B691A46BB68DA60FB680133A3
:103E8000FB60FB68032BB5D97B680022DA657B6891
:103E900000221A667B6800229A667B680022DA6636
:103EA0007B6800229A657B681A697B681B6803F54A
:103EB0008053DA6000BF1437BD465DF8047B70475D
:103EC00080B48DB000AFF860B9607A60FB681833D9
:103ED0007B617B691B69FB627B691B693B6100231A
:103EE0007B627B69FA6A53F822303B62BB689B684D
:103EF000FB610023BB613B6A1B6803F00043B3F125
:103F0000004F07D07A69FB6A04339B0013445B6857
:103F1000002B01D0022303E17B6A01337B62FB6942
:103F20001B681A463B6A9A603B6A5B6823F4FF533E
:103F300023F01F03FA6952681A433B6A5A60BB6850
:103F40001B6803F00103002B08D03B6A1B6823F4B5
:103F50004002BB685B691A433B6A1A60BB681B6816
:103F600003F02003002B08D03B6A1B6823F040625B
:103F7000BB681B691A433B6A1A60BB681B6803F085
:103F80000403002B05D03B6A1B6843F080023B6AA8
:103F90001A603B6A1B6843F080523B6A1A60BFF3A9
:103FA0005F8F00BF3B6A1B6843F000423B6A1A60A8
:103FB00084E03B6A1B6823F000523B6A1A607B680E
:103FC000002B06D03B6A1B6843F080423B6A1A60B4
:103FD00005E03B6A1B6823F080423B6A1A60FB6A7B
:103FE0000133FB62FB6A032B02D9FB6A043BFB62D1
:103FF0007B69FA6A53F822303B623B6A1B6823F004
:1040000080523B6A1A603B6A1B6803F00043B3F1BD
:10401000004F07D07A69FB6A04339B0013445B6846
:10402000002B29D03B69FB627B69FA6A53F8223086
:104030003B620023BB6219E0BFF35F8F00BF3B6AA6
:104040001B6823F000423B6A1A60FB6A0133FB6283
:10405000FB6A032B02D9FB6A043BFB627B69FA6AA9
:1040600053F822303B62BB6A0133BB62BA6A7B6A97
:104070009A42E1D3022353E07B6A01337B62FB69FE
:104080009B68FB61FB691B681A463B6A9A603B6A46
:104090005B6823F4FF5323F01F03FA6952681A4345
:1040A0003B6A5A60BB690133BB61BFF35F8F00BFDE
:1040B0003B6A1B6843F000423B6A1A60FB699B68DD
:1040C000002B7FF476AF7B68002B06D03B6A1B6821
:1040D00043F080423B6A1A6005E03B6A1B6823F0AC
:1040E00080423B6A1A603B6A1B6843F000523B6A9D
:1040F0001A607B695A6A7969FB6A04339B000B4436
:104100005A607B69FA6A1A6172B600BF7B699A6A63
:10411000BB6913445A1C7B699A6262B600BF0023D4
:1041200018463437BD465DF8047B704780B586B0CD
:1041300000AFF860B960C7E900230123FB75234B8A
:104140001B7E012B01D102233BE0204B01221A767A
:104150004CF2503000F070F80346FB75FB7D002BED
:104160002BD1FB68002B05D13B781946B86800F0CD
:104170001BF916E0FB68012B05D13B881946B8688E
:1041800000F0EEF80DE0FB68022B05D13B68194604
:10419000B86800F0C3F804E0D7E90023B86800F07D
:1041A0008BF84CF2503000F047F80346FB75084B93
:1041B0001B69074A23F001031361044B00221A769E
:1041C000FB7D18461837BD4680BD00BFCC040020DB
:1041D000003C024080B483B000AF0023FB710B4B66
:1041E0001B69002B0BDA094B094A5A60074B094A35
:1041F0005A60064B1B69002B01DA0123FB71FB7926
:1042000018460C37BD465DF8047B7047003C024001
:1042100023016745AB89EFCD80B400AF054B1B6927
:10422000044A43F00043136100231846BD465DF87D
:10423000047B7047003C024080B584B000AF7860DA
:104240000023FB601A4B0022DA61FEF773FBF86073
:1042500010E07B68B3F1FF3F0CD07B68002B07D0E8
:10426000FEF768FB0246FB68D31A7A689A4201D2CD
:10427000032319E00F4BDB6803F48033002BE8D1F4
:104280000C4BDB6803F00103002B02D0094B012229
:10429000DA60084BDB6803F4F973002B03D000F0FD
:1042A000A5F8012300E0002318461037BD4680BD65
:1042B000CC040020003C024080B485B000AFF86020
:1042C000C7E90023144B1B69134A23F4407313619D
:1042D000114B1B69104A43F4407313610E4B1B6969
:1042E0000D4A43F001031361FB683A681A60BFF39B
:1042F0006F8F00BFD7E900014FF000024FF00003BD
:104300000A000023F968043113460B6000BF14371C
:10431000BD465DF8047B7047003C024080B483B02A
:1043200000AF786039600D4B1B690C4A23F4407371
:1043300013610A4B1B69094A43F400731361074B6D
:104340001B69064A43F0010313617B683A681A60EF
:1043500000BF0C37BD465DF8047B7047003C02404F
:1043600080B483B000AF78600B467B800D4B1B6937
:104370000C4A23F4407313610A4B1B69094A43F446
:1043800080731361074B1B69064A43F001031361F5
:104390007B687A881A8000BF0C37BD465DF8047BC5
:1043A000704700BF003C024080B483B000AF78602B
:1043B0000B46FB700C4B1B690B4A23F440731361D3
:1043C000094B094A1B691361074B1B69064A43F0F5
:1043D000010313617B68FA781A7000BF0C37BD4681
:1043E0005DF8047B704700BF003C024080B400AF22
:1043F0002F4BDB6803F01003002B08D02D4BDB693B
:1044000043F010032B4AD361294B1022DA60284B6A
:10441000DB6803F02003002B08D0264BDB6943F058
:104420000803244AD361224B2022DA60204BDB6848
:1044300003F04003002B08D01E4BDB6943F004035C
:104440001C4AD3611A4B4022DA60194BDB6803F037
:104450008003002B08D0174BDB6943F00203154A99
:10446000D361134B8022DA60114BDB6803F4807355
:10447000002B09D00F4BDB6943F001030D4AD361D8
:104480000B4B4FF48072DA60094BDB6803F00203D8
:10449000002B08D0074BDB6943F02003054AD361AA
:1044A000034B0222DA6000BFBD465DF8047B704713
:1044B000003C0240CC04002080B584B000AF78609E
:1044C00039600123FB730023BB60324B1B7E012B41
:1044D00001D102235AE02F4B01221A764CF25030C0
:1044E000FFF7AAFE0346FB73FB7B002B4AD13B6818
:1044F0004FF0FF321A607B681B68012B17D17B6875
:104500001B69DAB27B685B681946104600F046F812
:104510004CF25030FFF790FE0346FB731E4B1B69B5
:104520001D4A23F4004323F00403136128E07B6851
:104530009B68BB601CE07B681B69DBB21946B868EE
:1045400000F066F84CF25030FFF776FE0346FB733E
:10455000114B1B69104A23F0FA031361FB7B002BFC
:1045600003D03B68BA681A600AE0BB680133BB60DD
:104570007B68DA687B689B681344BA689A42DAD32E
:1045800000F094F8034B00221A76FB7B1846103794
:10459000BD4680BDCC040020003C024080B483B006
:1045A00000AF03463960FB71184B1B69174A23F4AF
:1045B000407313613B68032B08D1144B1B69134AEA
:1045C00043F4004343F0040313610FE03B68012B05
:1045D00006D10E4B1B690D4A43F00403136105E03D
:1045E0000A4B1B69094A43F400431361074B1A69DC
:1045F000FB791B021343054A43F48033136100BF68
:104600000C37BD465DF8047B704700BF003C02409C
:1046100080B485B000AF78600B46FB700023FB6070
:10462000FB78002B02D10023FB6010E0FB78012B0C
:1046300003D14FF48073FB6009E0FB78022B03D1B8
:104640004FF40073FB6002E04FF44073FB607B6843
:104650000B2B02D97B6804337B60134B1B69124A16
:1046600023F440731361104B1A690F49FB6813431D
:104670000B610D4B1B690C4A23F0F80313610A4BC5
:104680001A697B68DB001343074A43F00203136196
:10469000054B1B69044A43F48033136100BF143790
:1046A000BD465DF8047B7047003C024080B400AF1B
:1046B000204B1B6803F40073002B17D01D4B1B68A5
:1046C0001C4A23F4007313601A4B1B68194A43F405
:1046D00000631360174B1B68164A23F400631360D2
:1046E000144B1B68134A43F400731360114B1B688F
:1046F00003F48063002B17D00E4B1B680D4A23F484
:10470000806313600B4B1B680A4A43F480531360A9
:10471000084B1B68074A23F480531360054B1B6842
:10472000044A43F48063136000BFBD465DF8047B18
:10473000704700BF003C024080B489B000AF786091
:10474000396000237B6100233B610023BB610023B0
:10475000FB6177E10122FB6902FA03F37B613B68AD
:104760001B687A6913403B613A697B699A4240F061
:1047700066813B685B6803F00303012B05D03B684F
:104780005B6803F00303022B30D17B689B68BB613D
:10479000FB695B00032202FA03F3DB43BA691340AF
:1047A000BB613B68DA68FB695B0002FA03F3BA6934
:1047B0001343BB617B68BA699A607B685B68BB61C5
:1047C0000122FB6902FA03F3DB43BA691340BB61C0
:1047D0003B685B681B0903F00102FB6902FA03F303
:1047E000BA691343BB617B68BA695A603B685B680E
:1047F00003F00303032B17D07B68DB68BB61FB6905
:104800005B00032202FA03F3DB43BA691340BB6186
:104810003B689A68FB695B0002FA03F3BA691343C9
:10482000BB617B68BA69DA603B685B6803F00303CD
:10483000022B23D1FB69DA087B68083253F8223057
:10484000BB61FB6903F007039B000F2202FA03F32D
:10485000DB43BA691340BB613B681A69FB6903F02B
:1048600007039B0002FA03F3BA691343BB61FB69B8
:10487000DA087B680832B96943F822107B681B6844
:10488000BB61FB695B00032202FA03F3DB43BA69F5
:104890001340BB613B685B6803F00302FB695B008C
:1048A00002FA03F3BA691343BB617B68BA691A6001
:1048B0003B685B6803F44033002B00F0C0800023AA
:1048C000FB60664B5B6C654A43F480435364634B07
:1048D0005B6C03F48043FB60FB68614AFB699B08E7
:1048E000023352F82330BB61FB6903F003039B00E2
:1048F0000F2202FA03F3DB43BA691340BB617B6802
:10490000584A934237D07B68574A934231D07B68EC
:10491000564A93422BD07B68554A934225D07B68F8
:10492000544A93421FD07B68534A934219D07B6804
:10493000524A934213D07B68514A93420DD07B6810
:10494000504A934207D07B684F4A934201D10923D2
:1049500012E00A2310E008230EE007230CE00623F0
:104960000AE0052308E0042306E0032304E0022311
:1049700002E0012300E00023FA6902F00302920042
:104980009340BA691343BB613549FB699B08023305
:10499000BA6941F823203D4B9B68BB613B69DB430F
:1049A000BA691340BB613B685B6803F48013002B5A
:1049B00003D0BA693B691343BB61344ABB69936056
:1049C000324BDB68BB613B69DB43BA691340BB61B7
:1049D0003B685B6803F40013002B03D0BA693B69A2
:1049E0001343BB61294ABB69D360284B5B68BB6139
:1049F0003B69DB43BA691340BB613B685B6803F406
:104A00000033002B03D0BA693B691343BB611F4AD3
:104A1000BB6953601D4B1B68BB613B69DB43BA69D3
:104A20001340BB613B685B6803F48033002B03D009
:104A3000BA693B691343BB61144ABB691360FB69E4
:104A40000133FB61FB690F2B7FF684AE00BF00BF13
:104A50002437BD465DF8047B704700BF0038024034
:104A600000380140000002400004024000080240FB
:104A7000000C0240001002400014024000180240E6
:104A8000001C02400020024000240240003C014083
:104A900080B483B000AF78600B467B8013467B7098
:104AA0007B78002B03D07A887B689A6103E07B884F
:104AB0001A047B689A6100BF0C37BD465DF8047B21
:104AC000704780B584B000AF78607B68002B01D15F
:104AD000012334E07B681B684CF6CC421A607B688B
:104AE0001B6845F255521A607B681B687A685268E9
:104AF0005A607B681B687A6892689A60FDF71AFFB3
:104B0000F8600FE0FDF716FF0246FB68D31A312B61
:104B100008D97B681B68DB6803F00303002B01D016
:104B200003230CE07B681B68DB6803F00303002BA6
:104B3000E8D17B681B684AF6AA221A60002318464F
:104B40001037BD4680BD80B483B000AF78607B680D
:104B50001B684AF6AA221A60002318460C37BD4685
:104B60005DF8047B7047000080B582B000AF002381
:104B70007B6000233B60204B1B6C1F4A43F080533B
:104B800013641D4B1B6C03F080533B603B681B4B55
:104B900001221A60FDF7CEFE786009E0FDF7CAFE3B
:104BA00002467B68D31AB3F57A7F01D903231FE04D
:104BB000134B5B6803F48033B3F5803FEED1114BA8
:104BC00001221A60FDF7B6FE786009E0FDF7B2FE3B
:104BD00002467B68D31AB3F57A7F01D9032307E035
:104BE000074B5B6803F40033B3F5003FEED10023BD
:104BF00018460837BD4680BD0038024040000E42CE
:104C00000070004044000E4280B586B000AF78606E
:104C10007B68002B01D1012367E27B681B6803F0EE
:104C20000103002B75D0884B9B6803F00C03042B09
:104C30000CD0854B9B6803F00C03082B12D1824BE0
:104C40005B6803F48003B3F5800F0BD17E4B1B68C8
:104C500003F40033002B5BD07B685B68002B57D1DB
:104C6000012342E27B685B68B3F5803F06D1764B57
:104C70001B68754A43F4803313601DE07B685B68F2
:104C8000B3F5A02F0CD1704B1B686F4A43F48023FF
:104C900013606D4B1B686C4A43F4803313600BE068
:104CA000694B1B68684A23F480331360664B1B68AA
:104CB000654A23F4802313607B685B68002B13D064
:104CC000FDF738FE386108E0FDF734FE02463B6927
:104CD000D31A642B01D9032307E25B4B1B6803F44F
:104CE0000033002BF0D014E0FDF724FE386108E01B
:104CF000FDF720FE02463B69D31A642B01D903233A
:104D0000F3E1514B1B6803F40033002BF0D100E0BA
:104D100000BF7B681B6803F00203002B63D04A4B83
:104D20009B6803F00C03002B0BD0474B9B6803F0F0
:104D30000C03082B1CD1444B5B6803F48003002B4D
:104D400016D1414B1B6803F00203002B05D07B6892
:104D5000DB68012B01D00123C7E13B4B1B6823F02B
:104D6000F8027B681B69DB00374913430B603AE0AC
:104D70007B68DB68002B20D0344B01221A60FDF7E2
:104D8000D9FD386108E0FDF7D5FD02463B69D31A2D
:104D9000022B01D90323A8E12B4B1B6803F002036C
:104DA000002BF0D0284B1B6823F0F8027B681B69AE
:104DB000DB00254913430B6015E0244B00221A60E9
:104DC000FDF7B8FD386108E0FDF7B4FD02463B6928
:104DD000D31A022B01D9032387E11B4B1B6803F075
:104DE0000203002BF0D17B681B6803F00803002B43
:104DF00036D07B685B69002B16D0154B01221A60F8
:104E0000FDF798FD386108E0FDF794FD02463B6927
:104E1000D31A022B01D9032367E10B4B5B6F03F01D
:104E20000203002BF0D01BE0094B00221A60FDF7B3
:104E300081FD38610EE0FDF77DFD02463B69D31A26
:104E4000022B07D9032350E10038024000004742FB
:104E5000800E4742884B5B6F03F00203002BEAD1C0
:104E60007B681B6803F00403002B00F0978000238D
:104E7000FB75814B1B6C03F08053002B0FD100237B
:104E8000BB607D4B1B6C7C4A43F0805313647A4BB0
:104E90001B6C03F08053BB60BB680123FB75774B31
:104EA0001B6803F48073002B18D1744B1B68734A82
:104EB00043F480731360FDF73DFD386108E0FDF7B2
:104EC00039FD02463B69D31A022B01D903230CE1B9
:104ED0006A4B1B6803F48073002BF0D07B689B68DF
:104EE000012B06D1644B1B6F634A43F00103136728
:104EF0001CE07B689B68052B0CD15F4B1B6F5E4AE7
:104F000043F0040313675C4B1B6F5B4A43F00103E0
:104F100013670BE0584B1B6F574A23F001031367CD
:104F2000554B1B6F544A23F0040313677B689B683F
:104F3000002B15D0FDF7FEFC38610AE0FDF7FAFC06
:104F400002463B69D31A41F28832934201D90323C6
:104F5000CBE0494B1B6F03F00203002BEED014E0B3
:104F6000FDF7E8FC38610AE0FDF7E4FC02463B6926
:104F7000D31A41F28832934201D90323B5E03E4B64
:104F80001B6F03F00203002BEED1FB7D012B05D13B
:104F9000394B1B6C384A23F0805313647B689B6940
:104FA000002B00F0A180344B9B6803F00C03082B0E
:104FB0005CD07B689B69022B41D1314B00221A6087
:104FC000FDF7B8FC386108E0FDF7B4FC02463B6928
:104FD000D31A022B01D9032387E0274B1B6803F068
:104FE0000073002BF0D17B68DA697B681B6A1A4377
:104FF0007B685B6A9B011A437B689B6A5B08013B89
:105000001B041A437B68DB6A1B061B4913434B6076
:105010001B4B01221A60FDF78DFC386108E0FDF79B
:1050200089FC02463B69D31A022B01D903235CE0B9
:10503000114B1B6803F00073002BF0D054E0104BB1
:1050400000221A60FDF776FC386108E0FDF772FC7B
:1050500002463B69D31A022B01D9032345E0064BD4
:105060001B6803F00073002BF0D13DE07B689B6967
:10507000012B07D1012338E00038024000700040C6
:10508000600047421B4B5B68FB607B689B69012BA0
:1050900028D0FB6803F480027B68DB699A4221D147
:1050A000FB6803F03F027B681B6A9A421AD1FA68D8
:1050B00047F6C07313407A68526A9201934211D145
:1050C000FB6803F440327B689B6A5B08013B1B046E
:1050D0009A4207D1FB6803F070627B68DB6A1B06AB
:1050E0009A4201D0012300E0002318461837BD463C
:1050F00080BD00BF0038024080B584B000AF78604A
:1051000039607B68002B01D10123CCE0684B1B6820
:1051100003F00F033A689A420CD9654B3A68D2B251
:105120001A70634B1B6803F00F033A689A4201D070
:105130000123B8E07B681B6803F00203002B20D03A
:105140007B681B6803F00403002B05D0594B9B6858
:10515000584A43F4E05393607B681B6803F00803EC
:10516000002B05D0534B9B68524A43F46043936035
:10517000504B9B6823F0F0027B689B684D491343BA
:105180008B607B681B6803F00103002B44D07B68B5
:105190005B68012B07D1474B1B6803F40033002BDE
:1051A00019D101237FE07B685B68022B03D07B6809
:1051B0005B68032B07D13F4B1B6803F00073002B88
:1051C00009D101236FE03B4B1B6803F00203002B66
:1051D00001D1012367E0374B9B6823F003027B6812
:1051E0005B68344913438B60FDF7A4FBF8600AE069
:1051F000FDF7A0FB0246FB68D31A41F288329342C6
:1052000001D903234FE02B4B9B6803F00C027B6812
:105210005B689B009A42EBD1254B1B6803F00F03A0
:105220003A689A420CD2224B3A68D2B21A70204B9A
:105230001B6803F00F033A689A4201D0012332E061
:105240007B681B6803F00403002B08D0194B9B6894
:1052500023F4E0527B68DB68164913438B607B685C
:105260001B6803F00803002B09D0124B9B6823F442
:1052700060427B681B69DB000E4913438B6000F0C2
:1052800089F802460B4B9B681B0903F00F030A4980
:10529000CB5C22FA03F3094A1360094B1B681846DA
:1052A000FDF704FB002318461037BD4680BD00BF44
:1052B000003C024000380240245701088C000020C6
:1052C0009400002080B58CB000AFF860B9607A60BF
:1052D000FB68002B29D10023BB612B4B1B6B2A4A97
:1052E00043F001031363284B1B6B03F00103BB6105
:1052F000BB694FF48073FB6102233B620323BB62F3
:1053000000237B620023FB6207F11C0319461F4840
:10531000FFF712FA1C4B9B6823F0EC62B9687B68BC
:105320000B43194913438B6029E000237B61164B23
:105330001B6B154A43F004031363134B1B6B03F001
:1053400004037B617B694FF40073FB6102233B62C2
:105350000323BB6200237B620023FB6207F11C0373
:1053600019460B48FFF7E8F9074B9B6823F0784292
:105370007B68D900BB680B43034913438B6000BFB4
:105380003037BD4680BD00BF0038024000000240FB
:10539000000802402DE9B04F90B000AF00237B63BE
:1053A0000023FB6300233B630023BB63594B9B68D3
:1053B00003F00C03082B0DD0082B00F2A180002B6A
:1053C00002D0042B03D09BE0534BBB639BE0534BB9
:1053D000BB6398E04F4B5B6803F03F037B634D4B2F
:1053E0005B6803F48003002B28D04A4B5B689B0961
:1053F00000223B627A623B6AC3F308000021474BFC
:1054000003FB01F2002300FB03F31344434AA0FB18
:105410000212FA620A46BA62FA6A1344FB627B6BB2
:105420000022BB61FA61D7E90623D7E90A01FAF73E
:1054300047FF02460B461346FB6353E0354B5B6860
:105440009B0900223B617A613B69C3F3080A4FF074
:10545000000B52465B464FF000004FF0000159012F
:1054600041EAD261500102460B46B2EB0A0863EBF7
:105470000B094FF000024FF000034FEA891343EA93
:1054800098634FEA8812B2EB080463EB09054FF00A
:1054900000024FF00003EB0043EA5473E2001446AD
:1054A0001D4614EB0A033B6045EB0B037B604FF09A
:1054B00000024FF00003D7E9004529468B02214640
:1054C00043EA915321468A02104619467B6B00221B
:1054D000BB60FA60D7E90223FAF7F2FE02460B46F8
:1054E0001346FB630B4B5B681B0C03F00303013398
:1054F0005B003B63FA6B3B6BB2FBF3F3BB6302E015
:10550000054BBB6300BFBB6B18464037BD46BDE8CB
:10551000B08F00BF003802400024F40040787D01C5
:1055200080B400AF034B1B681846BD465DF8047B92
:10553000704700BF8C00002080B500AFFFF7F0FF80
:105540000246054B9B689B0A03F007030349CB5CAB
:1055500022FA03F3184680BD003802403457010890
:1055600080B500AFFFF7DCFF0246054B9B685B0B85
:1055700003F007030349CB5C22FA03F3184680BD0E
:10558000003802403457010880B582B000AFFDF703
:10559000D1F97860724B1B68714A43F001031360C4
:1055A00008E0FDF7C7F902467B68D31A022B01D940
:1055B0000323D0E06A4B1B6803F00203002BF0D0FA
:1055C000674B1B68664A43F080031360FDF7B2F92E
:1055D0007860634B00229A600AE0FDF7ABF902465F
:1055E0007B68D31A41F28832934201D90323B2E097
:1055F0005B4B9B6803F00C03002BEED1FDF79AF98F
:105600007860574B1B68564A23F45023136008E018
:10561000FDF790F902467B68D31A642B01D9032366
:1056200099E04F4B1B6803F40033002BF0D1FDF7DA
:1056300081F978604A4B1B68494A23F080731360F4
:1056400008E0FDF777F902467B68D31A022B01D9EF
:10565000032380E0424B1B6803F00073002BF0D162
:10566000FDF768F978603E4B1B683D4A23F0806384
:10567000136008E0FDF75EF902467B68D31A022B3F
:1056800001D9032367E0364B1B6803F00063002B4E
:10569000F0D1FDF74FF97860314B1B68304A23F0A9
:1056A0008053136008E0FDF745F902467B68D31A82
:1056B000022B01D903234EE0294B1B6803F0005352
:1056C000002BF0D1264B274A5A60254B264AC3F8B7
:1056D0008420234B244AC3F88820214BDB68204ACE
:1056E00023F4F853D3601E4BDB681D4A23F40053A8
:1056F000D3601B4BDB681A4A23F48043D360184BFA
:10570000DB68174A43F41F03D360154BDB68144A68
:1057100043F40013D360124BDB68114A43F4800357
:10572000D3600F4B5B6F0E4A23F0010353670C4BA2
:105730005B6F0B4A43F0807353670C4B0C4A1A6043
:105740000C4B1B681846FDF7B1F80346002B01D03F
:10575000012300E0002318460837BD4680BD00BF86
:105760000038024010300004003000248C0000207B
:105770000024F4009400002080B582B000AF78606F
:105780007B68002B01D1012341E07B6893F83D3019
:10579000DBB2002B06D17B68002283F83C207868BE
:1057A000FCF74AFA7B68022283F83D207B681A687E
:1057B0007B6804331946104600F0FEF97B6801222D
:1057C00083F846207B68012283F83E207B68012213
:1057D00083F83F207B68012283F840207B68012208
:1057E00083F841207B68012283F842207B680122F4
:1057F00083F843207B68012283F844207B680122E0
:1058000083F845207B68012283F83D200023184659
:105810000837BD4680BD000080B485B000AF786019
:105820007B6893F83D30DBB2012B01D001234EE0C1
:105830007B68022283F83D207B681B68DA687B68FE
:105840001B6842F00102DA607B681B68234A9342BE
:1058500022D07B681B68B3F1804F1DD07B681B682A
:105860001F4A934218D07B681B681E4A934213D08C
:105870007B681B681C4A93420ED07B681B681B4ADE
:10588000934209D07B681B68194A934204D07B6815
:105890001B68184A934211D17B681B689B6803F010
:1058A0000703FB60FB68062B10D07B681B681A6837
:1058B0007B681B6842F001021A6007E07B681B6886
:1058C0001A687B681B6842F001021A6000231846C0
:1058D0001437BD465DF8047B704700BF00000140EF
:1058E0000004004000080040000C0040000401409B
:1058F000004001400018004080B483B000AF7860E1
:105900007B681B68DA687B681B6822F00102DA603A
:105910007B681B681A6A41F211131340002B0FD1E8
:105920007B681B681A6A40F244431340002B07D17E
:105930007B681B681A687B681B6822F001021A608A
:105940007B68012283F83D20002318460C37BD46B2
:105950005DF8047B704780B582B000AF78607B68EB
:105960001B681B6903F00203022B22D17B681B68B2
:10597000DB6803F00203022B1BD17B681B686FF00E
:1059800002021A617B6801221A777B681B689B6997
:1059900003F00303002B03D0786800F0EEF805E075
:1059A000786800F0E0F8786800F0F1F87B68002291
:1059B0001A777B681B681B6903F00403042B22D150
:1059C0007B681B68DB6803F00403042B1BD17B6836
:1059D0001B686FF004021A617B6802221A777B68E9
:1059E0001B689B6903F44073002B03D0786800F0B8
:1059F000C4F805E0786800F0B6F8786800F0C7F8F9
:105A00007B6800221A777B681B681B6903F0080318
:105A1000082B22D17B681B68DB6803F00803082B86
:105A20001BD17B681B686FF008021A617B68042237
:105A30001A777B681B68DB6903F00303002B03D034
:105A4000786800F09AF805E0786800F08CF87868DB
:105A500000F09DF87B6800221A777B681B681B6941
:105A600003F01003102B22D17B681B68DB6803F066
:105A70001003102B1BD17B681B686FF010021A619A
:105A80007B6808221A777B681B68DB6903F4407324
:105A9000002B03D0786800F070F805E0786800F01B
:105AA00062F8786800F073F87B6800221A777B68E8
:105AB0001B681B6903F00103012B0ED17B681B6877
:105AC000DB6803F00103012B07D17B681B686FF0D3
:105AD00001021A617868FCF7D7F87B681B681B69BC
