:020000040800F2
:1000000000000320812200085D1800086318000822
:10001000691800086F180008751800080000000033
:100020000000000000000000000000007B18000835
:10003000891800080000000097180008A51800089B
:10004000D1220008D1220008D1220008D1220008C4
:10005000D1220008D1220008D1220008D1220008B4
:10006000D1220008D1220008D1220008D1220008A4
:10007000D1220008D1220008D1220008D122000894
:10008000D1220008D1220008D1220008D122000884
:10009000D1220008D1220008D1220008D122000874
:1000A000D1220008D1220008D1220008D122000864
:1000B000D1220008D1220008D1220008D122000854
:1000C000D1220008D1220008D1220008D122000844
:1000D000D1220008D1220008D1220008D122000834
:1000E000D1220008D1220008D1220008D122000824
:1000F000D1220008D1220008D1220008D122000814
:10010000D1220008D1220008D1220008D122000803
:10011000D1220008D1220008B1180008D12200081D
:10012000D1220008D1220008D1220008D1220008E3
:10013000D1220008D1220008D1220008D1220008D3
:10014000D1220008D1220008D1220008D1220008C3
:10015000D1220008D1220008D1220008C5180008C9
:10016000D1220008D1220008D1220008D1220008A3
:10017000D1220008D1220008D1220008000000008E
:10018000D1220008D1220008D1220008D122000883
:10019000D1220008D1220008D1220008D122000873
:0C01A0000000000000000000D122000858
:1001B00010B5054C237833B9044B13B10448AFF3A1
:1001C00000800123237010BD940000200000000077
:1001D000085F000808B5034B1BB103490348AFF3A0
:1001E000008008BD0000000098000020085F0008A3
:1001F00010F8012B11F8013B012A28BF9A42F7D0D1
:10020000D01A7047034613F8012B002AFBD1181AA5
:1002100001387047000000000000000000000000EE
:1002200001F0FF01102A2BDB10F0070F08D010F8A7
:10023000013B013A8B422DD010F0070F42B3F6D1AB
:10024000F0B441EA012141EA014122F007047FF0C4
:1002500000070023F0E80256083C85EA010586EA1B
:10026000010685FA47F5A3FA87F586FA47F6A5FA57
:1002700087F68EB9EED1F0BC01F0FF0102F0070263
:1002800032B110F8013B013A83EA010313B1F8D10E
:100290000020704701387047002D06BF35460338EF
:1002A000073815F0010F07D1013015F4807F02BF28
:1002B000013015F4C03F0130F0BC0138704700BF79
:1002C00053B94AB9002908BF00281CBF4FF0FF31BD
:1002D0004FF0FF3000F074B9ADF1080C6DE904CEB9
:1002E00000F006F8DDF804E0DDE9022304B0704711
:1002F0002DE9F047089D04468E46002B4DD18A42D9
:10030000944669D9B2FA82F252B101FA02F3C2F10B
:10031000200120FA01F10CFA02FC41EA030E94409C
:100320004FEA1C48210CBEFBF8F61FFA8CF708FBBD
:1003300016E341EA034306FB07F199420AD91CEB95
:10034000030306F1FF3080F01F81994240F21C81C7
:10035000023E63445B1AA4B2B3FBF8F008FB10330F
:1003600044EA034400FB07F7A7420AD91CEB040444
:1003700000F1FF3380F00A81A74240F20781644414
:10038000023840EA0640E41B00261DB1D440002399
:10039000C5E900433146BDE8F0878B4209D9002DFD
:1003A00000F0EF800026C5E9000130463146BDE887
:1003B000F087B3FA83F6002E4AD18B4202D38242F1
:1003C00000F2F980841A61EB030301209E46002DA0
:1003D000E0D0C5E9004EDDE702B9FFDEB2FA82F2F5
:1003E000002A40F09280A1EB0C014FEA1C471FFA53
:1003F0008CFE0126200CB1FBF7F307FB131140EA3A
:1004000001410EFB03F0884208D91CEB010103F106
:10041000FF3802D2884200F2CB804346091AA4B2C8
:10042000B1FBF7F007FB101144EA01440EFB00FE9C
:10043000A64508D91CEB040400F1FF3102D2A64501
:1004400000F2BB800846A4EB0E0440EA03409CE7A0
:10045000C6F12007B34022FA07FC4CEA030C20FA4D
:1004600007F401FA06F31C43F9404FEA1C4900FA6D
:1004700006F3B1FBF9F8200C1FFA8CFE09FB1811EA
:1004800040EA014108FB0EF0884202FA06F20BD95D
:100490001CEB010108F1FF3A80F08880884240F2AD
:1004A0008580A8F102086144091AA4B2B1FBF9F0F1
:1004B00009FB101144EA014100FB0EFE8E4508D9EC
:1004C0001CEB010100F1FF346CD28E456AD9023871
:1004D000614440EA0840A0FB0294A1EB0E01A14256
:1004E000C846A64656D353D05DB1B3EB080261EBC4
:1004F0000E0101FA07F722FA06F3F1401F43C5E99E
:10050000007100263146BDE8F087C2F12003D840D3
:100510000CFA02FC21FA03F3914001434FEA1C4715
:100520001FFA8CFEB3FBF7F007FB10360B0C43EA07
:10053000064300FB0EF69E4204FA02F408D91CEBB7
:10054000030300F1FF382FD29E422DD902386344B5
:100550009B1B89B2B3FBF7F607FB163341EA034155
:1005600006FB0EF38B4208D91CEB010106F1FF38A4
:1005700016D28B4214D9023E6144C91A46EA00469B
:1005800038E72E46284605E70646E3E61846F8E62D
:100590004B45A9D2B9EB020864EB0C0E0138A3E776
:1005A0004646EAE7204694E74046D1E7D0467BE757
:1005B000023B614432E7304609E76444023842E7CF
:1005C000704700BF98B500AF2B4B1B68184600F072
:1005D00025FC03464FF6FF7293420BD1274B1B6855
:1005E000184600F01BFC03464FF6FF72934201D100
:1005F000234B3FE0204B1B68184600F00FFC0346DE
:100600004FF6FF7293420CD11C4B1B68184600F04A
:1006100005FC03461A461B491B4805F073F81A4BA4
:1006200028E0164B1B68184600F0F8FB03464FF60F
:10063000FF7293420CD1104B1B68184600F0EEFB82
:1006400003461A461149104805F05CF80E4B11E0BC
:10065000094B1B68184600F0E1FB0446074B1B687A
:10066000184600F0DBFB034622460949064805F020
:1006700049F8054B184698BD0C0000201C000020CE
:10068000205F00083C5F0008B0000020645F0008A5
:100690008C5F000898B500AF114B1B68184600F03E
:1006A000BDFB04460F4B1B68184600F0B7FB034622
:1006B0009C4201D20C4B10E00A4B1B68184600F01C
:1006C000ADFB0446064B1B68184600F0A7FB03462B
:1006D0009C4201D2054B00E00023184698BD00BFA4
:1006E000000000201000002000C00008004010089A
:1006F00090B583B000AFFFF7CDFF78607B68214AEB
:1007000093421DD10C2000F095FB1F4B1C681F4B22
:100710001B68184600F082FB0346013B1946204641
:1007200000F065FB1A4B1C681A4B1B68184600F05A
:1007300075FB034601331946204600F058FB1CE0C8
:10074000022000F077FB114B1C680F4B1B6818460A
:1007500000F064FB0346013B1946204600F047FBCE
:100760000C4B1C680A4B1B68184600F057FB0346ED
:1007700001331946204600F03AFB00BF0C37BD4656
:1007800090BD00BF00C00008100000200000002045
:100790001C0000200C00002080B582B000AFFFF7E5
:1007A00079FF78607B68094A934203D1022000F008
:1007B00041FB06E07B68064A934202D10C2000F020
:1007C00039FB00BF0837BD4680BD00BF00C0000830
:1007D0000040100880B500AF154B1B68184600F0AC
:1007E0001DFB03464FF6FF7293420AD1114B1B6863
:1007F000184600F013FB0346002B02D1022000F044
:1008000019FB0D4B1B68184600F008FB03464FF61A
:10081000FF7293420AD1094B1B68184600F0FEFA9A
:100820000346002B02D10C2000F004FB00BF80BD6A
:100830000800002004000020180000201400002000
:1008400080B586B000AFFFF725FF78617B69304A3D
:10085000934206D12F4B1B680021184600F0C7FABF
:1008600009E07B692C4A93424ED12C4B1B68002136
:10087000184600F0BCFA2A4803F0ECFA01F054FAEA
:10088000284B1B6B274A23F004031363254B1B6B78
:10089000244A23F008031363224B1B6B214A23F0E5
:1008A000020313631F4B1B6B1E4A23F001031363E8
:1008B00003F018F901F030FD1B4B00221A601A4BAF
:1008C00000225A60184B00229A6001233B603B686B
:1008D00083F3108800BF72B600BF144A7B6993602F
:1008E0007B691B683B613B697B607B6883F308889D
:1008F00000BF7B6904331B68FB60FB68BB6062B6AA
:1009000000BFBB68984700E000BF1837BD4680BDF8
:1009100000C000080400002000401008140000205F
:10092000100200200038024010E000E000ED00E07E
:1009300080B500AF032000F07DFA042000F07AFAC1
:10094000052000F077FA062000F074FA072000F086
:1009500071FA082000F06EFA092000F06BFA0A2004
:1009600000F068FA0B2000F065FA00BF80BD80B58A
:1009700000AF0D2000F05EFA0E2000F05BFA0F20B1
:1009800000F058FA102000F055FA112000F052FA49
:10099000122000F04FFA132000F04CFA142000F05F
:1009A00049FA152000F046FA162000F043FA172005
:1009B00000F040FA00BF80BD80B582B000AFFFF705
:1009C00069FE78607B68064A934202D1FFF7CFFF49
:1009D00001E0FFF7ADFF00BF0837BD4680BD00BF97
:1009E0000040100880B584B000AF0346FB800C20A7
:1009F00004F088FD0346FB60FB88184604F082FD86
:100A000003461A46FB689A60FB68FA88DA80F86841
:100A100000F086F8FB6818461037BD4680BD80B5EB
:100A200082B000AF78600B46FB707B689A887B6869
:100A3000DB889A421FD200F0E7F87B689B687A68EF
:100A400012881344FA781A707B681B8801337A681D
:100A5000D28893FBF2F101FB02F29B1A9AB27B68F7
:100A60001A807B689B8801339AB27B689A8000F079
:100A7000DFF8012300E0002318460837BD4680BD9B
:100A800080B586B000AFF860B9601346FB800023E4
:100A9000FB820FE0FB8ABA6813441B781946F8689A
:100AA000FFF7BDFF0346002B01D1FB8A07E0FB8A5D
:100AB0000133FB82FA8AFB889A42EBD3FB8A184601
:100AC0001837BD4680BD80B584B000AF78607B68C4
:100AD0009B88002B01D100231EE000F095F87B6875
:100AE0009B88013B9AB27B689A807B689B687A6896
:100AF000528813441B78FB737B685B8801337A68E8
:100B0000D28893FBF2F101FB02F29B1A9AB27B6846
:100B10005A8000F08DF8FB7B18461037BD4680BD2B
:100B200080B582B000AF786000F06EF87B6800227C
:100B30009A807B6800221A807B6800225A8000F02D
:100B400077F800BF0837BD4680BD80B483B000AFE2
:100B500078607B689B88002B14BF01230023DBB2E5
:100B600018460C37BD465DF8047B704790B587B0DA
:100B700000AFF860B9601346FB80F868FFF7E5FF47
:100B80000346002B01D100231DE0F86800F01FF898
:100B90000346FB82FA8AFB889A4201D9FB88FB82D2
:100BA0000023BB820AE0BB8ABA68D418F868FFF752
:100BB0008AFF03462370BB8A0133BB82BA8AFB8A51
:100BC0009A42F0D3FB8A18461C37BD4690BD80B4CC
:100BD00083B000AF78607B689B8818460C37BD46B1
:100BE0005DF8047B704780B483B000AF78607B68A9
:100BF000DA887B689B88D31A9BB218460C37BD46AF
:100C00005DF8047B7047000080B483B000AFEFF361
:100C100010837B607B68054A136072B600BF00BF1B
:100C20000C37BD465DF8047B704700BF30010020E3
:100C300080B483B000AF064B1B687B607B6883F396
:100C4000108800BF00BF0C37BD465DF8047B7047BD
:100C50003001002080B588B000AFF860B96013465D
:100C6000FB71F868FFF7CEFAF861FB6901331846AB
:100C700004F048FC0346BB61F968B86904F062FD02
:100C80000C2004F03FFC03467B617B69BA691A6063
:100C90007B69BA685A607B69FA791A727B6918466F
:100CA0002037BD4680BD000080B584B000AF7860BD
:100CB00039607B68002B03D07B685B68002B01D117
:100CC000002337E07B681B7A022B2CD0022B30DC10
:100CD000002B02D0012B13D02BE007F10C03194697
:100CE000386800F031F80346002B01D1134B21E0A6
:100CF0007B685B6807F10C0210469847034619E0D1
:100D000007F10B031946386800F03AF80346002B48
:100D100001D10B4B0EE07B685B6807F10B021046BC
:100D20009847034606E07B685B68002098470346C7
:100D300000E0044B18461037BD4680BDB45F000884
:100D4000D45F0008F85F000880B584B000AF786019
:100D500039600023FB6007F10C030A22194678680A
:100D600004F06AFD02463B681A60FB687A689A42A2
:100D700001D1002300E0012318461037BD4680BD95
:100D800080B582B000AF786039600E497868FFF7AF
:100D90002FFA0346002B04D13B6800221A7001236E
:100DA0000CE009497868FFF723FA0346002B04D1C9
:100DB0003B6801221A70012300E00023184608371F
:100DC000BD4680BD106000081460000880B483B088
:100DD00000AF78607B68002B01D1002301E07B68C5
:100DE0001B6818460C37BD465DF8047B7047B0B5EC
:100DF00082B000AF7860396001F06CFD3B68002282
:100E00001C46154622462B467968022001F00EFD4D
:100E100001F082FD00BF0837BD46B0BD80B483B08D
:100E200000AF78607B681B6818460C37BD465DF8DC
:100E3000047B704780B584B000AF786001F04AFD54
:100E40000B4B00221A600A4A7B689360084B012210
:100E5000DA60074B02221A6107F10C0319460448B5
:100E600001F0AAFE01F058FD00BF1037BD4680BD5D
:100E70003401002080B485B000AF0023FB60174B25
:100E80001B6B164A43F004031363144B1B6B03F0F4
:100E90000403FB60FB680023BB60104B1B6B0F4A15
:100EA00043F0010313630D4B1B6B03F00103BB60A5
:100EB000BB6800237B60094B1B6B084A43F00203AD
:100EC0001363064B1B6B03F002037B607B6800BF60
:100ED0001437BD465DF8047B704700BF0038024000
:100EE00080B485B000AF78600B46FB700023FB73C5
:100EF00023E0FB7B7A6813441B78392B10D8FB7BEB
:100F00007A6813441B782F2B0AD9FB7B7A68134429
:100F10001A78FB7B79680B44303AD2B21A7009E038
:100F2000FB7B7A6813441A78FB7B79680B44373A69
:100F3000D2B21A70FB7B0133FB73FA7BFB789A42C7
:100F4000D7D300BF00BF1437BD465DF8047B7047A0
:100F500080B487B000AFF860B9607A607B8000230E
:100F6000FB8214E07B681B881A46B7F916301344DD
:100F70001A46BB681A44B7F91630F9680B44127860
:100F80001A70B7F916309BB201339BB2FB82B7F9E6
:100F900016207B889A42E5DB7B681A887B8813449D
:100FA0009AB27B681A8000BF1C37BD465DF8047B8F
:100FB0007047000080B584B000AF78600B467B803E
:100FC0000023BB817BE1BB891A467B6813441B78F5
:100FD0003A2B40F07081BB8901339BB2BB8107F192
:100FE0000C02082379688B48FFF7B2FF0821894873
:100FF000FFF776FF874B5B781A46864B1B781B0101
:101000001344DBB25B00DAB2834B1A70814B5B791D
:101010009AB2804BDB7899B27E4B9B789BB21B01D6
:101020009BB20B449BB21B0199B27A4B1B799BB2CA
:101030000B449BB21B019BB213449AB2774B1A80AC
:10104000744BDA79734B9B791B01DBB21344DAB230
:10105000734B1A70704B1B785B08DAB26F4B1B88AE
:10106000DBB21344DAB26D4B1B881B0A9BB2DBB2B6
:101070001344DAB26A4B1B781344DAB2694B1A7024
:10108000674B1B78002B40F098806BE007F10C0257
:10109000082379685F48FFF75BFF08215D48FFF789
:1010A0001FFF0023FB7324E0FB7B5A4AD25CFB7BCF
:1010B0001201D1B2574AD154FB7B564AD15CFB7B1B
:1010C0000133544AD25CFB7B0A43D1B2514AD1541A
:1010D000FB7B504AD35C1A46FB7B9B0002FA03F36E
:1010E0001A46514B1B6813434F4A1360FB7B023374
:1010F000FB73FB7B072BD7D9484B1B881A464B4BFE
:101100001B681344484A126811461846FFF76FFEE1
:10111000454B1B68DAB2444B1B681B0ADBB2134415
:10112000DAB2414B1B681B0CDBB21344DAB23E4B04
:101130001B681B0EDBB21344DAB23A4B1B78134424
:10114000DAB2384B1A70344B1B78083BDAB2324BA8
:101150001A70324B1B8804339AB2304B1A80324BD0
:1011600000221A602C4B1B78002B8FD12D4B1B7843
:101170005B42DAB22B4B1A7007F10C02022379683A
:101180002448FFF7E5FE02212248FFF7A9FE214B84
:101190005A78204B1B781B01DBB21344DAB2244B84
:1011A0001A70204B1A78224B1B789A4201D00023E8
:1011B0008DE01C4B00221A707DE0194B1B78042B2C
:1011C00075D107F10C02042379681248FFF7C0FEBD
:1011D00004211048FFF784FE0E4B1B781A070D4BB5
:1011E0005B781B061A430B4B9B781B051A43094B74
:1011F000DB781B0413431A460C4B1A60FFF74AFABC
:1012000003461B0C1B04094A1268934212D00223A6
:101210005DE000BF5C0100204C0100205001002077
:101220004D010020580100205401002048010020F9
:101230004E010020284B1A78274B9B781344DBB2D1
:101240001B01DAB2244B5B781344DAB2224BDB7811
:101250001344DAB2214B1B781344DAB21F4B1A70D5
:101260001E4B1B785B42DAB21C4B1A7007F10C0262
:10127000022379681848FFF76BFE02211648FFF732
:101280002FFE154B5A78144B1B781B01DBB213440D
:10129000DAB2134B1A70114B1A78114B1B789A4221
:1012A00001D0002313E00D4B00221A7003E00D4B18
:1012B0001B78012B09D0BB8901339BB2BB81BB8951
:1012C0007A889A423FF67FAE00E000BF01231846BD
:1012D0001037BD4680BD00BF5C01002058010020D2
:1012E0004E0100204D01002080B500AF094B0A4A95
:1012F0001A60084B06225A60064B4FF420729A601F
:10130000044801F045FF0346002B01D000F08FF99F
:1013100000BF80BD640100200030004080B582B075
:1013200000AF022228492948FFF794FC0346284AC7
:101330001360022227492848FFF78CFC0346244A01
:101340005360022225492648FFF784FC0346204AC1
:101350009360022223492448FFF77CFC03461C4A81
:10136000D36000F0B7FF00F097FC00F049F8FFF7FA
:1013700081FD00F0C3FB00F0F7FAFFF7B5FF00F0C6
:10138000C1FC0421124800F057F9184801F042FF4F
:1013900000F076FC0346002B01D000F0EBF8144B74
:1013A0001B78002BF1D0134B1B781A46124B0021EF
:1013B0009954114800F074F97860104800F026F94B
:1013C000786800F007F9E0E7D91400081860000811
:1013D000F4010020151500082060000861150008C0
:1013E0002860000801150008306000086401002032
:1013F000F1010020F0010020700100203860000899
:1014000080B594B000AF07F12003302200211846C8
:1014100004F080F807F10C0300221A605A609A6009
:10142000DA601A610023BB60294B1B6C284A43F029
:1014300080531364264B1B6C03F08053BB60BB6866
:1014400000237B60234B1B6823F44043214A43F471
:10145000804313601F4B1B6803F440437B607B6831
:101460000A233B620123FB6210233B6301237B635E
:101470000223BB630023FB6308233B6440237B649C
:101480000223BB640423FB6407F12003184601F028
:10149000D1FE0346002B01D000F0C9F80F23FB60FA
:1014A00002233B6190237B610023BB610023FB612E
:1014B00007F10C030021184602F034F90346002B13
:1014C00001D000F0B4F800BF5037BD4680BD00BF6A
:1014D000003802400070004080B500AFFFF77AF995
:1014E000FFF7D8F80346002B01D1034B02E0FFF7CA
:1014F000A7F9024B184680BD3C6000085C600008FC
:1015000080B400AF024B1846BD465DF8047B7047BF
:101510006460000880B582B000AFFFF75BF9FFF7A9
:10152000E7F8FFF749FA00F085FC0346FB71FB7909
:10153000012B03D1FFF7D0FF034609E0FB79022B13
:1015400003D1FFF729F9044B02E0FFF725F9034B1C
:1015500018460837BD4680BD106100083C61000890
:1015600080B500AFFFF736F9FFF72CF803461846B1
:1015700080BD000080B582B000AF134B1B781A46C7
:10158000124B13440121184600F09CFB0346002B2C
:1015900016D00D4B1B781A460C4B9B5CFB710A4B0B
:1015A0001B780133DAB2084B1A70FB1D0121184673
:1015B00000F01EFBFB790D2B02D1054B01221A70A6
:1015C00000BF0837BD4680BDF0010020700100203B
:1015D000F101002080B582B000AF78607868FEF736
:1015E00011FE03469BB21946786800F001FB054BDB
:1015F00000221A70044B00221A7000BF0837BD4643
:1016000080BD00BFF0010020F101002080B582B054
:1016100000AF78607868FEF7F5FD03469BB2194687
:10162000786800F0E5FA00BF0837BD4680BD80B499
:1016300000AF72B600BFFEE780B584B000AF78603F
:101640000B467B80144B1B68002B21D17B889B00B1
:10165000184603F057FF03461A460F4B1A60002343
:10166000FB810DE0FB899B007A681A440A4B1968DC
:10167000FB899B000B4412681A60FB890133FB81D4
:10168000FA897B889A42EDD3044A7B88138000E074
:1016900000BF1037BD4680BD0402002008020020B4
:1016A00080B588B000AF7860786800F066F8786838
:1016B00000F08AF878610023FB617B69B3F1FF3F9A
:1016C00009D07B697A68134400221A707B69013360
:1016D0007A681344FB617B683B6100237B8320E0D5
:1016E000154B1A687B8B9B0013441B68FB60124BE5
:1016F0001A687B8B9B0013441B681846FFF766FB38
:10170000034639691846FEF773FD0346002B05D1E1
:10171000F969F868FFF7C8FA034608E07B8B0133E4
:101720007B83064B1B887A8B9A42D9D3044B18468D
:101730002037BD4680BD00BF040200200802002003
:101740005461000880B483B000AF0346FB71FB799D
:101750000A2B08D0FB79202B05D0FB79092B02D06E
:10176000FB790D2B01D1012300E00023DBB21846E9
:101770000C37BD465DF8047B704780B584B000AF80
:1017800078607868FEF73EFD0346BB60BB68013BAE
:10179000FB6011E0FB687A6813441B781846FFF77A
:1017A000D1FF0346002B0BD0FB687A68134400225C
:1017B0001A70FB68013BFB60FB68002BEADA00E073
:1017C00000BF1037BD4680BD80B584B000AF7860E3
:1017D0007868FEF717FD0346BB60BB68013BFB6002
:1017E0000AE0FB687A6813441B78202B01D1FB6860
:1017F00007E0FB68013BFB60FB68002BF1DA4FF070
:10180000FF3318461037BD4680BD000080B483B05A
:1018100000AF00237B60104B5B6C0F4A43F48043A6
:1018200053640D4B5B6C03F480437B607B68002347
:101830003B60094B1B6C084A43F080531364064B12
:101840001B6C03F080533B603B6800BF0C37BD4608
:101850005DF8047B704700BF0038024080B400AFE1
:10186000FEE780B400AFFEE780B400AFFEE780B4CF
:1018700000AFFEE780B400AFFEE780B400AF00BF6A
:10188000BD465DF8047B704780B400AF00BFBD4625
:101890005DF8047B704780B400AF00BFBD465DF8C3
:1018A000047B704780B500AF00F09AFD00BF80BD9B
:1018B00080B500AF024802F0FCFA00BF80BD00BF57
:1018C0001002002080B500AF024802F001FF00BF07
:1018D00080BD00BF6802002080B586B000AF786090
:1018E000144A154BD31A7B617B693B61134B1B6810
:1018F000002B02D1114B124A1A60104B1A687B68F8
:1019000013443A699A4207D203F0D2FD03460C22EF
:101910001A604FF0FF3309E0084B1B68FB60074B70
:101920001A687B681344054A1360FB681846183729
:10193000BD4680BD00000320000400000C02002012
:101940006804002080B400AF064BD3F88830054A05
:1019500043F47003C2F8883000BFBD465DF8047BD5
:10196000704700BF00ED00E080B582B000AF3B469D
:1019700000221A605A60154B154A1A60134B43F641
:101980007F625A60114B00229A60104B41F28832FC
:10199000DA600E4B00229A610C4802F09BF9034674
:1019A000002B01D0FFF743FE00233B6000237B6048
:1019B0003B461946054802F04DFC0346002B01D07A
:1019C000FFF735FE00BF0837BD4680BD100200207E
:1019D0000010004080B584B000AF78607B681B6861
:1019E0000E4A934215D10023FB600D4B1B6C0C4A31
:1019F00043F0100313640A4B1B6C03F01003FB60ED
:101A0000FB6800220021362000F02DFE362000F079
:101A100046FE00BF1037BD4680BD00BF001000402D
:101A20000038024080B582B000AF78607B681B68E8
:101A3000044A934202D1432000F0FEF800BF083769
:101A4000BD4680BD0010004080B582B000AF0346A7
:101A5000FB71074AFB791370472000F020FE01223A
:101A60000349044802F0D3FC00BF0837BD4680BDDF
:101A7000580200206802002080B582B000AF786074
:101A80007B68044A934201D100F0B6F900BF0837E1
:101A9000BD4680BD6802002080B500AF472000F041
:101AA000FEFD01220249034802F0F6FC00BF80BDA2
:101AB000590200206802002080B582B000AF786033
:101AC0007B68064A934204D1054B1B78184600F008
:101AD00065F900BF0837BD4680BD00BF6802002021
:101AE0005902002080B500AF034802F005FD4720F1
:101AF00000F0E3FD00BF80BD6802002080B500AFAC
:101B0000114B124A1A60104B4FF4E1325A600E4BDF
:101B100000229A600C4B0022DA600B4B00221A6103
:101B2000094B0C225A61084B00229A61064B002295
:101B3000DA61054802F01EFC0346002B01D0FFF7D6
:101B400076FD00BF80BD00BF680200200014014088
:101B500080B58AB000AF786007F1140300221A60E4
:101B60005A609A60DA601A617B681B681D4A93426A
:101B700033D100233B611C4B5B6C1B4A43F02003B9
:101B80005364194B5B6C03F020033B613B690023FA
:101B9000FB60154B1B6B144A43F004031363124B99
:101BA0001B6B03F00403FB60FB68C0237B61022313
:101BB000BB610023FB6103233B6208237B6207F1C7
:101BC00014031946094801F037F900220021472083
:101BD00000F049FD472000F062FD00BF2837BD46F8
:101BE00080BD00BF001401400038024000080240E0
:101BF00080B584B000AF78600B467B807B68002B9B
:101C000001D1002310E00A4B1B687A8879681846D6
:101C1000FEF736FF0346FB81064B1B78DBB2002B39
:101C200001D000F093F8FB8918461037BD4680BDFF
:101C30005C0200206402002080B584B000AF03463F
:101C4000FB71FB79002B01D1002310E00A4B1B68CC
:101C5000FA7911461846FEF7E2FE0346FB73074B7E
:101C60001B78DBB2002B01D000F070F8FB7B18462C
:101C70001037BD4680BD00BF5C020020640200201A
:101C800080B500AF034B1B681846FEF75EFF0346A6
:101C9000184680BD6002002080B500AF4020FEF7EE
:101CA000A1FE0346054A13604FF48070FEF79AFECA
:101CB0000346034A136000BF80BD00BF5C020020E2
:101CC0006002002080B584B000AF78600B467B8056
:101CD0000A4B1B687A8879681846FEF747FF034667
:101CE000FB81074B1B78DBB2002B01D000F028F8FA
:101CF000FB8918461037BD4680BD00BF600200203A
:101D00006402002080B500AF054B01221A70054B1C
:101D100001221A7000F01AF800F012F800BF80BD1E
:101D2000640200202400002080B500AF034B002295
:101D30001A70FFF7D7FE00BF80BD00BF640200200D
:101D400080B500AFFFF7A8FE00BF80BD80B582B0B0
:101D500000AF104B1B78DBB2002B16D00E4B1B686C
:101D60001846FEF7F2FE0346002B0FD0094B002267
:101D70001A70094B1B681846FEF7A5FE0346FB7157
:101D8000FB791846FFF760FE00E000BF0837BD464C
:101D900080BD00BF240000205C02002080B582B01E
:101DA00000AF0346FB71114B1B681846FEF71BFF83
:101DB0000346002B06D00D4B1B68FA7911461846D6
:101DC000FEF72DFE00F02AF80346002B02D1084B47
:101DD00001221A70074B1B78DBB2002B01D0FFF7F2
:101DE000AFFF00BF0837BD4680BD00BF60020020C6
:101DF000650200206402002080B500AF054B01227F
:101E00001A70054B1B78DBB2002B01D0FFF79EFF49
:101E100000BF80BD240000206402002080B400AF19
:101E2000034B1B781846BD465DF8047B704700BF26
:101E30006502002080B582B000AF00237B710023D3
:101E40003B710023FB713E4B01221A703D4801F0AB
:101E500091FF3D4B01221A705DE03C4B4AF6AA22ED
:101E60001A6001213A48FFF72DFF03461A46394B05
:101E70001A80384B1B88012B00D04CE0324B1B786A
:101E8000002B05D02F4801F0E5FF2F4B00221A70E0
:101E9000642000F0C5FA2E4B1B78FB71FF23BB7149
:101EA000FB79182B2CD0182B2DDC012B02D0042B06
:101EB00020D028E0FB79184600F088F80346BB7173
:101EC000BB79002B03D10620FFF7B6FE23E0BB79D8
:101ED000782B07D13B1D0021184600F003F9782329
:101EE0007B7118E03B1D0321184600F0FBF8034608
:101EF0007B7110E00620FFF79FFEAA237B710AE0AA
:101F0000FF237B7107E03B1D0321184600F0EAF830
:101F100003467B7100BF7B79DBB2002B9DD07B79C0
:101F2000DBB2AA2B01D1012306E07B79DBB2782B4F
:101F300001D1022300E0002318460837BD4680BDCA
:101F40002500002010020020320400200030004054
:101F5000AC020020AC03002080B485B000AF7860F4
:101F60000B467B800023FB8126E07B88013B7B8046
:101F70007B685A1C7A601B781B021AB2B7F90E30C4
:101F800053401BB2FB8100237B7312E0B7F90E3084
:101F9000002B08DAFB895B009BB283F4815383F04A
:101FA0000103FB8102E0FB895B00FB817B7B01334A
:101FB0007B737B7B072BE9D97B88002BD5D1FB89F1
:101FC00018461437BD465DF8047B704780B5A6B04F
:101FD00000AF0346FB710023A7F8963002213E486C
:101FE000FFF770FE0346A7F89630B7F89630022B3D
:101FF00001D004236CE0384B1A78384B1B789A4296
:1020000001D0022364E0344B1B781A46324B5B78D4
:102010001344FF2B01D002235AE007F11003802163
:102020001846FFF74FFE0346A7F89630B7F89630EC
:10203000802B01D004234BE007F10C03022118464A
:10204000FFF740FE0346A7F89630B7F89630022B0C
:1020500001D004233CE03B7B1B021AB27B7B1BB20A
:1020600013431BB2A7F8943007F1100380211846E0
:10207000FFF772FF0346A7F89230B7F89420B7F83D
:1020800092309A4201D0012322E007F11003184652
:1020900000F05EF800F0A6F8114B1B8819460E48B8
:1020A000FEF788FF034687F8913097F89130002BB0
:1020B00001D108230CE097F89130022B01D178234D
:1020C00006E0064B1B780133DAB2044B1A7000238A
:1020D00018469837BD4680BDAC0200202500002080
:1020E000AC03002080B584B000AF78600B46FB7075
:1020F0000023FB737B681B780133DAB27B681A70AC
:102100007B681B78FA789A4208D81820FFF794FD6C
:102110001820FFF791FDFF23FB7304E01520FFF764
:102120008BFD0023FB73074B1B78012B05D1064861
:1021300001F020FE054B01221A70FB7B1846103778
:10214000BD4680BD25000020100200203204002082
:1021500080B485B000AF78601E4B1B88002B11D077
:102160000023FB7308E0FA7BFB7B1B49895C1B4A5D
:10217000D154FB7B0133FB73FB7B9AB2154B1B885D
:102180009A42F0D3134B1A88154B1A80114B002238
:102190001A800023FB730DE0FB7B7A681A44104B16
:1021A0001B881946FB7B0B4411780C4AD154FB7BEE
:1021B0000133FB7397F90F30002BEDDA084B1B88C6
:1021C00080339AB2064B1A8000BF1437BD465DF8C3
:1021D000047B704730040020B0030020AC020020D4
:1021E000AC03002080B483B000AF214B1B88DBB26E
:1021F000013BFB71FB791F4AD35C0A2B11D1FB79A0
:10220000BB7100BF1A4B1A88BB799BB2D31A9BB221
:10221000013B9AB2184B1A80174B1B88002B04D134
:1022200020E0FB79013BFB71E4E7114B1A88124B6C
:102230001B88D31A9AB20E4B1A800023FB710BE055
:10224000BB795A1CFB791A44FB790A49895C0B4A11
:10225000D154FB790133FB71FB799AB2064B1B8891
:102260009A42EDD30C37BD465DF8047B704700BF42
:10227000AC030020AC02002030040020B00300209A
:10228000DFF834D00D480E490E4A002302E0D4583E
:10229000C4500433C4188C42F9D30B4A0B4C0023AE
:1022A00001E013600432A242FBD3FFF74BFB03F0C3
:1022B00005F9FFF733F87047000003200000002005
:1022C00094000020E46200089400002068040020CC
:1022D000FEE7000080B500AF0E4B1B680D4A43F4CB
:1022E000007313600B4B1B680A4A43F4806313604E
:1022F000084B1B68074A43F480731360032000F007
:10230000A7F90F2000F03CF8FFF780FA00231846E9
:1023100080BD00BF003C024080B500AF134B4FF0C2
:10232000FF321A62114B00221A62104B4FF0FF323B
:102330005A620E4B00225A620C4B4FF0FF321A6168
:102340000A4B00221A61094B4FF0FF325A61074BCA
:1023500000225A61054B4FF0FF329A61034B002275
:102360009A6100F005F80023184680BD003802404D
:1023700080B400AF00BFBD465DF8047B704700002D
:1023800080B582B000AF7860124B1A68124B1B7890
:1023900019464FF47A73B3FBF1F3B2FBF3F318462B
:1023A00000F099F90346002B01D001230EE07B6871
:1023B0000F2B0AD8002279684FF0FF3000F053F954
:1023C000064A7B681360002300E0012318460837A3
:1023D000BD4680BD200000202C00002028000020E9
:1023E00080B400AF064B1B781A46064B1B6813449B
:1023F000044A136000BFBD465DF8047B704700BF10
:102400002C0000203404002080B400AF034B1B6874
:102410001846BD465DF8047B704700BF34040020B9
:1024200080B584B000AF7860FFF7EEFFB8607B68DE
:10243000FB60FB68B3F1FF3F05D00A4B1B781A46DF
:10244000FB681344FB6000BFFFF7DEFF0246BB687A
:10245000D31AFA689A42F7D800BF00BF1037BD46BA
:1024600080BD00BF2C00002080B485B000AF786034
:102470007B6803F00703FB600C4BDB68BB60BA684A
:102480004FF6FF031340BB60FB681A02BB6813439F
:1024900043F0BF6343F40033BB60044ABB68D360BE
:1024A00000BF1437BD465DF8047B704700ED00E0C7
:1024B00080B400AF044BDB681B0A03F00703184627
:1024C000BD465DF8047B704700ED00E080B483B04A
:1024D00000AF0346FB7197F90730002B0BDBFB794C
:1024E00003F01F02074997F907305B09012000FA42
:1024F00002F241F8232000BF0C37BD465DF8047B93
:10250000704700BF00E100E080B483B000AF034635
:10251000FB7197F90730002B12DBFB7903F01F02E8
:102520000A4997F907305B09012000FA02F22033CB
:1025300041F82320BFF34F8F00BFBFF36F8F00BF61
:1025400000BF0C37BD465DF8047B704700E100E03A
:1025500080B483B000AF03463960FB7197F9073050
:10256000002B0ADB3B68DAB20C4997F907301201FD
:10257000D2B20B4483F800230AE03B68DAB2084980
:10258000FB7903F00F03043B1201D2B20B441A761D
:1025900000BF0C37BD465DF8047B704700E100E0EA
:1025A00000ED00E080B489B000AFF860B9607A60F7
:1025B000FB6803F00703FB61FB69C3F10703042B0E
:1025C00028BF0423BB61FB690433062B02D9FB69D6
:1025D000033B00E000237B614FF0FF32BB6902FA4E
:1025E00003F3DA43BB681A407B699A404FF0FF312E
:1025F0007B6901FA03F3D9437B680B401343184608
:102600002437BD465DF8047B7047000080B582B07A
:1026100000AF78607B68013BB3F1807F01D3012379
:102620000FE00A4A7B68013B53600F214FF0FF30F7
:10263000FFF78EFF054B00229A60044B07221A60B9
:10264000002318460837BD4680BD00BF10E000E0FB
:1026500080B582B000AF78607868FFF705FF00BFF3
:102660000837BD4680BD80B586B000AF0346B9606F
:102670007A60FB7300237B61FFF71AFF78617A6849
:10268000B9687869FFF78EFF024697F90F30114657
:102690001846FFF75DFF00BF1837BD4680BD80B507
:1026A00082B000AF0346FB7197F907301846FFF779
:1026B0000DFF00BF0837BD4680BD80B582B000AFBA
:1026C0000346FB7197F907301846FFF71DFF00BF5F
:1026D0000837BD4680BD80B582B000AF78607868AD
:1026E000FFF794FF034618460837BD4680BD80B506
:1026F00084B000AF78607B689B6DFB60FFF784FE61
:10270000B8607B6893F83530DBB2022B08D07B6869
:1027100080225A657B68002283F83420012352E02E
:102720007B681B681A687B681B6822F016021A60B7
:102730007B681B685A697B681B6822F080025A61BB
:102740007B681B6C002B03D17B689B6C002B07D034
:102750007B681B681A687B681B6822F008021A6095
:102760007B681B681A687B681B6822F001021A608C
:1027700013E0FFF749FE0246BB68D31A052B0CD9BC
:102780007B6820225A657B68032283F835207B68AA
:10279000002283F83420032315E07B681B681B6844
:1027A00003F00103002BE4D17B68DB6D3F229A40EC
:1027B000FB689A607B68012283F835207B680022E1
:1027C00083F83420002318461037BD4680BD80B4FE
:1027D00083B000AF78607B6893F83530DBB2022BB2
:1027E00004D07B6880225A6501230CE07B680522B7
:1027F00083F835207B681B681A687B681B6822F0A9
:1028000001021A60002318460C37BD465DF8047BB0
:10281000704780B483B000AF78607B685B6D18460A
:102820000C37BD465DF8047B7047000080B586B06C
:1028300000AFF860B960C7E900230123FB75234BA3
:102840001B7E012B01D102233BE0204B01221A7693
:102850004CF2503000F070F80346FB75FB7D002B06
:102860002BD1FB68002B05D13B781946B86800F0E6
:102870001BF916E0FB68012B05D13B881946B868A7
:1028800000F0EEF80DE0FB68022B05D13B6819461D
:10289000B86800F0C3F804E0D7E90023B86800F096
:1028A0008BF84CF2503000F047F80346FB75084BAC
:1028B0001B69074A23F001031361044B00221A76B7
:1028C000FB7D18461837BD4680BD00BF3804002088
:1028D000003C024080B483B000AF0023FB710B4B7F
:1028E0001B69002B0BDA094B094A5A60074B094A4E
:1028F0005A60064B1B69002B01DA0123FB71FB793F
:1029000018460C37BD465DF8047B7047003C02401A
:1029100023016745AB89EFCD80B400AF054B1B6940
:10292000044A43F00043136100231846BD465DF896
:10293000047B7047003C024080B584B000AF7860F3
:102940000023FB601A4B0022DA61FFF75DFDF8609F
:1029500010E07B68B3F1FF3F0CD07B68002B07D001
:10296000FFF752FD0246FB68D31A7A689A4201D2F9
:10297000032319E00F4BDB6803F48033002BE8D10D
:102980000C4BDB6803F00103002B02D0094B012242
:10299000DA60084BDB6803F4F973002B03D000F016
:1029A000A5F8012300E0002318461037BD4680BD7E
:1029B00038040020003C024080B485B000AFF860CD
:1029C000C7E90023144B1B69134A23F440731361B6
:1029D000114B1B69104A43F4407313610E4B1B6982
:1029E0000D4A43F001031361FB683A681A60BFF3B4
:1029F0006F8F00BFD7E900014FF000024FF00003D6
:102A00000A000023F968043113460B6000BF143735
:102A1000BD465DF8047B7047003C024080B483B043
:102A200000AF786039600D4B1B690C4A23F440738A
:102A300013610A4B1B69094A43F400731361074B86
:102A40001B69064A43F0010313617B683A681A6008
:102A500000BF0C37BD465DF8047B7047003C024068
:102A600080B483B000AF78600B467B800D4B1B6950
:102A70000C4A23F4407313610A4B1B69094A43F45F
:102A800080731361074B1B69064A43F0010313610E
:102A90007B687A881A8000BF0C37BD465DF8047BDE
:102AA000704700BF003C024080B483B000AF786044
:102AB0000B46FB700C4B1B690B4A23F440731361EC
:102AC000094B094A1B691361074B1B69064A43F00E
:102AD000010313617B68FA781A7000BF0C37BD469A
:102AE0005DF8047B704700BF003C024080B400AF3B
:102AF0002F4BDB6803F01003002B08D02D4BDB6954
:102B000043F010032B4AD361294B1022DA60284B83
:102B1000DB6803F02003002B08D0264BDB6943F071
:102B20000803244AD361224B2022DA60204BDB6861
:102B300003F04003002B08D01E4BDB6943F0040375
:102B40001C4AD3611A4B4022DA60194BDB6803F050
:102B50008003002B08D0174BDB6943F00203154AB2
:102B6000D361134B8022DA60114BDB6803F480736E
:102B7000002B09D00F4BDB6943F001030D4AD361F1
:102B80000B4B4FF48072DA60094BDB6803F00203F1
:102B9000002B08D0074BDB6943F02003054AD361C3
:102BA000034B0222DA6000BFBD465DF8047B70472C
:102BB000003C02403804002080B584B000AF78604B
:102BC00039600123FB730023BB60324B1B7E012B5A
:102BD00001D102235AE02F4B01221A764CF25030D9
:102BE000FFF7AAFE0346FB73FB7B002B4AD13B6831
:102BF0004FF0FF321A607B681B68012B17D17B688E
:102C00001B69DAB27B685B681946104600F046F82B
:102C10004CF25030FFF790FE0346FB731E4B1B69CE
:102C20001D4A23F4004323F00403136128E07B686A
:102C30009B68BB601CE07B681B69DBB21946B86807
:102C400000F066F84CF25030FFF776FE0346FB7357
:102C5000114B1B69104A23F0FA031361FB7B002B15
:102C600003D03B68BA681A600AE0BB680133BB60F6
:102C70007B68DA687B689B681344BA689A42DAD347
:102C800000F094F8034B00221A76FB7B18461037AD
:102C9000BD4680BD38040020003C024080B483B0B3
:102CA00000AF03463960FB71184B1B69174A23F4C8
:102CB000407313613B68032B08D1144B1B69134A03
:102CC00043F4004343F0040313610FE03B68012B1E
:102CD00006D10E4B1B690D4A43F00403136105E056
:102CE0000A4B1B69094A43F400431361074B1A69F5
:102CF000FB791B021343054A43F48033136100BF81
:102D00000C37BD465DF8047B704700BF003C0240B5
:102D100080B485B000AF78600B46FB700023FB6089
:102D2000FB78002B02D10023FB6010E0FB78012B25
:102D300003D14FF48073FB6009E0FB78022B03D1D1
:102D40004FF40073FB6002E04FF44073FB607B685C
:102D50000B2B02D97B6804337B60134B1B69124A2F
:102D600023F440731361104B1A690F49FB68134336
:102D70000B610D4B1B690C4A23F0F80313610A4BDE
:102D80001A697B68DB001343074A43F002031361AF
:102D9000054B1B69044A43F48033136100BF1437A9
:102DA000BD465DF8047B7047003C024080B400AF34
:102DB000204B1B6803F40073002B17D01D4B1B68BE
:102DC0001C4A23F4007313601A4B1B68194A43F41E
:102DD00000631360174B1B68164A23F400631360EB
:102DE000144B1B68134A43F400731360114B1B68A8
:102DF00003F48063002B17D00E4B1B680D4A23F49D
:102E0000806313600B4B1B680A4A43F480531360C2
:102E1000084B1B68074A23F480531360054B1B685B
:102E2000044A43F48063136000BFBD465DF8047B31
:102E3000704700BF003C024080B489B000AF7860AA
:102E4000396000237B6100233B610023BB610023C9
:102E5000FB6177E10122FB6902FA03F37B613B68C6
:102E60001B687A6913403B613A697B699A4240F07A
:102E700066813B685B6803F00303012B05D03B6868
:102E80005B6803F00303022B30D17B689B68BB6156
:102E9000FB695B00032202FA03F3DB43BA691340C8
:102EA000BB613B68DA68FB695B0002FA03F3BA694D
:102EB0001343BB617B68BA699A607B685B68BB61DE
:102EC0000122FB6902FA03F3DB43BA691340BB61D9
:102ED0003B685B681B0903F00102FB6902FA03F31C
:102EE000BA691343BB617B68BA695A603B685B6827
:102EF00003F00303032B17D07B68DB68BB61FB691E
:102F00005B00032202FA03F3DB43BA691340BB619F
:102F10003B689A68FB695B0002FA03F3BA691343E2
:102F2000BB617B68BA69DA603B685B6803F00303E6
:102F3000022B23D1FB69DA087B68083253F8223070
:102F4000BB61FB6903F007039B000F2202FA03F346
:102F5000DB43BA691340BB613B681A69FB6903F044
:102F600007039B0002FA03F3BA691343BB61FB69D1
:102F7000DA087B680832B96943F822107B681B685D
:102F8000BB61FB695B00032202FA03F3DB43BA690E
:102F90001340BB613B685B6803F00302FB695B00A5
:102FA00002FA03F3BA691343BB617B68BA691A601A
:102FB0003B685B6803F44033002B00F0C0800023C3
:102FC000FB60664B5B6C654A43F480435364634B20
:102FD0005B6C03F48043FB60FB68614AFB699B0800
:102FE000023352F82330BB61FB6903F003039B00FB
:102FF0000F2202FA03F3DB43BA691340BB617B681B
:10300000584A934237D07B68574A934231D07B6805
:10301000564A93422BD07B68554A934225D07B6811
:10302000544A93421FD07B68534A934219D07B681D
:10303000524A934213D07B68514A93420DD07B6829
:10304000504A934207D07B684F4A934201D10923EB
:1030500012E00A2310E008230EE007230CE0062309
:103060000AE0052308E0042306E0032304E002232A
:1030700002E0012300E00023FA6902F0030292005B
:103080009340BA691343BB613549FB699B0802331E
:10309000BA6941F823203D4B9B68BB613B69DB4328
:1030A000BA691340BB613B685B6803F48013002B73
:1030B00003D0BA693B691343BB61344ABB6993606F
:1030C000324BDB68BB613B69DB43BA691340BB61D0
:1030D0003B685B6803F40013002B03D0BA693B69BB
:1030E0001343BB61294ABB69D360284B5B68BB6152
:1030F0003B69DB43BA691340BB613B685B6803F41F
:103100000033002B03D0BA693B691343BB611F4AEC
:10311000BB6953601D4B1B68BB613B69DB43BA69EC
:103120001340BB613B685B6803F48033002B03D022
:10313000BA693B691343BB61144ABB691360FB69FD
:103140000133FB61FB690F2B7FF684AE00BF00BF2C
:103150002437BD465DF8047B704700BF003802404D
:103160000038014000000240000402400008024014
:10317000000C0240001002400014024000180240FF
:10318000001C02400020024000240240003C01409C
:1031900080B584B000AF78607B68002B01D101233B
:1031A00034E07B681B684CF6CC421A607B681B6875
:1031B00045F255521A607B681B687A6852685A60FB
:1031C0007B681B687A6892689A60FFF71DF9F8605F
:1031D0000FE0FFF719F90246FB68D31A312B08D923
:1031E0007B681B68DB6803F00303002B01D003231B
:1031F0000CE07B681B68DB6803F00303002BE8D15D
:103200007B681B684AF6AA221A600023184610370A
:10321000BD4680BD80B483B000AF78607B681B681A
:103220004AF6AA221A60002318460C37BD465DF8FC
:10323000047B704780B586B000AF78607B68002B58
:1032400001D1012367E27B681B6803F00103002BB7
:1032500075D0884B9B6803F00C03042B0CD0854B76
:103260009B6803F00C03082B12D1824B5B6803F4BC
:103270008003B3F5800F0BD17E4B1B6803F4003342
:10328000002B5BD07B685B68002B57D1012342E2A7
:103290007B685B68B3F5803F06D1764B1B68754A47
:1032A00043F4803313601DE07B685B68B3F5A02FA7
:1032B0000CD1704B1B686F4A43F4802313606D4B35
:1032C0001B686C4A43F4803313600BE0694B1B6846
:1032D000684A23F480331360664B1B68654A23F405
:1032E000802313607B685B68002B13D0FFF78CF89A
:1032F000386108E0FFF788F802463B69D31A642B6F
:1033000001D9032307E25B4B1B6803F40033002B56
:10331000F0D014E0FFF778F8386108E0FFF774F8B0
:1033200002463B69D31A642B01D90323F3E1514BC5
:103330001B6803F40033002BF0D100E000BF7B6872
:103340001B6803F00203002B63D04A4B9B6803F019
:103350000C03002B0BD0474B9B6803F00C03082B8E
:103360001CD1444B5B6803F48003002B16D1414B06
:103370001B6803F00203002B05D07B68DB68012B80
:1033800001D00123C7E13B4B1B6823F0F8027B68A7
:103390001B69DB00374913430B603AE07B68DB684D
:1033A000002B20D0344B01221A60FFF72DF8386132
:1033B00008E0FFF729F802463B69D31A022B01D92E
:1033C0000323A8E12B4B1B6803F00203002BF0D072
:1033D000284B1B6823F0F8027B681B69DB0025493A
:1033E00013430B6015E0244B00221A60FFF70CF822
:1033F000386108E0FFF708F802463B69D31A022B50
:1034000001D9032387E11B4B1B6803F00203002B48
:10341000F0D17B681B6803F00803002B36D07B6873
:103420005B69002B16D0154B01221A60FEF7ECFFEA
:10343000386108E0FEF7E8FF02463B69D31A022B29
:1034400001D9032367E10B4B5B6F03F00203002BF1
:10345000F0D01BE0094B00221A60FEF7D5FF38615F
:103460000EE0FEF7D1FF02463B69D31A022B07D9C3
:10347000032350E10038024000004742800E4742DB
:10348000884B5B6F03F00203002BEAD17B681B685B
:1034900003F00403002B00F097800023FB75814BA1
:1034A0001B6C03F08053002B0FD10023BB607D4BBE
:1034B0001B6C7C4A43F0805313647A4B1B6C03F003
:1034C0008053BB60BB680123FB75774B1B6803F41B
:1034D0008073002B18D1744B1B68734A43F48073BC
:1034E0001360FEF791FF386108E0FEF78DFF02469A
:1034F0003B69D31A022B01D903230CE16A4B1B68E9
:1035000003F48073002BF0D07B689B68012B06D1FD
:10351000644B1B6F634A43F0010313671CE07B6835
:103520009B68052B0CD15F4B1B6F5E4A43F0040375
:1035300013675C4B1B6F5B4A43F0010313670BE09F
:10354000584B1B6F574A23F001031367554B1B6FF2
:10355000544A23F0040313677B689B68002B15D043
:10356000FEF752FF38610AE0FEF74EFF02463B6964
:10357000D31A41F28832934201D90323CBE0494B5D
:103580001B6F03F00203002BEED014E0FEF73CFFAC
:1035900038610AE0FEF738FF02463B69D31A41F270
:1035A0008832934201D90323B5E03E4B1B6F03F0F1
:1035B0000203002BEED1FB7D012B05D1394B1B6C97
:1035C000384A23F0805313647B689B69002B00F01A
:1035D000A180344B9B6803F00C03082B5CD07B6804
:1035E0009B69022B41D1314B00221A60FEF70CFF80
:1035F000386108E0FEF708FF02463B69D31A022B48
:1036000001D9032387E0274B1B6803F00073002BCD
:10361000F0D17B68DA697B681B6A1A437B685B6A56
:103620009B011A437B689B6A5B08013B1B041A439E
:103630007B68DB6A1B061B4913434B601B4B012253
:103640001A60FEF7E1FE386108E0FEF7DDFE024693
:103650003B69D31A022B01D903235CE0114B1B6891
:1036600003F00073002BF0D054E0104B00221A60DE
:10367000FEF7CAFE386108E0FEF7C6FE02463B6967
:10368000D31A022B01D9032345E0064B1B6803F034
:103690000073002BF0D13DE07B689B69012B07D1C3
:1036A000012338E0003802400070004060004742CB
:1036B0001B4B5B68FB607B689B69012B28D0FB6818
:1036C00003F480027B68DB699A4221D1FB6803F036
:1036D0003F027B681B6A9A421AD1FA6847F6C073A8
:1036E00013407A68526A9201934211D1FB6803F445
:1036F00040327B689B6A5B08013B1B049A4207D1FE
:10370000FB6803F070627B68DB6A1B069A4201D09B
:10371000012300E0002318461837BD4680BD00BFD6
:103720000038024080B584B000AF786039607B68B3
:10373000002B01D10123CCE0684B1B6803F00F0381
:103740003A689A420CD9654B3A68D2B21A70634B08
:103750001B6803F00F033A689A4201D00123B8E0D6
:103760007B681B6803F00203002B20D07B681B687A
:1037700003F00403002B05D0594B9B68584A43F4CF
:10378000E05393607B681B6803F00803002B05D0AF
:10379000534B9B68524A43F460439360504B9B6881
:1037A00023F0F0027B689B684D4913438B607B6874
:1037B0001B6803F00103002B44D07B685B68012B7E
:1037C00007D1474B1B6803F40033002B19D10123A9
:1037D0007FE07B685B68022B03D07B685B68032B10
:1037E00007D13F4B1B6803F00073002B09D1012365
:1037F0006FE03B4B1B6803F00203002B01D1012358
:1038000067E0374B9B6823F003027B685B683449B1
:1038100013438B60FEF7F8FDF8600AE0FEF7F4FD55
:103820000246FB68D31A41F28832934201D903233E
:103830004FE02B4B9B6803F00C027B685B689B009E
:103840009A42EBD1254B1B6803F00F033A689A426A
:103850000CD2224B3A68D2B21A70204B1B6803F08C
:103860000F033A689A4201D0012332E07B681B685B
:1038700003F00403002B08D0194B9B6823F4E0529B
:103880007B68DB68164913438B607B681B6803F019
:103890000803002B09D0124B9B6823F460427B681D
:1038A0001B69DB000E4913438B6000F021F80246D0
:1038B0000B4B9B681B0903F00F030A49CB5C22FAF0
:1038C00003F3094A1360094B1B681846FEF758FDBD
:1038D000002318461037BD4680BD00BF003C0240A3
:1038E00000380240886100082000002028000020E5
:1038F0002DE9B04F90B000AF00237B630023FB6342
:1039000000233B630023BB63594B9B6803F00C030C
:10391000082B0DD0082B00F2A180002B02D0042B25
:1039200003D09BE0534BBB639BE0534BBB6398E0DE
:103930004F4B5B6803F03F037B634D4B5B6803F4C5
:103940008003002B28D04A4B5B689B0900223B6216
:103950007A623B6AC3F308000021474B03FB01F284
:10396000002300FB03F31344434AA0FB0212FA6254
:103970000A46BA62FA6A1344FB627B6B0022BB619F
:10398000FA61D7E90623D7E90A01FCF799FC024658
:103990000B461346FB6353E0354B5B689B090022E3
:1039A0003B617A613B69C3F3080A4FF0000B524652
:1039B0005B464FF000004FF00001590141EAD2612F
:1039C000500102460B46B2EB0A0863EB0B094FF0BD
:1039D00000024FF000034FEA891343EA98634FEA6D
:1039E0008812B2EB080463EB09054FF000024FF0B8
:1039F0000003EB0043EA5473E20014461D4614EB47
:103A00000A033B6045EB0B037B604FF000024FF075
:103A10000003D7E9004529468B02214643EA91532A
:103A200021468A02104619467B6B0022BB60FA6071
:103A3000D7E90223FCF744FC02460B461346FB631E
:103A40000B4B5B681B0C03F0030301335B003B6310
:103A5000FA6B3B6BB2FBF3F3BB6302E0054BBB635A
:103A600000BFBB6B18464037BD46BDE8B08F00BFF6
:103A7000003802400024F40040787D0180B400AF9B
:103A8000034B1B681846BD465DF8047B704700BFBA
:103A90002000002080B500AFFFF7F0FF0246054B85
:103AA0009B689B0A03F007030349CB5C22FA03F3EC
:103AB000184680BD003802409861000880B500AF0C
:103AC000FFF7DCFF0246054B9B685B0B03F0070327
:103AD0000349CB5C22FA03F3184680BD003802404C
:103AE0009861000880B582B000AFFEF78DFC786069
:103AF000724B1B68714A43F00103136008E0FEF744
:103B000083FC02467B68D31A022B01D90323D0E041
:103B10006A4B1B6803F00203002BF0D0674B1B6855
:103B2000664A43F080031360FEF76EFC7860634BD7
:103B300000229A600AE0FEF767FC02467B68D31A0F
:103B400041F28832934201D90323B2E05B4B9B6878
:103B500003F00C03002BEED1FEF756FC7860574BB8
:103B60001B68564A23F45023136008E0FEF74CFC10
:103B700002467B68D31A642B01D9032399E04F4B8B
:103B80001B6803F40033002BF0D1FEF73DFC786096
:103B90004A4B1B68494A23F08073136008E0FEF724
:103BA00033FC02467B68D31A022B01D9032380E041
:103BB000424B1B6803F00073002BF0D1FEF724FC8E
:103BC00078603E4B1B683D4A23F08063136008E039
:103BD000FEF71AFC02467B68D31A022B01D9032395
:103BE00067E0364B1B6803F00063002BF0D1FEF753
:103BF0000BFC7860314B1B68304A23F08053136014
:103C000008E0FEF701FC02467B68D31A022B01D9BB
:103C100003234EE0294B1B6803F00053002BF0D127
:103C2000264B274A5A60254B264AC3F88420234B4B
:103C3000244AC3F88820214BDB68204A23F4F85338
:103C4000D3601E4BDB681D4A23F40053D3601B4B2B
:103C5000DB681A4A23F48043D360184BDB68174AA9
:103C600043F41F03D360154BDB68144A43F400137D
:103C7000D360124BDB68114A43F48003D3600F4BCF
:103C80005B6F0E4A23F0010353670C4B5B6F0B4ACB
:103C900043F0807353670C4B0C4A1A600C4B1B6843
:103CA0001846FEF76DFB0346002B01D0012300E010
:103CB000002318460837BD4680BD00BF00380240CB
:103CC0001030000400300024200000200024F40004
:103CD0002800002080B582B000AF78607B68002BA0
:103CE00001D1012341E07B6893F83D30DBB2002B2A
:103CF00006D17B68002283F83C207868FDF76AFED5
:103D00007B68022283F83D207B681A687B68043355
:103D10001946104600F0FEF97B68012283F8462020
:103D20007B68012283F83E207B68012283F83F20D4
:103D30007B68012283F840207B68012283F84120C0
:103D40007B68012283F842207B68012283F84320AC
:103D50007B68012283F844207B68012283F8452098
:103D60007B68012283F83D20002318460837BD46B2
:103D700080BD000080B485B000AF78607B6893F8A8
:103D80003D30DBB2012B01D001234EE07B680222E3
:103D900083F83D207B681B68DA687B681B6842F00B
:103DA0000102DA607B681B68234A934222D07B6859
:103DB0001B68B3F1804F1DD07B681B681F4A93427C
:103DC00018D07B681B681E4A934213D07B681B681F
:103DD0001C4A93420ED07B681B681B4A934209D051
:103DE0007B681B68194A934204D07B681B68184A99
:103DF000934211D17B681B689B6803F00703FB604B
:103E0000FB68062B10D07B681B681A687B681B68F0
:103E100042F001021A6007E07B681B681A687B6841
:103E20001B6842F001021A60002318461437BD4691
:103E30005DF8047B704700BF0000014000040040B3
:103E400000080040000C0040000401400040014018
:103E50000018004080B483B000AF78607B681B68B6
:103E6000DA687B681B6822F00102DA607B681B68F5
:103E70001A6A41F211131340002B0FD17B681B68A3
:103E80001A6A40F244431340002B07D17B681B6839
:103E90001A687B681B6822F001021A607B680122A5
:103EA00083F83D20002318460C37BD465DF8047B9F
:103EB000704780B582B000AF78607B681B681B6973
:103EC00003F00203022B22D17B681B68DB6803F03E
:103ED0000203022B1BD17B681B686FF002021A6180
:103EE0007B6801221A777B681B689B6903F00303D8
:103EF000002B03D0786800F0EEF805E0786800F059
:103F0000E0F8786800F0F1F87B6800221A777B68A7
:103F10001B681B6903F00403042B22D17B681B6818
:103F2000DB6803F00403042B1BD17B681B686FF074
:103F300004021A617B6802221A777B681B689B69FE
:103F400003F44073002B03D0786800F0C4F805E058
:103F5000786800F0B6F8786800F0C7F87B6800224F
:103F60001A777B681B681B6903F00803082B22D1B2
:103F70007B681B68DB6803F00803082B1BD17B6898
:103F80001B686FF008021A617B6804221A777B684D
:103F90001B68DB6903F00303002B03D0786800F093
:103FA0009AF805E0786800F08CF8786800F09DF8E1
:103FB0007B6800221A777B681B681B6903F010037B
:103FC000102B22D17B681B68DB6803F01003102BD9
:103FD0001BD17B681B686FF010021A617B68082296
:103FE0001A777B681B68DB6903F44073002B03D0EE
:103FF000786800F070F805E0786800F062F878689A
:1040000000F073F87B6800221A777B681B681B69D5
:1040100003F00103012B0ED17B681B68DB6803F002
:104020000103012B07D17B681B686FF001021A6145
:104030007868FDF7F7FC7B681B681B6903F0800359
:10404000802B0ED17B681B68DB6803F08003802B1C
:1040500007D17B681B686FF080021A61786800F0F6
:104060007FF97B681B681B6903F04003402B0ED16E
:104070007B681B68DB6803F04003402B07D17B683B
:104080001B686FF040021A61786800F038F87B68AE
:104090001B681B6903F02003202B0ED17B681B6873
:1040A000DB6803F02003202B07D17B681B686FF0CF
:1040B00020021A61786800F049F900BF0837BD4650
:1040C00080BD80B483B000AF786000BF0C37BD46C0
:1040D0005DF8047B704780B483B000AF786000BFA8
:1040E0000C37BD465DF8047B704780B483B000AFE9
:1040F000786000BF0C37BD465DF8047B704780B424
:1041000083B000AF786000BF0C37BD465DF8047B1C
:104110007047000080B485B000AF786039607B687C
:104120001B68FB607B68404A934213D07B68B3F105
:10413000804F0FD07B683D4A93420BD07B683C4A4E
:10414000934207D07B683B4A934203D07B683A4A4C
:10415000934208D1FB6823F07003FB603B685B6807
:10416000FA681343FB607B682F4A93422BD07B682D
:10417000B3F1804F27D07B682C4A934223D07B68D1
:104180002B4A93421FD07B682A4A93421BD07B68FC
:10419000294A934217D07B68284A934213D07B6800
:1041A000274A93420FD07B68264A93420BD07B6804
:1041B000254A934207D07B68244A934203D07B6808
:1041C000234A934208D1FB6823F44073FB603B68A9
:1041D000DB68FA681343FB60FB6823F080023B68EE
:1041E0005B691343FB607B68FA681A603B689A68F6
:1041F0007B68DA623B681A687B689A627B680A4A65
:10420000934203D07B680C4A934203D13B681A69FE
:104210007B681A637B6801225A6100BF1437BD4670
:104220005DF8047B704700BF0000014000040040BF
:1042300000080040000C0040000401400040014024
:10424000004401400048014000180040001C0040AC
:104250000020004080B485B000AF786039607B6892
:1042600093F83C30012B01D102235AE07B680122F4
:1042700083F83C207B68022283F83D207B681B6822
:104280005B68FB607B681B689B68BB60FB6823F016
:104290007003FB603B681B68FA681343FB607B6834
:1042A0001B68FA685A607B681B68214A934222D0D7
:1042B0007B681B68B3F1804F1DD07B681B681D4A6B
:1042C000934218D07B681B681B4A934213D07B68CB
:1042D0001B681A4A93420ED07B681B68184A9342A7
:1042E00009D07B681B68174A934204D07B681B681F
:1042F000154A93420CD1BB6823F08003BB603B6836
:104300005B68BA681343BB607B681B68BA689A60D5
:104310007B68012283F83D207B68002283F83C20E3
:10432000002318461437BD465DF8047B704700BF74
:10433000000001400004004000080040000C004064
:1043400000040140004001400018004080B483B0E8
:1043500000AF786000BF0C37BD465DF8047B704746
:1043600080B483B000AF786000BF0C37BD465DF805
:10437000047B704780B582B000AF78607B68002B0B
:1043800001D101233FE07B6893F83D30DBB2002B85
:1043900006D17B68002283F83C207868FDF7D8FBC3
:1043A0007B68242283F83D207B681B68DA687B6881
:1043B0001B6822F40052DA60786800F005FE7B6822
:1043C0001B681A697B681B6822F490421A617B683B
:1043D0001B685A697B681B6822F02A025A617B6855
:1043E0001B68DA687B681B6842F40052DA607B68FD
:1043F00000221A647B68202283F83D207B682022FB
:1044000083F83E20002318460837BD4680BD80B49F
:1044100085B000AFF860B9601346FB80FB6893F885
:104420003D30DBB2202B30D1BB68002B02D0FB88A3
:10443000002B01D1012329E0FB6893F83C30012BCC
:1044400001D1022322E0FB68012283F83C20FB68B3
:10445000BA681A62FB68FA889A84FB68FA88DA8478
:10446000FB6800221A64FB68212283F83D20FB6868
:10447000002283F83C20FB681B68DA68FB681B6835
:1044800042F08002DA60002300E00223184614376D
:10449000BD465DF8047B704780B584B000AFF8601E
:1044A000B9601346FB80FB6893F83E30DBB2202BEB
:1044B0001DD1BB68002B02D0FB88002B01D101234A
:1044C00016E0FB6893F83C30012B01D102230FE08A
:1044D000FB68012283F83C20FB6800221A63FB88FA
:1044E0001A46B968F86800F097FB034600E002231B
:1044F00018461037BD4680BD80B5A0B000AF7860CB
:104500007B681B680C33FB65FB6D53E8003FBB65A4
:10451000BB6D23F4F073FB677B681B680C33FA6F89
:10452000BA667B66796EBA6E41E800233B663B6EE5
:10453000002BE5D17B681B681433BB64BB6C53E86C
:10454000003F7B647B6C23F00103BB677B681B68C7
:104550001433BA6F7A653B65396D7A6D41E8002393
:10456000FB64FB6C002BE5D17B681B6B012B19D125
:104570007B681B680C337B637B6B53E8003F3B63BA
:104580003B6B23F010037B677B681B680C337A6FEF
:104590003A64FB63F96B3A6C41E80023BB63BB6B85
:1045A000002BE5D17B681B685B6903F08003802BDF
:1045B00036D17B681B6814333B623B6A53E8003F8B
:1045C000FB61FB6923F080033B677B681B68143346
:1045D0003A6FFA62BB62B96AFA6A41E800237B6209
:1045E0007B6A002BE5D17B685B6B002B18D07B6866
:1045F0005B6B00221A657B685B6B1846FEF777F8E9
:104600000346002B0CD07B685B6B1846FEF701F964
:104610000346202B04D17B6810221A64032352E046
:104620007B681B685B6903F04003402B36D17B68D5
:104630001B681433FB60FB6853E8003FBB60BB683A
:1046400023F04003FB667B681B681433FA6EBA6183
:104650007B617969BA6941E800233B613B69002BC2
:10466000E5D17B689B6B002B18D07B689B6B00228D
:104670001A657B689B6B1846FEF739F80346002BDA
:104680000CD07B689B6B1846FEF7C3F80346202BC3
:1046900004D17B6810221A64032314E07B68002293
:1046A000DA847B680022DA857B6800221A647B68E2
:1046B000202283F83E207B68202283F83D207B68FF
:1046C00000221A63002318468037BD4680BD0000D3
:1046D00080B5BAB000AF78607B681B681B68C7F80C
:1046E000E4307B681B68DB68C7F8E0307B681B68D8
:1046F0005B69C7F8DC300023C7F8D8300023C7F85F
:10470000D430D7F8E43003F00F03C7F8D830D7F827
:10471000D830002B0FD1D7F8E43003F02003002B62
:1047200009D0D7F8E03003F02003002B03D07868DD
:1047300000F08FFB56E2D7F8D830002B00F0DE8077
:10474000D7F8DC3003F00103002B06D1D7F8E030B6
:1047500003F49073002B00F0D180D7F8E43003F01D
:104760000103002B0BD0D7F8E03003F48073002B4B
:1047700005D07B681B6C43F001027B681A64D7F894
:10478000E43003F00403002B0BD0D7F8DC3003F047
:104790000103002B05D07B681B6C43F002027B6891
:1047A0001A64D7F8E43003F00203002B0BD0D7F8DB
:1047B000DC3003F00103002B05D07B681B6C43F059
:1047C00004027B681A64D7F8E43003F00803002B76
:1047D00011D0D7F8E03003F02003002B05D1D7F833
:1047E000DC3003F00103002B05D07B681B6C43F029
:1047F00008027B681A647B681B6C002B00F0ED815B
:10480000D7F8E43003F02003002B08D0D7F8E030CD
:1048100003F02003002B02D0786800F01AFB7B68BD
:104820001B685B6903F04003402B0CBF012300238E
:10483000DBB2C7F8D4307B681B6C03F00803002B95
:1048400003D1D7F8D430002B4FD0786800F022FA8B
:104850007B681B685B6903F04003402B41D17B6898
:104860001B681433C7F89C30D7F89C3053E8003FDE
:10487000C7F89830D7F8983023F04003C7F8D03005
:104880007B681B681433D7F8D020C7F8A820C7F876
:10489000A430D7F8A410D7F8A82041E80023C7F81F
:1048A000A030D7F8A030002BD9D17B689B6B002BB0
:1048B00013D07B689B6B7D4A1A657B689B6B18469F
:1048C000FDF785FF0346002B16D07B689B6B1B6DA5
:1048D0007A68926B104698470EE0786800F086F987
:1048E0000AE0786800F082F906E0786800F07EF966
:1048F0007B6800221A6470E100BF6EE17B681B6B6D
:10490000012B40F04A81D7F8E43003F01003002B6C
:1049100000F04381D7F8E03003F01003002B00F0E3
:104920003C810023BB607B681B681B68BB607B68A5
:104930001B685B68BB60BB687B681B685B6903F0D6
:104940004003402B40F0B4807B689B6B1B685B6826
:10495000A7F8BE30B7F8BE30002B00F040817B686E
:104960009B8DB7F8BE209A4280F039817B68B7F8FA
:10497000BE20DA857B689B6BDB69B3F5807F00F036
:1049800088807B681B680C33C7F88830D7F888307C
:1049900053E8003FC7F88430D7F8843023F480739D
:1049A000C7F8B8307B681B680C33D7F8B820C7F855
:1049B0009420C7F89030D7F89010D7F8942041E8A9
:1049C0000023C7F88C30D7F88C30002BD9D17B6806
:1049D0001B6814337B677B6F53E8003F3B673B6F7B
:1049E00023F00103C7F8B4307B681B681433D7F891
:1049F000B420C7F88020FB67F96FD7F8802041E822
:104A00000023BB67BB6F002BE1D17B681B681433AD
:104A10003B663B6E53E8003FFB65FB6D23F04003B4
:104A2000C7F8B0307B681B681433D7F8B020FA663B
:104A3000BB66B96EFA6E41E800237B667B6E002B85
:104A4000E3D17B68202283F83E207B6800221A6332
:104A50007B681B680C33FB64FB6C53E8003FBB6452
:104A6000BB6C23F01003C7F8AC307B681B680C33B9
:104A7000D7F8AC20BA657B65796DBA6D41E8002343
:104A80003B653B6D002BE3D17B689B6B1846FDF7C4
:104A90002EFE7B689A8D7B68DB8D9BB2D31A9BB20E
:104AA0001946786800F0ACF899E000BF5B4D00084B
:104AB0007B689A8D7B68DB8D9BB2D31AA7F8CE30CA
:104AC0007B68DB8D9BB2002B00F08B80B7F8CE307B
:104AD000002B00F086807B681B680C33BB63BB6BCC
:104AE00053E8003F7B637B6B23F49073C7F8C830B7
:104AF0007B681B680C33D7F8C8207A643B64396C38
:104B00007A6C41E80023FB63FB6B002BE3D17B68ED
:104B10001B6814337B627B6A53E8003F3B623B6A4D
:104B200023F00103C7F8C4307B681B681433D7F83F
:104B3000C4203A63FB62F96A3A6B41E80023BB6226
:104B4000BB6A002BE3D17B68202283F83E207B6880
:104B500000221A637B681B680C333B613B6953E896
:104B6000003FFB60FB6823F01003C7F8C0307B6890
:104B70001B680C33D7F8C020FA61BB61B969FA69C8
:104B800041E800237B617B69002BE3D1B7F8CE308D
:104B90001946786800F034F823E0D7F8E43003F0E1
:104BA0008003002B09D0D7F8E03003F08003002BFE
:104BB00003D0786800F0E5F814E0D7F8E43003F0AB
:104BC0004003002B0ED0D7F8E03003F04003002B59
:104BD00008D0786800F025F904E000BF02E000BFCB
:104BE00000E000BFE837BD4680BD00BF80B483B0A1
:104BF00000AF786000BF0C37BD465DF8047B70479E
:104C000080B483B000AF78600B467B8000BF0C3768
:104C1000BD465DF8047B704780B485B000AFF86096
:104C2000B9601346FB80FB68BA689A62FB68FA8831
:104C30009A85FB68FA88DA85FB6800221A64FB68AB
:104C4000222283F83E20FB68002283F83C20FB6888
:104C50001B69002B07D0FB681B68DA68FB681B68C0
:104C600042F48072DA60FB681B685A69FB681B6853
:104C700042F001025A61FB681B68DA68FB681B6836
:104C800042F02002DA60002318461437BD465DF872
:104C9000047B704780B495B000AF78607B681B6878
:104CA0000C337B637B6B53E8003F3B633B6B23F42C
:104CB0009073FB647B681B680C33FA6C3A64FB638B
:104CC000F96B3A6C41E80023BB63BB6B002BE5D169
:104CD0007B681B6814333B623B6A53E8003FFB610F
:104CE000FB6923F00103BB647B681B681433BA6C57
:104CF000FA62BB62B96AFA6A41E800237B627B6AA6
:104D0000002BE5D17B681B6B012B19D17B681B68DD
:104D10000C33FB60FB6853E8003FBB60BB6823F0CB
:104D200010037B647B681B680C337A6CBA617B610F
:104D30007969BA6941E800233B613B69002BE5D101
:104D40007B68202283F83E207B6800221A6300BF24
:104D50005437BD465DF8047B704780B584B000AF22
:104D600078607B689B6BFB60FB680022DA85FB68E0
:104D70000022DA84F868FFF739FF00BF1037BD461C
:104D800080BD80B485B000AF78607B6893F83D301B
:104D9000DBB2212B3ED17B689B68B3F5805F14D1D9
:104DA0007B681B69002B10D17B681B6AFB60FB686A
:104DB0001B881A467B681B68C2F308025A607B682E
:104DC0001B6A9A1C7B681A6208E07B681B6A591C84
:104DD0007A6811621A787B681B685A607B68DB8C82
:104DE0009BB2013B9BB27A681946D184002B0FD14C
:104DF0007B681B68DA687B681B6822F08002DA60D7
:104E00007B681B68DA687B681B6842F04002DA60E6
:104E1000002300E0022318461437BD465DF8047BEA
:104E2000704780B582B000AF78607B681B68DA6835
:104E30007B681B6822F04002DA607B68202283F8DE
:104E40003D207868FCF718FE002318460837BD4659
:104E500080BD80B58CB000AF78607B6893F83E3041
:104E6000DBB2222B40F0AB807B689B68B3F5805FA0
:104E700017D17B681B69002B13D10023FB627B6871
:104E80009B6ABB627B681B685B689BB2C3F30803C9
:104E90009AB2BB6A1A807B689B6A9A1C7B689A628A
:104EA00026E07B689B6AFB620023BB627B689B6891
:104EB000B3F5805F07D07B689B68002B0AD17B68C5
:104EC0001B69002B06D17B681B685B68DAB2FB6A42
:104ED0001A7008E07B681B685B68DBB203F07F0335
:104EE000DAB2FB6A1A707B689B6A5A1C7B689A620A
:104EF0007B68DB8D9BB2013B9BB27A681946D185FA
:104F0000002B5AD17B681B68DA687B681B6822F02B
:104F10002002DA607B681B68DA687B681B6822F411
:104F20008072DA607B681B685A697B681B6822F0B4
:104F300001025A617B68202283F83E207B681B6B4C
:104F4000012B35D17B6800221A637B681B680C3308
:104F50007B617B6953E8003F3B613B6923F01003B1
:104F60007B627B681B680C337A6A3A62FB61F96981
:104F70003A6A41E80023BB61BB69002BE5D17B683D
:104F80001B681B6803F01003102B0AD10023FB6081
:104F90007B681B681B68FB607B681B685B68FB6049
:104FA000FB687B689B8D19467868FFF729FE02E055
:104FB0007868FCF781FD002302E0002300E0022373
:104FC00018463037BD4680BD2DE9B04FC0B000AFA8
:104FD000C7F8F400D7F8F4301B681B6923F440507D
:104FE000D7F8F430D968D7F8F4301A6840EA0103EA
:104FF0001361D7F8F4309A68D7F8F4301B691A4374
:10500000D7F8F4305B691A43D7F8F430DB691343FF
:10501000C7F8F830D7F8F4301B68DB6823F4164182
:1050200021F00C01D7F8F4301A68D7F8F8300B43A8
:10503000D360D7F8F4301B685B6923F44070D7F86D
:10504000F4309969D7F8F4301A6840EA01035361E3
:10505000D7F8F4301A688F4B9A4205D0D7F8F4305D
:105060001A688D4B9A4204D1FEF728FDC7F8FC0060
:1050700003E0FEF70FFDC7F8FC00D7F8F430DB695A
:10508000B3F5004F40F00C81D7F8FC300022C7F890
:10509000E830C7F8EC20D7E93A4522462B4691186C
:1050A000B9655B41FB65D7E91623214612EB010880
:1050B000294643EB01094FF000024FF000034FEA8D
:1050C000C90343EA58734FEAC802904699462346FB
:1050D00018EB0303C7F8E0302B4649EB0303C7F88E
:1050E000E430D7F8F4305B680022C7F8D830C7F84E
:1050F000DC20D7E936120B46DB183B65134642EB42
:1051000003037B65D7E91423D7E93801FBF7D8F807
:1051100002460B46614BA3FB02235B091C01D7F837
:10512000FC300022C7F8D030C7F8D420D7E9348942
:1051300042464B469118B9645B41FB64D7E91223A0
:10514000414612EB010A494643EB010B4FF00002C6
:105150004FF000034FEACB0343EA5A734FEACA0207
:1051600092469B4643461AEB0303C7F8C8304B46AA
:105170004BEB0303C7F8CC30D7F8F4305B68002260
:10518000C7F8C030C7F8C420D7E930120B46DB1887
:105190003B64134642EB03037B64D7E91023D7E952
:1051A0003201FBF78DF802460B4611463B4BA3FB41
:1051B00001235B09642202FB03F3CB1ADB0003F13A
:1051C0003202364BA3FB02235B095B0003F4F87346
:1051D0001C44D7F8FC300022C7F8B830C7F8BC2010
:1051E000D7E92E8942464B469118B9635B41FB6370
:1051F000D7E90E2341465118396349464B417B6339
:105200004FF000024FF00003D7E90CAB5946CB003A
:10521000514643EA51735146CA00104619460346A7
:1052200042469B18C7F8B0304B460A4642EB030390
:10523000C7F8B430D7F8F4305B680022C7F8A8305C
:10524000C7F8AC20D7E92A120B46DB18BB6213461D
:1052500042EB0303FB62D7E90A23D7E92C01FBF7F2
:105260002FF802460B460D4BA3FB02135B0964218A
:1052700001FB03F3D31ADB003233084AA2FB0323FA
:105280005B0903F00702D7F8F4301B6822449A60E8
:1052900005E100BF00100140001401401F85EB51E3
:1052A000D7F8FC300022C7F8A030C7F8A420D7E90F
:1052B000288942464B46911839625B417B62D7E9A7
:1052C000082341465418494643EB01054FF00002BC
:1052D0004FF00003EB0043EA5473E20014461D460E
:1052E0004346E318C7F898304B4645EB0303C7F82D
:1052F0009C30D7F8F4305B680022C7F89030C7F8CC
:1053000094204FF000024FF00003D7E924452946CE
:105310008B00214643EA917321468A00D7E9260192
:10532000FAF7CEFF02460B46604BA3FB02235B0954
:105330001C01D7F8FC300022C7F88830C7F88C2051
:10534000D7E9228942464B469118B9615B41FB611E
:10535000D7E9062341465118396149464B417B61E3
:105360004FF000024FF00003D7E904AB5946CB00E1
:10537000514643EA51735146CA0010461946034646
:1053800042469B18C7F880304B460A4642EB03035F
:10539000C7F88430D7F8F4305B680022BB67FA673F
:1053A0004FF000024FF00003D7E91E8949468B00F9
:1053B000414643EA917341468A00D7E92001FAF752
:1053C0007FFF02460B46394BA3FB02135B096421A6
:1053D00001FB03F3D31A1B013233344AA2FB03232C
:1053E0005B0903F0F0031C44D7F8FC3000223B6754
:1053F0007A67D7E91C8942464B469118B9605B41F0
:10540000FB60D7E9022341465118396049464B41B8
:105410007B604FF000024FF00003D7E900AB594624
:10542000CB00514643EA51735146CA001046194613
:10543000034642469B18BB664B460A4642EB0303B3
:10544000FB66D7F8F4305B6800223B667A664FF063
:1054500000024FF00003D7E9188949468B00414606
:1054600043EA917341468A00D7E91A01FAF728FF07
:1054700002460B460D4BA3FB02135B09642101FBA3
:1054800003F3D31A1B013233084AA2FB03235B093F
:1054900003F00F02D7F8F4301B6822449A6000BF73
:1054A00007F58077BD46BDE8B08F00BF1F85EB5183
:1054B000014B1868704700BF3000002070B50D4DDB
:1054C0000D4C641BA4100026A64209D10B4D0C4CB8
:1054D00000F01AFD641BA4100026A64205D170BD81
:1054E00055F8043B98470136EEE755F8043B9847DA
:1054F0000136F2E7DC620008DC620008DC620008CA
:10550000E0620008024B0146186800F077B800BF5F
:105510003000002002440346934200D1704703F854
:10552000011BF9E737B5002944D051F8043C01903C
:10553000002BA1F10404B8BFE41800F087F91E4A5B
:105540000198136833B96360146003B0BDE830405C
:1055500000F082B9A34208D9256861198B4201BFC6
:1055600019685B6849192160EDE71A465B680BB161
:10557000A342FAD911685518A5420BD124682144D9
:105580005418A3421160E0D11C685B685360214449
:105590001160DAE702D90C230360D6E725686119A8
:1055A0008B4204BF19685B68636004BF49192160BE
:1055B0005460CAE703B030BD5804002070B50E4EE9
:1055C0000C463168054611B900F08CF83060214670
:1055D000284600F087F8431C0AD0C41C24F00304BA
:1055E000A04207D0211A284600F07CF8013001D1F2
:1055F0004FF0FF34204670BD5C0400202DE9F041DF
:10560000CD1C25F0030508350C2D38BF0C25002DC9
:10561000074601DBA94205D90C233B600026304632
:10562000BDE8F0812E4E00F011F933681C4634BB02
:1056300029463846FFF7C2FF431C04464DD1346863
:105640002646002E40D123683146384604EB030835
:1056500000F048F880453AD1216803356D1A25F0ED
:10566000030508350C2D38BF0C2529463846FFF7B1
:10567000A5FF01302BD023682B4423600EE0226865
:10568000521B1ED40B2A16D96119A342256018BFDC
:105690005960636808BF316062514B60384604F15D
:1056A0000B0600F0D9F826F00706231DF21AB6D033
:1056B0009B1BA350B3E76268A3420CBF32605A60E1
:1056C000ECE723466468B2E734467668B9E70C2312
:1056D0003B60384600F0C0F8A1E72560DEE700BF78
:1056E0005804002038B5064D0023044608462B60B8
:1056F000FCF7F2F8431C02D12B6803B1236038BDDC
:10570000600400200EB400B59CB01DAB0290069062
:105710006FF00041094807910491094953F8042B9F
:1057200005910068019302A900F0F8F8029B00229D
:105730001A701CB05DF804EB03B070473000002015
:105740000802FFFF034611F8012B03F8012B002A82
:10575000F9D170472DE9F043364F86460D4628466D
:1057600015F8014BE65D16F00806F8D12D2C2FD167
:105770002C780126851C002B57D0102B09D1302CFA
:1057800007D1287800F0DF00582849D16C78102321
:1057900002354FF0FF380027B8FBF3F803FB08F998
:1057A0006FEA09093846A4F1300CBCF1090F14D88E
:1057B0006446A34222DD002F1DDB80451BD301D1AF
:1057C000A14518DB00FB0340012715F8014BEAE770
:1057D0002B2C04BF2C78851CCDE7A4F1410CBCF127
:1057E000190F01D8373CE4E7A4F1610CBCF1190FA3
:1057F00004D8573CDDE74FF0FF37E6E7002F07DA24
:105800002223CEF800304FF0FF3032B9BDE8F083EC
:1058100006B14042002AF9D007B1691E1160F5E7D0
:105820003024002BB5D10823B3E7302CA9D00A23AC
:10583000AFE700BFA161000813460A4601460248CF
:105840000068FFF787BF00BF30000020014800F06C
:10585000F9BA00BF64040020014800F0F4BA00BFA8
:10586000640400202DE9F0478E689E4282460C4673
:1058700090461F4638D88A8912F4906F32D0256836
:105880000969A5EB0109656905EB450505EBD575CA
:1058900001334B446D109D4238BF1D46530531D531
:1058A0002946FFF7ABFE064650B90C23CAF8003074
:1058B000A38943F04003A3814FF0FF30BDE8F08798
:1058C00021694A4600F0C0FAA38923F4906343F0AB
:1058D0008003A381266165614E44A5EB090526601E
:1058E000A5603E46BE4200D93E462068324641464B
:1058F00000F0B8FAA3689B1BA360236833442360BD
:105900000020DBE72A4600F0C7FA06460028E1D16E
:1059100021695046FFF706FEC7E700002DE9F04F6A
:1059200098468B891B069DB007460D4614460ED53A
:105930000B6963B94021FFF761FE2860286120B937
:105940000C233B604FF0FF30D1E040236B6100231C
:10595000099320238DF82930CDF80C803023DFF80F
:10596000A8818DF82A304FF0010923469A4613F892
:10597000012B0AB1252AF9D1BAEB040B0BD05B46F7
:10598000224629463846FFF76DFF013000F0AA8015
:10599000099A5A4409929AF80030002B00F0A2802C
:1059A00000234FF0FF32CDE905230AF1010A0493E9
:1059B00007938DF853301A935446052214F8011BAF
:1059C0005148FAF72DFC049AD8B9D00644BF2023D9
:1059D0008DF85330110744BF2B238DF853309AF8BC
:1059E00000302A2B15D0079A544600204FF00A0C9D
:1059F000214611F8013B303B092B4ED9B0B107923B
:105A000014E0A0EB080309FA03F313430493A2463E
:105A1000D2E7039B191D1B680391002BBBBF5B42A0
:105A200042F0020207930793B8BF049223782E2B0B
:105A30000CD163782A2B35D1039B1A1D1B68039266
:105A4000002BB8BF4FF0FF3302340593DFF8C8A036
:105A5000217803225046FAF7E3FB40B14023A0EB44
:105A60000A0003FA00F0049B03430134049314F882
:105A7000011B26488DF828100622FAF7D1FB0028D2
:105A800038D0234B1BBB039B073323F0070308339A
:105A90000393099B3344099367E70CFB02320C46DE
:105AA0000120A5E700230134059319464FF00A0CA5
:105AB000204610F8012B303A092A03D9002BC5D013
:105AC0000591C3E70CFB012104460123F0E703AB7A
:105AD00000932A460F4B04A93846AFF30080421CBE
