:020000040800F2
:1000000000000320D916000821110008271100085C
:100010002D110008331100083911000800000000FC
:100020000000000000000000000000003F11000878
:100030004D110008000000005B1100086911000864
:100040002917000829170008291700082917000890
:100050002917000829170008291700082917000880
:100060002917000829170008291700082917000870
:100070002917000829170008291700082917000860
:100080002917000829170008291700082917000850
:100090002917000829170008291700082917000840
:1000A0002917000829170008291700082917000830
:1000B0002917000829170008291700082917000820
:1000C0002917000829170008291700082917000810
:1000D0002917000829170008291700082917000800
:1000E00029170008291700082917000829170008F0
:1000F00029170008291700082917000829170008E0
:1001000029170008291700082917000829170008CF
:100110002917000829170008751100082917000879
:1001200029170008291700082917000829170008AF
:10013000291700082917000829170008291700089F
:10014000291700082917000829170008291700088F
:100150002917000829170008291700088911000825
:10016000291700082917000829170008291700086F
:1001700029170008291700082917000800000000A7
:10018000291700082917000829170008291700084F
:10019000291700082917000829170008291700083F
:0C01A0000000000000000000291700080B
:1001AC0010B5054C237833B9044B13B10448AFF3A5
:1001BC0000800123237010BD780000200000000097
:1001CC00444A000808B5034B1BB103490348AFF37D
:1001DC00008008BD000000007C000020444A00089C
:1001EC0053B94AB9002908BF00281CBF4FF0FF3192
:1001FC004FF0FF3000F074B9ADF1080C6DE904CE8E
:10020C0000F006F8DDF804E0DDE9022304B07047E5
:10021C002DE9F047089D04468E46002B4DD18A42AD
:10022C00944669D9B2FA82F252B101FA02F3C2F1E0
:10023C00200120FA01F10CFA02FC41EA030E944071
:10024C004FEA1C48210CBEFBF8F61FFA8CF708FB92
:10025C0016E341EA034306FB07F199420AD91CEB6A
:10026C00030306F1FF3080F01F81994240F21C819C
:10027C00023E63445B1AA4B2B3FBF8F008FB1033E4
:10028C0044EA034400FB07F7A7420AD91CEB040419
:10029C0000F1FF3380F00A81A74240F207816444E9
:1002AC00023840EA0640E41B00261DB1D44000236E
:1002BC00C5E900433146BDE8F0878B4209D9002DD2
:1002CC0000F0EF800026C5E9000130463146BDE85C
:1002DC00F087B3FA83F6002E4AD18B4202D38242C6
:1002EC0000F2F980841A61EB030301209E46002D75
:1002FC00E0D0C5E9004EDDE702B9FFDEB2FA82F2CA
:10030C00002A40F09280A1EB0C014FEA1C471FFA27
:10031C008CFE0126200CB1FBF7F307FB131140EA0E
:10032C0001410EFB03F0884208D91CEB010103F1DB
:10033C00FF3802D2884200F2CB804346091AA4B29D
:10034C00B1FBF7F007FB101144EA01440EFB00FE71
:10035C00A64508D91CEB040400F1FF3102D2A645D6
:10036C0000F2BB800846A4EB0E0440EA03409CE775
:10037C00C6F12007B34022FA07FC4CEA030C20FA22
:10038C0007F401FA06F31C43F9404FEA1C4900FA42
:10039C0006F3B1FBF9F8200C1FFA8CFE09FB1811BF
:1003AC0040EA014108FB0EF0884202FA06F20BD932
:1003BC001CEB010108F1FF3A80F08880884240F282
:1003CC008580A8F102086144091AA4B2B1FBF9F0C6
:1003DC0009FB101144EA014100FB0EFE8E4508D9C1
:1003EC001CEB010100F1FF346CD28E456AD9023846
:1003FC00614440EA0840A0FB0294A1EB0E01A1422B
:10040C00C846A64656D353D05DB1B3EB080261EB98
:10041C000E0101FA07F722FA06F3F1401F43C5E972
:10042C00007100263146BDE8F087C2F12003D840A8
:10043C000CFA02FC21FA03F3914001434FEA1C47EA
:10044C001FFA8CFEB3FBF7F007FB10360B0C43EADC
:10045C00064300FB0EF69E4204FA02F408D91CEB8C
:10046C00030300F1FF382FD29E422DD9023863448A
:10047C009B1B89B2B3FBF7F607FB163341EA03412A
:10048C0006FB0EF38B4208D91CEB010106F1FF3879
:10049C0016D28B4214D9023E6144C91A46EA004670
:1004AC0038E72E46284605E70646E3E61846F8E602
:1004BC004B45A9D2B9EB020864EB0C0E0138A3E74B
:1004CC004646EAE7204694E74046D1E7D0467BE72C
:1004DC00023B614432E7304609E76444023842E7A4
:1004EC00704700BF80B584B000AF0346FB800C2082
:1004FC0004F0E0F90346FB60FB88184604F0DAF9D7
:10050C0003461A46FB689A60FB68FA88DA80F8683A
:10051C0000F086F8FB6818461037BD4680BD80B5E4
:10052C0082B000AF78600B46FB707B689A887B6862
:10053C00DB889A421FD200F0E7F87B689B687A68E8
:10054C0012881344FA781A707B681B8801337A6816
:10055C00D28893FBF2F101FB02F29B1A9AB27B68F0
:10056C001A807B689B8801339AB27B689A8000F072
:10057C00DFF8012300E0002318460837BD4680BD94
:10058C0080B586B000AFF860B9601346FB800023DD
:10059C00FB820FE0FB8ABA6813441B781946F86893
:1005AC00FFF7BDFF0346002B01D1FB8A07E0FB8A56
:1005BC000133FB82FA8AFB889A42EBD3FB8A1846FA
:1005CC001837BD4680BD80B584B000AF78607B68BD
:1005DC009B88002B01D100231EE000F095F87B686E
:1005EC009B88013B9AB27B689A807B689B687A688F
:1005FC00528813441B78FB737B685B8801337A68E1
:10060C00D28893FBF2F101FB02F29B1A9AB27B683F
:10061C005A8000F08DF8FB7B18461037BD4680BD24
:10062C0080B582B000AF786000F06EF87B68002275
:10063C009A807B6800221A807B6800225A8000F026
:10064C0077F800BF0837BD4680BD80B483B000AFDB
:10065C0078607B689B88002B14BF01230023DBB2DE
:10066C0018460C37BD465DF8047B704790B587B0D3
:10067C0000AFF860B9601346FB80F868FFF7E5FF40
:10068C000346002B01D100231DE0F86800F01FF891
:10069C000346FB82FA8AFB889A4201D9FB88FB82CB
:1006AC000023BB820AE0BB8ABA68D418F868FFF74B
:1006BC008AFF03462370BB8A0133BB82BA8AFB8A4A
:1006CC009A42F0D3FB8A18461C37BD4690BD80B4C5
:1006DC0083B000AF78607B689B8818460C37BD46AA
:1006EC005DF8047B704780B483B000AF78607B68A2
:1006FC00DA887B689B88D31A9BB218460C37BD46A8
:10070C005DF8047B7047000080B483B000AFEFF35A
:10071C0010837B607B68054A136072B600BF00BF14
:10072C000C37BD465DF8047B704700BF9400002079
:10073C0080B483B000AF064B1B687B607B6883F38F
:10074C00108800BF00BF0C37BD465DF8047B7047B6
:10075C009400002080B483B000AF78600B467B809F
:10076C00074A7B681360074A7B881380064B00227C
:10077C001A6000BF0C37BD465DF8047B704700BFA4
:10078C00980000209C000020A000002080B483B0C2
:10079C0000AF7860044A7B68136000BF0C37BD461D
:1007AC005DF8047B704700BFA000002080B582B0CC
:1007BC0000AF01F04FF8786000F02EF80346FB70A4
:1007CC00FB78002B14D1124B1B68002B10D0104B54
:1007DC001B687A68D31A312B0AD90D4B00221A6088
:1007EC000C4B1B68002B0ED00A4B1B6898470AE079
:1007FC00FB78002B07D0064B1B68002B03D1044A57
:10080C007B681360FFE700BF0837BD4680BD00BFA3
:10081C00A4000020A000002080B500AF074B1B688F
:10082C00074A12881146184601F0B4FE0346002B05
:10083C000CBF01230023DBB2184680BD98000020BA
:10084C009C000020B0B586B000AFF860B9601346CC
:10085C00FB8001F041FA0023FB8212E0FA8AFB686C
:10086C00D118FB8ABA6813441B78DBB200221C46F1
:10087C00154622462B46002001F0DAF9FB8A01339B
:10088C00FB82FA8AFB889A42E8D301F047FA00BF50
:10089C001837BD46B0BDB0B582B000AF78603960D6
:1008AC0001F01AFA3B6800221C46154622462B46DC
:1008BC007968022001F0BCF901F030FA00BF08376A
:1008CC00BD46B0BD80B483B000AF78607B681B7848
:1008DC00DBB218460C37BD465DF8047B7047000050
:1008EC0080B584B000AF786001F0F6F90B4B0022B4
:1008FC001A600A4A7B689360084B0122DA60074B46
:10090C0002221A6107F10C031946044801F056FB48
:10091C0001F004FA00BF1037BD4680BDA8000020CE
:10092C0080B588B000AF07F10C0300221A605A6042
:10093C009A60DA601A610023BB601C4B1B6B1B4A6C
:10094C0043F004031363194B1B6B03F00403BB60EC
:10095C00BB6800237B60154B1B6B144A43F00103EF
:10096C001363124B1B6B03F001037B607B6800234A
:10097C003B600E4B1B6B0D4A43F0020313630B4B96
:10098C001B6B03F002033B603B684FF40043FB60BE
:10099C0000233B6100237B6107F10C0319460448DB
:1009AC0001F04CFC00BF2037BD4680BD0038024032
:1009BC000008024080B485B000AF78600B46FB7035
:1009CC000023FB7323E0FB7B7A6813441B78392BE1
:1009DC0010D8FB7B7A6813441B782F2B0AD9FB7B2E
:1009EC007A6813441A78FB7B79680B44303AD2B29C
:1009FC001A7009E0FB7B7A6813441A78FB7B7968E0
:100A0C000B44373AD2B21A70FB7B0133FB73FA7B7F
:100A1C00FB789A42D7D300BF00BF1437BD465DF8B0
:100A2C00047B704790B587B000AFF860B96013468F
:100A3C00FB800023FB8218E0BB681B881A46B7F9C1
:100A4C001630134403F1016303F50023B7F91620A4
:100A5C00F9688C181846FFF735FF03462370B7F971
:100A6C0016309BB201339BB2FB82B7F91620FB8880
:100A7C009A42E1DBBB681A88FB8813449AB2BB68C4
:100A8C001A8000BF1C37BD4690BD000080B584B0F5
:100A9C0000AF0346FB8000237B810023FB8183E1B5
:100AAC007B8903F1016303F500231846FFF70AFF66
:100ABC0003463A2B03D07B89002B40F07181B7F9A8
:100ACC000E309BB201339BB2FB817B8901339BB20D
:100ADC007B8107F10A03082219467648FFF7A2FF2B
:100AEC0008217448FFF766FF724B5B781A46714B0E
:100AFC001B781B011344DBB25B00DAB26E4B1A702D
:100B0C006C4B5B799AB26B4BDB7899B2694B9B78E7
:100B1C009BB21B019BB20B449BB21B0199B2654B60
:100B2C001B799BB20B449BB21B019BB213449AB230
:100B3C00624B1A805F4BDA795E4B9B791B01DBB2FF
:100B4C001344DAB25E4B1A705B4B1B785B08DAB25B
:100B5C005A4B1B88DBB21344DAB2584B1B881B0A66
:100B6C009BB2DBB21344DAB2554B1B781344DAB2A6
:100B7C00544B1A70524B1B78002B40F0AD806BE03D
:100B8C0007F10A03082219464A48FFF74BFF0821D0
:100B9C004848FFF70FFF00237B7324E07B7B454A1B
:100BAC00D25C7B7B1201D1B2424AD1547B7B414A4D
:100BBC00D15C7B7B01333F4AD25C7B7B0A43D1B255
:100BCC003C4AD1547B7B3B4AD35C1A467B7B9B00D3
:100BDC0002FA03F31A463C4B1B6813433A4A136060
:100BEC007B7B02337B737B7B072BD7D9334B1B88E7
:100BFC001A46364B1B681344334A12681146184682
:100C0C00FFF749FE304B1B68DAB22F4B1B681B0AEF
:100C1C00DBB21344DAB22C4B1B681B0CDBB2134453
:100C2C00DAB2294B1B681B0EDBB21344DAB2254B2C
:100C3C001B781344DAB2234B1A701F4B1B78083BFA
:100C4C00DAB21D4B1A701D4B1B8804339AB21B4B26
:100C5C001A801D4B00221A60174B1B78002B8FD16A
:100C6C00184B1B785B42DAB2164B1A7007F10A0369
:100C7C00022219460F48FFF7D5FE02210D48FFF757
:100C8C0099FE0C4B5A780B4B1B781B01DBB21344AF
:100C9C00DAB20F4B1A700B4B1A780D4B1B789A4229
:100CAC0003D014210B4800F01BFC064B00221A70D9
:100CBC0076E000BFD0000020C0000020C40000205F
:100CCC00C1000020CC000020C8000020BC00002087
:100CDC00C20000205C4A0008394B1B78042B5BD106
:100CEC0007F10A03042219463648FFF79BFE04213C
:100CFC003448FFF75FFE334B1B781A07314B5B7898
:100D0C001B061A432F4B9B781B051A432D4BDB7884
:100D1C001B0413431A462C4B1A602A4B1A78294B86
:100D2C009B781344DBB21B01DAB2264B5B7813447D
:100D3C00DAB2244BDB781344DAB2244B1B7813441D
:100D4C00DAB2224B1A70214B1B785B42DAB21F4B82
:100D5C001A7007F10A03022219461A48FFF762FEBD
:100D6C0002211848FFF726FE164B5A78154B1B78B4
:100D7C001B01DBB21344DAB2154B1A70134B1A7801
:100D8C00134B1B789A4203D01421124800F0A8FB95
:100D9C000E4B00221A7003E0094B1B78012B09D073
:100DAC007B8901339BB27B817B89FA889A423FF61F
:100DBC0077AE00E000BF00BF1037BD4680BD00BF5E
:100DCC00C1000020D0000020BC000020CC0000207E
:100DDC00C2000020744A000880B500AF00F0A0FCEF
:100DEC0000F0A2FB00F0A2F8FFF79AFD00F0FEFA6B
:100DFC0000F016FA00F0AEFB4FF400414148FFF74B
:100E0C00A9FC4148FFF7C2FC0921404800F068FBEF
:100E1C0008E03F4801F0D6FBFFF7C8FC3D4B1B78C0
:100E2C00002B69D000F046FC0346002BF1D01320B8
:100E3C00FFF756FD1420FFF753FD374802F072F907
:100E4C0000F04CFA28E0324801F0BCFB00F012FC38
:100E5C0003461A46314B1A80304B1B884EF66022E3
:100E6C00934219D92D4B1B8819462D4800F00EFCC6
:100E7C002C4B1B6803F1016303F50023274A1288EE
:100E8C0027491846FFF7DEFC244B1B881A46254BD6
:100E9C001B681344234A136000F02CFA0346002B02
:100EAC00D1D000F0E7FB03461A461C4B1A801B4BB3
:100EBC001B88002B19D0194B1B881946184800F0B9
:100ECC00E5FB184B1B6803F1016303F50023134A80
:100EDC00128813491846FFF7B5FC104B1B881A46AD
:100EEC00104B1B6813440F4A13600E4B1B689BB2CC
:100EFC001846FFF7CBFD00E000BF0B4800F078F878
:100F0C00FEE700BF00080240AD1000088C4A000844
:100F1C00D800002000000020F4000120E400012093
:100F2C00E4000020E80001200000160880B594B011
:100F3C0000AF07F1200330220021184603F0C2FC59
:100F4C0007F10C0300221A605A609A60DA601A6189
:100F5C000023BB60244B1B6C234A43F08053136467
:100F6C00214B1B6C03F08053BB60BB6800237B6080
:100F7C001E4B1B6823F440431C4A43F4804313600C
:100F8C001A4B1B6803F440437B607B680A233B626B
:100F9C000123FB6210233B6301237B630023BB63B0
:100FAC0007F12003184601F01DFB0346002B01D06E
:100FBC0000F082F80F23FB6000233B6100237B6170
:100FCC000023BB610023FB6107F10C0300211846D1
:100FDC0001F080FD0346002B01D000F06DF800BF3E
:100FEC005037BD4680BD00BF003802400070004045
:100FFC0080B588B000AF7860254802F003F900F0A6
:10100C00BBFA244B1B6B234A23F004031363214BC1
:10101C001B6B204A23F0080313631E4B1B6B1D4AEA
:10102C0023F0020313631B4B1B6B1A4A23F00103BF
:10103C00136301F02FFF00F095FB174B00221A6091
:10104C00154B00225A60144B00229A600123FB605E
:10105C00FB6883F3108800BF72B600BF0F4A7B6831
:10106C0093607B681B68FB61FB693B613B6983F3A5
:10107C00088800BF7B6804331B68BB61BB697B615C
:10108C0062B600BF7B69984700BF2037BD4680BD64
:10109C00F40001200038024010E000E000ED00E018
:1010AC0080B400AF034B00221A7000BFBD465DF840
:1010BC00047B70470000002080B400AF72B600BF04
:1010CC00FEE7000080B483B000AF00237B60104BC0
:1010DC005B6C0F4A43F4804353640D4B5B6C03F41D
:1010EC0080437B607B6800233B60094B1B6C084A88
:1010FC0043F080531364064B1B6C03F080533B602E
:10110C003B6800BF0C37BD465DF8047B704700BFE1
:10111C000038024080B400AFFEE780B400AFFEE7B9
:10112C0080B400AFFEE780B400AFFEE780B400AF40
:10113C00FEE780B400AF00BFBD465DF8047B70478E
:10114C0080B400AF00BFBD465DF8047B704780B42F
:10115C0000AF00BFBD465DF8047B704780B500AFA3
:10116C0000F064FB00BF80BD80B500AF024802F008
:10117C0078F800BF80BD00BFF400012080B500AF3F
:10118C00024802F07DFC00BF80BD00BF4C01012075
:10119C0080B586B000AF7860144A154BD31A7B61CA
:1011AC007B693B61134B1B68002B02D1114B124A1C
:1011BC001A60104B1A687B6813443A699A4207D23A
:1011CC0003F04EFB03460C221A604FF0FF3309E08C
:1011DC00084B1B68FB60074B1A687B681344054A75
:1011EC001360FB6818461837BD4680BD000003200D
:1011FC0000040000EC000120C801012080B400AF05
:10120C00064BD3F88830054A43F47003C2F8883093
:10121C0000BFBD465DF8047B704700BF00ED00E0E9
:10122C0080B582B000AF3B4600221A605A60154B65
:10123C00154A1A60134B43F67F625A60114B002219
:10124C009A60104B4FF47A72DA600E4B00229A615E
:10125C000C4801F017FF0346002B01D0FFF72CFFC1
:10126C0000233B6000237B603B461946054802F097
:10127C00C9F90346002B01D0FFF71EFF00BF08374A
:10128C00BD4680BDF40001200010004080B584B044
:10129C0000AF78607B681B680E4A934215D100231F
:1012AC00FB600D4B1B6C0C4A43F0100313640A4B90
:1012BC001B6C03F01003FB60FB680022002136203E
:1012CC0000F0D3FB362000F0ECFB00BF1037BD461E
:1012DC0080BD00BF001000400038024080B400AF59
:1012EC00034B00221A7000BFBD465DF8047B7047AB
:1012FC00F000012080B400AF034B1B781846BD46AC
:10130C005DF8047B704700BFF000012080B483B00F
:10131C0000AF78607B681B68054A934202D1054B8D
:10132C0001221A7000BF0C37BD465DF8047B704774
:10133C0000100040F000012080B582B000AF0346E1
:10134C00FB71074AFB791370472000F0AAFB0122BE
:10135C000349044802F033FA00BF0837BD4680BD8C
:10136C003C0101204C01012080B582B000AF7860B7
:10137C007B68044A934201D100F06AF900BF083738
:10138C00BD4680BD4C01012080B500AF472000F068
:10139C0088FB01220249034802F056FA00BF80BDC7
:1013AC003D0101204C01012080B582B000AF786076
:1013BC007B68064A934204D1054B1B78184600F013
:1013CC0015F900BF0837BD4680BD00BF4C01012098
:1013DC003D01012080B500AF034802F065FA4720BB
:1013EC0000F06DFB00BF80BD4C01012080B500AF4B
:1013FC00114B124A1A60104B4FF416525A600E4B96
:10140C0000229A600C4B0022DA600B4B00221A610E
:10141C00094B0C225A61084B00229A61064B0022A0
:10142C00DA61054802F07EF90346002B01D0FFF784
:10143C0043FE00BF80BD00BF4C01012000140140E1
:10144C0080B58AB000AF786007F1140300221A60EF
:10145C005A609A60DA601A617B681B681D4A934275
:10146C0033D100233B611C4B5B6C1B4A43F02003C4
:10147C005364194B5B6C03F020033B613B69002305
:10148C00FB60154B1B6B144A43F004031363124BA4
:10149C001B6B03F00403FB60FB68C0237B6102231E
:1014AC00BB610023FB6103233B6208237B6207F1D2
:1014BC0014031946094800F0C1FE00220021472000
:1014CC0000F0D3FA472000F0ECFA00BF2837BD46F5
:1014DC0080BD00BF001401400038024000080240EB
:1014EC0080B584B000AF78600B467B807B68002BA6
:1014FC0001D1002310E00A4B1B687A8879681846E2
:10150C00FFF73EF80346FB81064B1B78DBB2002B42
:10151C0001D000F043F8FB8918461037BD4680BD5A
:10152C00400101204801012080B500AF4020FEF7AA
:10153C00D9FF0346054A13604FF6FF70FEF7D2FF42
:10154C000346034A136000BF80BD00BF4001012069
:10155C004401012080B500AF054B01221A70054BE8
:10156C0001221A7000F01AF800F012F800BF80BDCA
:10157C00480101200800002080B500AF034B002279
:10158C001A70FFF727FF00BF80BD00BF4801012084
:10159C0080B500AFFFF7F8FE00BF80BD80B582B00C
:1015AC0000AF104B1B78DBB2002B16D00E4B1B6818
:1015BC001846FFF74AF80346002B0FD0094B0022C0
:1015CC001A70094B1B681846FEF7FDFF0346FB71AA
:1015DC00FB791846FFF7B0FE00E000BF0837BD46A8
:1015EC0080BD00BF080000204001012080B582B002
:1015FC0000AF0346FB71124B1B681846FFF773F8DC
:10160C000346002B06D00E4B1B68FA791146184680
:10161C00FEF785FF00F04EF80346002B02D1094B74
:10162C0001221A70084B00225A62084B1B78DBB25D
:10163C00002B01D0FFF7ACFF00BF0837BD4680BDC3
:10164C004401012049010120001000404801012003
:10165C0080B500AF054B01221A70054B1B78DBB22D
:10166C00002B01D0FFF79AFF00BF80BD08000020BF
:10167C004801012080B500AF034B1B681846FFF7EB
:10168C0026F80346184680BD4401012080B582B07F
:10169C0000AF78600B467B80054B1B687A887968B5
:1016AC001846FEF7E3FF034618460837BD4680BDD3
:1016BC004401012080B400AF034B1B781846BD4693
:1016CC005DF8047B704700BF49010120DFF834D07E
:1016DC000D480E490E4A002302E0D458C45004337E
:1016EC00C4188C42F9D30B4A0B4C002301E0136055
:1016FC000432A242FBD3FFF781FD03F0B7F8FFF7EA
:10170C006BFB7047000003200000002078000020D5
:10171C00C04A000878000020C4010120FEE7000048
:10172C0080B500AF0E4B1B680D4A43F40073136079
:10173C000B4B1B680A4A43F480631360084B1B680D
:10174C00074A43F480731360032000F083F90F20E1
:10175C0000F03CF8FFF7B6FC0023184680BD00BF34
:10176C00003C024080B500AF134B4FF0FF321A62C1
:10177C00114B00221A62104B4FF0FF325A620E4B83
:10178C0000225A620C4B4FF0FF321A610A4B0022B6
:10179C001A61094B4FF0FF325A61074B00225A6114
:1017AC00054B4FF0FF329A61034B00229A6100F017
:1017BC0005F80023184680BD0038024080B400AF05
:1017CC0000BFBD465DF8047B7047000080B582B059
:1017DC0000AF7860124B1A68124B1B7819464FF405
:1017EC007A73B3FBF1F3B2FBF3F3184600F075F91F
:1017FC000346002B01D001230EE07B680F2B0AD887
:10180C00002279684FF0FF3000F02FF9064A7B6810
:10181C001360002300E0012318460837BD4680BD45
:10182C0004000020100000200C00002080B400AF49
:10183C00064B1B781A46064B1B681344044A13606C
:10184C0000BFBD465DF8047B704700BF1000002050
:10185C009001012080B400AF034B1B681846BD46B5
:10186C005DF8047B704700BF9001012080B485B007
:10187C0000AF78607B6803F00703FB600C4BDB6800
:10188C00BB60BA684FF6FF031340BB60FB681A02DB
:10189C00BB68134343F0BF6343F40033BB60044A9B
:1018AC00BB68D36000BF1437BD465DF8047B70473E
:1018BC0000ED00E080B400AF044BDB681B0A03F0C2
:1018CC0007031846BD465DF8047B704700ED00E049
:1018DC0080B483B000AF0346FB7197F90730002B3F
:1018EC000BDBFB7903F01F02074997F907305B0903
:1018FC00012000FA02F241F8232000BF0C37BD464C
:10190C005DF8047B704700BF00E100E080B483B059
:10191C0000AF0346FB7197F90730002B12DBFB7904
:10192C0003F01F020A4997F907305B09012000FAFE
:10193C0002F2203341F82320BFF34F8F00BFBFF3D7
:10194C006F8F00BF00BF0C37BD465DF8047B70473E
:10195C0000E100E080B483B000AF03463960FB7156
:10196C0097F90730002B0ADB3B68DAB20C4997F980
:10197C0007301201D2B20B4483F800230AE03B6813
:10198C00DAB20849FB7903F00F03043B1201D2B21F
:10199C000B441A7600BF0C37BD465DF8047B7047CC
:1019AC0000E100E000ED00E080B489B000AFF86029
:1019BC00B9607A60FB6803F00703FB61FB69C3F154
:1019CC000703042B28BF0423BB61FB690433062BDC
:1019DC0002D9FB69033B00E000237B614FF0FF322F
:1019EC00BB6902FA03F3DA43BB681A407B699A407D
:1019FC004FF0FF317B6901FA03F3D9437B680B404D
:101A0C00134318462437BD465DF8047B704700002D
:101A1C0080B582B000AF78607B68013BB3F1807F0A
:101A2C0001D301230FE00A4A7B68013B53600F216D
:101A3C004FF0FF30FFF78EFF054B00229A60044BEE
:101A4C0007221A60002318460837BD4680BD00BF28
:101A5C0010E000E080B582B000AF78607868FFF7E6
:101A6C0005FF00BF0837BD4680BD80B586B000AF0E
:101A7C000346B9607A60FB7300237B61FFF71AFFA2
:101A8C0078617A68B9687869FFF78EFF024697F932
:101A9C000F3011461846FFF75DFF00BF1837BD46E3
:101AAC0080BD80B582B000AF0346FB7197F907305B
:101ABC001846FFF70DFF00BF0837BD4680BD80B547
:101ACC0082B000AF0346FB7197F907301846FFF759
:101ADC001DFF00BF0837BD4680BD80B582B000AF8A
:101AEC0078607868FFF794FF034618460837BD46C0
:101AFC0080BD80B584B000AF78607B689B6DFB6067
:101B0C00FFF7A8FEB8607B6893F83530DBB2022B88
:101B1C0008D07B6880225A657B68002283F83420C9
:101B2C00012352E07B681B681A687B681B6822F0F3
:101B3C0016021A607B681B685A697B681B6822F066
:101B4C0080025A617B681B6C002B03D17B689B6CF9
:101B5C00002B07D07B681B681A687B681B6822F017
:101B6C0008021A607B681B681A687B681B6822F085
:101B7C0001021A6013E0FFF76DFE0246BB68D31A30
:101B8C00052B0CD97B6820225A657B68032283F8CD
:101B9C0035207B68002283F83420032315E07B6812
:101BAC001B681B6803F00103002BE4D17B68DB6D21
:101BBC003F229A40FB689A607B68012283F83520AB
:101BCC007B68002283F83420002318461037BD466A
:101BDC0080BD80B483B000AF78607B6893F83530FB
:101BEC00DBB2022B04D07B6880225A6501230CE007
:101BFC007B68052283F835207B681B681A687B6834
:101C0C001B6822F001021A60002318460C37BD46EF
:101C1C005DF8047B704780B483B000AF78607B685C
:101C2C005B6D18460C37BD465DF8047B70470000B1
:101C3C0080B586B000AFF860B960C7E90023012316
:101C4C00FB75234B1B7E012B01D102233BE0204B68
:101C5C0001221A764CF2503000F070F80346FB75F6
:101C6C00FB7D002B2BD1FB68002B05D13B78194653
:101C7C00B86800F01BF916E0FB68012B05D13B8816
:101C8C001946B86800F0EEF80DE0FB68022B05D1A0
:101C9C003B681946B86800F0C3F804E0D7E90023A4
:101CAC00B86800F08BF84CF2503000F047F803465F
:101CBC00FB75084B1B69074A23F001031361044BA6
:101CCC0000221A76FB7D18461837BD4680BD00BF32
:101CDC0094010120003C024080B483B000AF00238B
:101CEC00FB710B4B1B69002B0BDA094B094A5A6031
:101CFC00074B094A5A60064B1B69002B01DA01237A
:101D0C00FB71FB7918460C37BD465DF8047B7047B8
:101D1C00003C024023016745AB89EFCD80B400AF96
:101D2C00054B1B69044A43F000431361002318461A
:101D3C00BD465DF8047B7047003C024080B584B022
:101D4C0000AF78600023FB601A4B0022DA61FFF7CA
:101D5C0081FDF86010E07B68B3F1FF3F0CD07B682D
:101D6C00002B07D0FFF776FD0246FB68D31A7A6882
:101D7C009A4201D2032319E00F4BDB6803F4803342
:101D8C00002BE8D10C4BDB6803F00103002B02D0D5
:101D9C00094B0122DA60084BDB6803F4F973002B62
:101DAC0003D000F0A5F8012300E0002318461037FB
:101DBC00BD4680BD94010120003C024080B485B03A
:101DCC0000AFF860C7E90023144B1B69134A23F4D6
:101DDC0040731361114B1B69104A43F44073136138
:101DEC000E4B1B690D4A43F001031361FB683A6803
:101DFC001A60BFF36F8F00BFD7E900014FF00002EC
:101E0C004FF000030A000023F968043113460B60FD
:101E1C0000BF1437BD465DF8047B7047003C0240A0
:101E2C0080B483B000AF786039600D4B1B690C4AED
:101E3C0023F4407313610A4B1B69094A43F4007382
:101E4C001361074B1B69064A43F0010313617B685E
:101E5C003A681A6000BF0C37BD465DF8047B7047CA
:101E6C00003C024080B483B000AF78600B467B80AE
:101E7C000D4B1B690C4A23F4407313610A4B1B690D
:101E8C00094A43F480731361074B1B69064A43F0FC
:101E9C00010313617B687A881A8000BF0C37BD463A
:101EAC005DF8047B704700BF003C024080B483B0F7
:101EBC0000AF78600B46FB700C4B1B690B4A23F48C
:101ECC0040731361094B094A1B691361074B1B696A
:101EDC00064A43F0010313617B68FA781A7000BF5D
:101EEC000C37BD465DF8047B704700BF003C0240D8
:101EFC0080B400AF2F4BDB6803F01003002B08D02D
:101F0C002D4BDB6943F010032B4AD361294B102274
:101F1C00DA60284BDB6803F02003002B08D0264B3B
:101F2C00DB6943F00803244AD361224B2022DA6098
:101F3C00204BDB6803F04003002B08D01E4BDB6901
:101F4C0043F004031C4AD3611A4B4022DA60194B4C
:101F5C00DB6803F08003002B08D0174BDB6943F0E0
:101F6C000203154AD361134B8022DA60114BDB68F4
:101F7C0003F48073002B09D00F4BDB6943F0010392
:101F8C000D4AD3610B4B4FF48072DA60094BDB685E
:101F9C0003F00203002B08D0074BDB6943F020034E
:101FAC00054AD361034B0222DA6000BFBD465DF8DF
:101FBC00047B7047003C02409401012080B584B042
:101FCC0000AF786039600123FB730023BB60324B98
:101FDC001B7E012B01D102235AE02F4B01221A76D2
:101FEC004CF25030FFF7AAFE0346FB73FB7B002B31
:101FFC004AD13B684FF0FF321A607B681B68012B9B
:10200C0017D17B681B69DAB27B685B68194610468E
:10201C0000F046F84CF25030FFF790FE0346FB738D
:10202C001E4B1B691D4A23F4004323F00403136168
:10203C0028E07B689B68BB601CE07B681B69DBB29B
:10204C001946B86800F066F84CF25030FFF776FE8F
:10205C000346FB73114B1B69104A23F0FA031361FF
:10206C00FB7B002B03D03B68BA681A600AE0BB68A4
:10207C000133BB607B68DA687B689B681344BA6881
:10208C009A42DAD300F094F8034B00221A76FB7BC9
:10209C0018461037BD4680BD94010120003C02401B
:1020AC0080B483B000AF03463960FB71184B1B69D9
:1020BC00174A23F4407313613B68032B08D1144B6C
:1020CC001B69134A43F4004343F0040313610FE00C
:1020DC003B68012B06D10E4B1B690D4A43F00403E0
:1020EC00136105E00A4B1B69094A43F40043136171
:1020FC00074B1A69FB791B021343054A43F48033DF
:10210C00136100BF0C37BD465DF8047B704700BF00
:10211C00003C024080B485B000AF78600B46FB7089
:10212C000023FB60FB78002B02D10023FB6010E046
:10213C00FB78012B03D14FF48073FB6009E0FB7833
:10214C00022B03D14FF40073FB6002E04FF4407399
:10215C00FB607B680B2B02D97B6804337B60134BD1
:10216C001B69124A23F440731361104B1A690F490F
:10217C00FB6813430B610D4B1B690C4A23F0F803EE
:10218C0013610A4B1A697B68DB001343074A43F05F
:10219C0002031361054B1B69044A43F4803313613A
:1021AC0000BF1437BD465DF8047B7047003C02400D
:1021BC0080B400AF204B1B6803F40073002B17D0C6
:1021CC001D4B1B681C4A23F4007313601A4B1B68CD
:1021DC00194A43F400631360174B1B68164A23F427
:1021EC0000631360144B1B68134A43F400731360B1
:1021FC00114B1B6803F48063002B17D00E4B1B682C
:10220C000D4A23F4806313600B4B1B680A4A43F49A
:10221C0080531360084B1B68074A23F480531360E8
:10222C00054B1B68044A43F48063136000BFBD4632
:10223C005DF8047B704700BF003C024080B489B05D
:10224C0000AF7860396000237B6100233B61002381
:10225C00BB610023FB6177E10122FB6902FA03F306
:10226C007B613B681B687A6913403B613A697B6907
:10227C009A4240F066813B685B6803F00303012BD4
:10228C0005D03B685B6803F00303022B30D17B68FD
:10229C009B68BB61FB695B00032202FA03F3DB431F
:1022AC00BA691340BB613B68DA68FB695B0002FAF0
:1022BC0003F3BA691343BB617B68BA699A607B68A4
:1022CC005B68BB610122FB6902FA03F3DB43BA6969
:1022DC001340BB613B685B681B0903F00102FB699F
:1022EC0002FA03F3BA691343BB617B68BA695A609B
:1022FC003B685B6803F00303032B17D07B68DB6838
:10230C00BB61FB695B00032202FA03F3DB43BA698E
:10231C001340BB613B689A68FB695B0002FA03F3EC
:10232C00BA691343BB617B68BA69DA603B685B6866
:10233C0003F00303022B23D1FB69DA087B68083214
:10234C0053F82230BB61FB6903F007039B000F229B
:10235C0002FA03F3DB43BA691340BB613B681A69A9
:10236C00FB6903F007039B0002FA03F3BA691343FA
:10237C00BB61FB69DA087B680832B96943F8221043
:10238C007B681B68BB61FB695B00032202FA03F3E9
:10239C00DB43BA691340BB613B685B6803F0030223
:1023AC00FB695B0002FA03F3BA691343BB617B68F8
:1023BC00BA691A603B685B6803F44033002B00F089
:1023CC00C0800023FB60664B5B6C654A43F4804322
:1023DC005364634B5B6C03F48043FB60FB68614AA2
:1023EC00FB699B08023352F82330BB61FB6903F095
:1023FC0003039B000F2202FA03F3DB43BA69134079
:10240C00BB617B68584A934237D07B68574A9342EA
:10241C0031D07B68564A93422BD07B68554A934205
:10242C0025D07B68544A93421FD07B68534A934211
:10243C0019D07B68524A934213D07B68514A93421D
:10244C000DD07B68504A934207D07B684F4A934229
:10245C0001D1092312E00A2310E008230EE0072320
:10246C000CE006230AE0052308E0042306E003231E
:10247C0004E0022302E0012300E00023FA6902F0E9
:10248C00030292009340BA691343BB613549FB695F
:10249C009B080233BA6941F823203D4B9B68BB6112
:1024AC003B69DB43BA691340BB613B685B6803F46F
:1024BC008013002B03D0BA693B691343BB61344AC8
:1024CC00BB699360324BDB68BB613B69DB43BA6928
:1024DC001340BB613B685B6803F40013002B03D013
:1024EC00BA693B691343BB61294ABB69D360284B6A
:1024FC005B68BB613B69DB43BA691340BB613B68FA
:10250C005B6803F40033002B03D0BA693B691343B7
:10251C00BB611F4ABB6953601D4B1B68BB613B69A8
:10252C00DB43BA691340BB613B685B6803F48033DF
:10253C00002B03D0BA693B691343BB61144ABB69D6
:10254C001360FB690133FB61FB690F2B7FF684AED3
:10255C0000BF00BF2437BD465DF8047B704700BF49
:10256C0000380240003801400000024000040240E4
:10257C0000080240000C024000100240001402400F
:10258C0000180240001C02400020024000240240BF
:10259C00003C014080B485B000AF78600B467B8076
:1025AC007B681A697B881340002B02D00123FB73D4
:1025BC0001E00023FB73FB7B18461437BD465DF826
:1025CC00047B704780B483B000AF78607B681B6875
:1025DC004AF6AA221A60002318460C37BD465DF84D
:1025EC00047B704780B586B000AF78607B68002BA9
:1025FC0001D1012367E27B681B6803F00103002B08
:10260C0075D0884B9B6803F00C03042B0CD0854BC6
:10261C009B6803F00C03082B12D1824B5B6803F40C
:10262C008003B3F5800F0BD17E4B1B6803F4003392
:10263C00002B5BD07B685B68002B57D1012342E2F7
:10264C007B685B68B3F5803F06D1764B1B68754A97
:10265C0043F4803313601DE07B685B68B3F5A02FF7
:10266C000CD1704B1B686F4A43F4802313606D4B85
:10267C001B686C4A43F4803313600BE0694B1B6896
:10268C00684A23F480331360664B1B68654A23F455
:10269C00802313607B685B68002B13D0FFF7DAF89C
:1026AC00386108E0FFF7D6F802463B69D31A642B71
:1026BC0001D9032307E25B4B1B6803F40033002BA7
:1026CC00F0D014E0FFF7C6F8386108E0FFF7C2F865
:1026DC0002463B69D31A642B01D90323F3E1514B16
:1026EC001B6803F40033002BF0D100E000BF7B68C3
:1026FC001B6803F00203002B63D04A4B9B6803F06A
:10270C000C03002B0BD0474B9B6803F00C03082BDE
:10271C001CD1444B5B6803F48003002B16D1414B56
:10272C001B6803F00203002B05D07B68DB68012BD0
:10273C0001D00123C7E13B4B1B6823F0F8027B68F7
:10274C001B69DB00374913430B603AE07B68DB689D
:10275C00002B20D0344B01221A60FFF77BF8386134
:10276C0008E0FFF777F802463B69D31A022B01D930
:10277C000323A8E12B4B1B6803F00203002BF0D0C2
:10278C00284B1B6823F0F8027B681B69DB0025498A
:10279C0013430B6015E0244B00221A60FFF75AF824
:1027AC00386108E0FFF756F802463B69D31A022B52
:1027BC0001D9032387E11B4B1B6803F00203002B99
:1027CC00F0D17B681B6803F00803002B36D07B68C4
:1027DC005B69002B16D0154B01221A60FFF73AF8F3
:1027EC00386108E0FFF736F802463B69D31A022B32
:1027FC0001D9032367E10B4B5B6F03F00203002B42
:10280C00F0D01BE0094B00221A60FFF723F8386167
:10281C000EE0FFF71FF802463B69D31A022B07D9CB
:10282C00032350E10038024000004742800E47422B
:10283C00884B5B6F03F00203002BEAD17B681B68AB
:10284C0003F00403002B00F097800023FB75814BF1
:10285C001B6C03F08053002B0FD10023BB607D4B0E
:10286C001B6C7C4A43F0805313647A4B1B6C03F053
:10287C008053BB60BB680123FB75774B1B6803F46B
:10288C008073002B18D1744B1B68734A43F480730C
:10289C001360FEF7DFFF386108E0FEF7DBFF02464E
:1028AC003B69D31A022B01D903230CE16A4B1B6839
:1028BC0003F48073002BF0D07B689B68012B06D14E
:1028CC00644B1B6F634A43F0010313671CE07B6886
:1028DC009B68052B0CD15F4B1B6F5E4A43F00403C6
:1028EC0013675C4B1B6F5B4A43F0010313670BE0F0
:1028FC00584B1B6F574A23F001031367554B1B6F43
:10290C00544A23F0040313677B689B68002B15D093
:10291C00FEF7A0FF38610AE0FEF79CFF02463B6918
:10292C00D31A41F28832934201D90323CBE0494BAD
:10293C001B6F03F00203002BEED014E0FEF78AFFAE
:10294C0038610AE0FEF786FF02463B69D31A41F272
:10295C008832934201D90323B5E03E4B1B6F03F041
:10296C000203002BEED1FB7D012B05D1394B1B6CE7
:10297C00384A23F0805313647B689B69002B00F06A
:10298C00A180344B9B6803F00C03082B5CD07B6854
:10299C009B69022B41D1314B00221A60FEF75AFF82
:1029AC00386108E0FEF756FF02463B69D31A022B4A
:1029BC0001D9032387E0274B1B6803F00073002B1E
:1029CC00F0D17B68DA697B681B6A1A437B685B6AA7
:1029DC009B011A437B689B6A5B08013B1B041A43EF
:1029EC007B68DB6A1B061B4913434B601B4B0122A4
:1029FC001A60FEF72FFF386108E0FEF72BFF024646
:102A0C003B69D31A022B01D903235CE0114B1B68E1
:102A1C0003F00073002BF0D054E0104B00221A602E
:102A2C00FEF718FF386108E0FEF714FF02463B6919
:102A3C00D31A022B01D9032345E0064B1B6803F084
:102A4C000073002BF0D13DE07B689B69012B07D113
:102A5C00012338E00038024000700040600047421B
:102A6C001B4B5B68FB607B689B69012B28D0FB6868
:102A7C0003F480027B68DB699A4221D1FB6803F086
:102A8C003F027B681B6A9A421AD1FA6847F6C073F8
:102A9C0013407A68526A9201934211D1FB6803F495
:102AAC0040327B689B6A5B08013B1B049A4207D14E
:102ABC00FB6803F070627B68DB6A1B069A4201D0EC
:102ACC00012300E0002318461837BD4680BD00BF27
:102ADC000038024080B584B000AF786039607B6804
:102AEC00002B01D10123CCE0684B1B6803F00F03D2
:102AFC003A689A420CD9654B3A68D2B21A70634B59
:102B0C001B6803F00F033A689A4201D00123B8E026
:102B1C007B681B6803F00203002B20D07B681B68CA
:102B2C0003F00403002B05D0594B9B68584A43F41F
:102B3C00E05393607B681B6803F00803002B05D0FF
:102B4C00534B9B68524A43F460439360504B9B68D1
:102B5C0023F0F0027B689B684D4913438B607B68C4
:102B6C001B6803F00103002B44D07B685B68012BCE
:102B7C0007D1474B1B6803F40033002B19D10123F9
:102B8C007FE07B685B68022B03D07B685B68032B60
:102B9C0007D13F4B1B6803F00073002B09D10123B5
:102BAC006FE03B4B1B6803F00203002B01D10123A8
:102BBC0067E0374B9B6823F003027B685B68344902
:102BCC0013438B60FEF746FEF8600AE0FEF742FE08
:102BDC000246FB68D31A41F28832934201D903238F
:102BEC004FE02B4B9B6803F00C027B685B689B00EF
:102BFC009A42EBD1254B1B6803F00F033A689A42BB
:102C0C000CD2224B3A68D2B21A70204B1B6803F0DC
:102C1C000F033A689A4201D0012332E07B681B68AB
:102C2C0003F00403002B08D0194B9B6823F4E052EB
:102C3C007B68DB68164913438B607B681B6803F069
:102C4C000803002B09D0124B9B6823F460427B686D
:102C5C001B69DB000E4913438B6000F021F8024620
:102C6C000B4B9B681B0903F00F030A49CB5C22FA40
:102C7C0003F3094A1360094B1B681846FEF7A6FDBF
:102C8C00002318461037BD4680BD00BF003C0240F3
:102C9C0000380240984A0008040000200C00002074
:102CAC002DE9B04F90B000AF00237B630023FB6392
:102CBC0000233B630023BB63594B9B6803F00C035D
:102CCC00082B0DD0082B00F2A180002B02D0042B76
:102CDC0003D09BE0534BBB639BE0534BBB6398E02F
:102CEC004F4B5B6803F03F037B634D4B5B6803F416
:102CFC008003002B28D04A4B5B689B0900223B6267
:102D0C007A623B6AC3F308000021474B03FB01F2D4
:102D1C00002300FB03F31344434AA0FB0212FA62A4
:102D2C000A46BA62FA6A1344FB627B6B0022BB61EF
:102D3C00FA61D7E90623D7E90A01FDF751FA0246F1
:102D4C000B461346FB6353E0354B5B689B09002233
:102D5C003B617A613B69C3F3080A4FF0000B5246A2
:102D6C005B464FF000004FF00001590141EAD2617F
:102D7C00500102460B46B2EB0A0863EB0B094FF00D
:102D8C0000024FF000034FEA891343EA98634FEABD
:102D9C008812B2EB080463EB09054FF000024FF008
:102DAC000003EB0043EA5473E20014461D4614EB97
:102DBC000A033B6045EB0B037B604FF000024FF0C6
:102DCC000003D7E9004529468B02214643EA91537B
:102DDC0021468A02104619467B6B0022BB60FA60C2
:102DEC00D7E90223FDF7FCF902460B461346FB63B9
:102DFC000B4B5B681B0C03F0030301335B003B6361
:102E0C00FA6B3B6BB2FBF3F3BB6302E0054BBB63AA
:102E1C0000BFBB6B18464037BD46BDE8B08F00BF46
:102E2C00003802400024F40040787D0180B400AFEB
:102E3C00034B1B681846BD465DF8047B704700BF0A
:102E4C000400002080B500AFFFF7F0FF0246054BF1
:102E5C009B689B0A03F007030349CB5C22FA03F33C
:102E6C00184680BD00380240A84A000880B500AF63
:102E7C00FFF7DCFF0246054B9B685B0B03F0070377
:102E8C000349CB5C22FA03F3184680BD003802409C
:102E9C00A84A000880B582B000AFFEF7DBFC786072
:102EAC00724B1B68714A43F00103136008E0FEF794
:102EBC00D1FC02467B68D31A022B01D90323D0E044
:102ECC006A4B1B6803F00203002BF0D0674B1B68A6
:102EDC00664A43F080031360FEF7BCFC7860634BDA
:102EEC0000229A600AE0FEF7B5FC02467B68D31A12
:102EFC0041F28832934201D90323B2E05B4B9B68C9
:102F0C0003F00C03002BEED1FEF7A4FC7860574BBA
:102F1C001B68564A23F45023136008E0FEF79AFC12
:102F2C0002467B68D31A642B01D9032399E04F4BDB
:102F3C001B6803F40033002BF0D1FEF78BFC786098
:102F4C004A4B1B68494A23F08073136008E0FEF774
:102F5C0081FC02467B68D31A022B01D9032380E043
:102F6C00424B1B6803F00073002BF0D1FEF772FC90
:102F7C0078603E4B1B683D4A23F08063136008E089
:102F8C00FEF768FC02467B68D31A022B01D9032397
:102F9C0067E0364B1B6803F00063002BF0D1FEF7A3
:102FAC0059FC7860314B1B68304A23F08053136016
:102FBC0008E0FEF74FFC02467B68D31A022B01D9BE
:102FCC0003234EE0294B1B6803F00053002BF0D178
:102FDC00264B274A5A60254B264AC3F88420234B9C
:102FEC00244AC3F88820214BDB68204A23F4F85389
:102FFC00D3601E4BDB681D4A23F40053D3601B4B7C
:10300C00DB681A4A23F48043D360184BDB68174AF9
:10301C0043F41F03D360154BDB68144A43F40013CD
:10302C00D360124BDB68114A43F48003D3600F4B1F
:10303C005B6F0E4A23F0010353670C4B5B6F0B4A1B
:10304C0043F0807353670C4B0C4A1A600C4B1B6893
:10305C001846FEF7BBFB0346002B01D0012300E012
:10306C00002318460837BD4680BD00BF003802401B
:10307C001030000400300024040000200024F40070
:10308C000C00002080B582B000AF78607B68002B0C
:10309C0001D1012341E07B6893F83D30DBB2002B7A
:1030AC0006D17B68002283F83C207868FEF7EEF8A6
:1030BC007B68022283F83D207B681A687B680433A6
:1030CC001946104600F0FEF97B68012283F8462071
:1030DC007B68012283F83E207B68012283F83F2025
:1030EC007B68012283F840207B68012283F8412011
:1030FC007B68012283F842207B68012283F84320FD
:10310C007B68012283F844207B68012283F84520E8
:10311C007B68012283F83D20002318460837BD4602
:10312C0080BD000080B485B000AF78607B6893F8F8
:10313C003D30DBB2012B01D001234EE07B68022233
:10314C0083F83D207B681B68DA687B681B6842F05B
:10315C000102DA607B681B68234A934222D07B68A9
:10316C001B68B3F1804F1DD07B681B681F4A9342CC
:10317C0018D07B681B681E4A934213D07B681B686F
:10318C001C4A93420ED07B681B681B4A934209D0A1
:10319C007B681B68194A934204D07B681B68184AE9
:1031AC00934211D17B681B689B6803F00703FB609B
:1031BC00FB68062B10D07B681B681A687B681B6841
:1031CC0042F001021A6007E07B681B681A687B6892
:1031DC001B6842F001021A60002318461437BD46E2
:1031EC005DF8047B704700BF000001400004004004
:1031FC0000080040000C0040000401400040014069
:10320C000018004080B483B000AF78607B681B6806
:10321C00DA687B681B6822F00102DA607B681B6845
:10322C001A6A41F211131340002B0FD17B681B68F3
:10323C001A6A40F244431340002B07D17B681B6889
:10324C001A687B681B6822F001021A607B680122F5
:10325C0083F83D20002318460C37BD465DF8047BEF
:10326C00704780B582B000AF78607B681B681B69C3
:10327C0003F00203022B22D17B681B68DB6803F08E
:10328C000203022B1BD17B681B686FF002021A61D0
:10329C007B6801221A777B681B689B6903F0030328
:1032AC00002B03D0786800F0EEF805E0786800F0A9
:1032BC00E0F8786800F0F1F87B6800221A777B68F8
:1032CC001B681B6903F00403042B22D17B681B6869
:1032DC00DB6803F00403042B1BD17B681B686FF0C5
:1032EC0004021A617B6802221A777B681B689B694F
:1032FC0003F44073002B03D0786800F0C4F805E0A9
:10330C00786800F0B6F8786800F0C7F87B6800229F
:10331C001A777B681B681B6903F00803082B22D102
:10332C007B681B68DB6803F00803082B1BD17B68E8
:10333C001B686FF008021A617B6804221A777B689D
:10334C001B68DB6903F00303002B03D0786800F0E3
:10335C009AF805E0786800F08CF8786800F09DF831
:10336C007B6800221A777B681B681B6903F01003CB
:10337C00102B22D17B681B68DB6803F01003102B29
:10338C001BD17B681B686FF010021A617B680822E6
:10339C001A777B681B68DB6903F44073002B03D03E
:1033AC00786800F070F805E0786800F062F87868EA
:1033BC0000F073F87B6800221A777B681B681B6926
:1033CC0003F00103012B0ED17B681B68DB6803F053
:1033DC000103012B07D17B681B686FF001021A6196
:1033EC007868FDF793FF7B681B681B6903F080030B
:1033FC00802B0ED17B681B68DB6803F08003802B6D
:10340C0007D17B681B686FF080021A61786800F046
:10341C007FF97B681B681B6903F04003402B0ED1BE
:10342C007B681B68DB6803F04003402B07D17B688B
:10343C001B686FF040021A61786800F038F87B68FE
:10344C001B681B6903F02003202B0ED17B681B68C3
:10345C00DB6803F02003202B07D17B681B686FF01F
:10346C0020021A61786800F049F900BF0837BD46A0
:10347C0080BD80B483B000AF786000BF0C37BD4610
:10348C005DF8047B704780B483B000AF786000BFF8
:10349C000C37BD465DF8047B704780B483B000AF39
:1034AC00786000BF0C37BD465DF8047B704780B474
:1034BC0083B000AF786000BF0C37BD465DF8047B6D
:1034CC007047000080B485B000AF786039607B68CD
:1034DC001B68FB607B68404A934213D07B68B3F156
:1034EC00804F0FD07B683D4A93420BD07B683C4A9F
:1034FC00934207D07B683B4A934203D07B683A4A9D
:10350C00934208D1FB6823F07003FB603B685B6857
:10351C00FA681343FB607B682F4A93422BD07B687D
:10352C00B3F1804F27D07B682C4A934223D07B6821
:10353C002B4A93421FD07B682A4A93421BD07B684C
:10354C00294A934217D07B68284A934213D07B6850
:10355C00274A93420FD07B68264A93420BD07B6854
:10356C00254A934207D07B68244A934203D07B6858
:10357C00234A934208D1FB6823F44073FB603B68F9
:10358C00DB68FA681343FB60FB6823F080023B683E
:10359C005B691343FB607B68FA681A603B689A6846
:1035AC007B68DA623B681A687B689A627B680A4AB5
:1035BC00934203D07B680C4A934203D13B681A694F
:1035CC007B681A637B6801225A6100BF1437BD46C1
:1035DC005DF8047B704700BF000001400004004010
:1035EC0000080040000C0040000401400040014075
:1035FC00004401400048014000180040001C0040FD
:10360C000020004080B485B000AF786039607B68E2
:10361C0093F83C30012B01D102235AE07B68012244
:10362C0083F83C207B68022283F83D207B681B6872
:10363C005B68FB607B681B689B68BB60FB6823F066
:10364C007003FB603B681B68FA681343FB607B6884
:10365C001B68FA685A607B681B68214A934222D027
:10366C007B681B68B3F1804F1DD07B681B681D4ABB
:10367C00934218D07B681B681B4A934213D07B681B
:10368C001B681A4A93420ED07B681B68184A9342F7
:10369C0009D07B681B68174A934204D07B681B686F
:1036AC00154A93420CD1BB6823F08003BB603B6886
:1036BC005B68BA681343BB607B681B68BA689A6026
:1036CC007B68012283F83D207B68002283F83C2034
:1036DC00002318461437BD465DF8047B704700BFC5
:1036EC00000001400004004000080040000C0040B5
:1036FC0000040140004001400018004080B483B039
:10370C0000AF786000BF0C37BD465DF8047B704796
:10371C0080B483B000AF786000BF0C37BD465DF855
:10372C00047B704780B582B000AF78607B68002B5B
:10373C0001D101233FE07B6893F83D30DBB2002BD5
:10374C0006D17B68002283F83C207868FDF778FE70
:10375C007B68242283F83D207B681B68DA687B68D1
:10376C001B6822F40052DA60786800F005FE7B6872
:10377C001B681A697B681B6822F490421A617B688B
:10378C001B685A697B681B6822F02A025A617B68A5
:10379C001B68DA687B681B6842F40052DA607B684D
:1037AC0000221A647B68202283F83D207B6820224B
:1037BC0083F83E20002318460837BD4680BD80B4F0
:1037CC0085B000AFF860B9601346FB80FB6893F8D6
:1037DC003D30DBB2202B30D1BB68002B02D0FB88F4
:1037EC00002B01D1012329E0FB6893F83C30012B1D
:1037FC0001D1022322E0FB68012283F83C20FB6804
:10380C00BA681A62FB68FA889A84FB68FA88DA84C8
:10381C00FB6800221A64FB68212283F83D20FB68B8
:10382C00002283F83C20FB681B68DA68FB681B6885
:10383C0042F08002DA60002300E0022318461437BD
:10384C00BD465DF8047B704780B584B000AFF8606E
:10385C00B9601346FB80FB6893F83E30DBB2202B3B
:10386C001DD1BB68002B02D0FB88002B01D101239A
:10387C0016E0FB6893F83C30012B01D102230FE0DA
:10388C00FB68012283F83C20FB6800221A63FB884A
:10389C001A46B968F86800F097FB034600E002236B
:1038AC0018461037BD4680BD80B5A0B000AF78601B
:1038BC007B681B680C33FB65FB6D53E8003FBB65F5
:1038CC00BB6D23F4F073FB677B681B680C33FA6FDA
:1038DC00BA667B66796EBA6E41E800233B663B6E36
:1038EC00002BE5D17B681B681433BB64BB6C53E8BD
:1038FC00003F7B647B6C23F00103BB677B681B6818
:10390C001433BA6F7A653B65396D7A6D41E80023E3
:10391C00FB64FB6C002BE5D17B681B6B012B19D175
:10392C007B681B680C337B637B6B53E8003F3B630A
:10393C003B6B23F010037B677B681B680C337A6F3F
:10394C003A64FB63F96B3A6C41E80023BB63BB6BD5
:10395C00002BE5D17B681B685B6903F08003802B2F
:10396C0036D17B681B6814333B623B6A53E8003FDB
:10397C00FB61FB6923F080033B677B681B68143396
:10398C003A6FFA62BB62B96AFA6A41E800237B6259
:10399C007B6A002BE5D17B685B6B002B18D07B68B6
:1039AC005B6B00221A657B685B6B1846FEF7A1F80F
:1039BC000346002B0CD07B685B6B1846FEF72BF98B
:1039CC000346202B04D17B6810221A64032352E097
:1039DC007B681B685B6903F04003402B36D17B6826
:1039EC001B681433FB60FB6853E8003FBB60BB688B
:1039FC0023F04003FB667B681B681433FA6EBA61D4
:103A0C007B617969BA6941E800233B613B69002B12
:103A1C00E5D17B689B6B002B18D07B689B6B0022DD
:103A2C001A657B689B6B1846FEF763F80346002B00
:103A3C000CD07B689B6B1846FEF7EDF80346202BE9
:103A4C0004D17B6810221A64032314E07B680022E3
:103A5C00DA847B680022DA857B6800221A647B6832
:103A6C00202283F83E207B68202283F83D207B684F
:103A7C0000221A63002318468037BD4680BD000023
:103A8C0080B5BAB000AF78607B681B681B68C7F85C
:103A9C00E4307B681B68DB68C7F8E0307B681B6828
:103AAC005B69C7F8DC300023C7F8D8300023C7F8AF
:103ABC00D430D7F8E43003F00F03C7F8D830D7F878
:103ACC00D830002B0FD1D7F8E43003F02003002BB3
:103ADC0009D0D7F8E03003F02003002B03D078682E
:103AEC0000F08FFB56E2D7F8D830002B00F0DE80C8
:103AFC00D7F8DC3003F00103002B06D1D7F8E03007
:103B0C0003F49073002B00F0D180D7F8E43003F06D
:103B1C000103002B0BD0D7F8E03003F48073002B9B
:103B2C0005D07B681B6C43F001027B681A64D7F8E4
:103B3C00E43003F00403002B0BD0D7F8DC3003F097
:103B4C000103002B05D07B681B6C43F002027B68E1
:103B5C001A64D7F8E43003F00203002B0BD0D7F82B
:103B6C00DC3003F00103002B05D07B681B6C43F0A9
:103B7C0004027B681A64D7F8E43003F00803002BC6
:103B8C0011D0D7F8E03003F02003002B05D1D7F883
:103B9C00DC3003F00103002B05D07B681B6C43F079
:103BAC0008027B681A647B681B6C002B00F0ED81AB
:103BBC00D7F8E43003F02003002B08D0D7F8E0301E
:103BCC0003F02003002B02D0786800F01AFB7B680E
:103BDC001B685B6903F04003402B0CBF01230023DF
:103BEC00DBB2C7F8D4307B681B6C03F00803002BE6
:103BFC0003D1D7F8D430002B4FD0786800F022FADC
:103C0C007B681B685B6903F04003402B41D17B68E8
:103C1C001B681433C7F89C30D7F89C3053E8003F2E
:103C2C00C7F89830D7F8983023F04003C7F8D03055
:103C3C007B681B681433D7F8D020C7F8A820C7F8C6
:103C4C00A430D7F8A410D7F8A82041E80023C7F86F
:103C5C00A030D7F8A030002BD9D17B689B6B002B00
:103C6C0013D07B689B6B7D4A1A657B689B6B1846EF
:103C7C00FDF7AFFF0346002B16D07B689B6B1B6DCB
:103C8C007A68926B104698470EE0786800F086F9D7
:103C9C000AE0786800F082F906E0786800F07EF9B6
:103CAC007B6800221A6470E100BF6EE17B681B6BBD
:103CBC00012B40F04A81D7F8E43003F01003002BBD
:103CCC0000F04381D7F8E03003F01003002B00F034
:103CDC003C810023BB607B681B681B68BB607B68F6
:103CEC001B685B68BB60BB687B681B685B6903F027
:103CFC004003402B40F0B4807B689B6B1B685B6877
:103D0C00A7F8BE30B7F8BE30002B00F040817B68BE
:103D1C009B8DB7F8BE209A4280F039817B68B7F84A
:103D2C00BE20DA857B689B6BDB69B3F5807F00F086
:103D3C0088807B681B680C33C7F88830D7F88830CC
:103D4C0053E8003FC7F88430D7F8843023F48073ED
:103D5C00C7F8B8307B681B680C33D7F8B820C7F8A5
:103D6C009420C7F89030D7F89010D7F8942041E8F9
:103D7C000023C7F88C30D7F88C30002BD9D17B6856
:103D8C001B6814337B677B6F53E8003F3B673B6FCB
:103D9C0023F00103C7F8B4307B681B681433D7F8E1
:103DAC00B420C7F88020FB67F96FD7F8802041E872
:103DBC000023BB67BB6F002BE1D17B681B681433FE
:103DCC003B663B6E53E8003FFB65FB6D23F0400305
:103DDC00C7F8B0307B681B681433D7F8B020FA668C
:103DEC00BB66B96EFA6E41E800237B667B6E002BD6
:103DFC00E3D17B68202283F83E207B6800221A6383
:103E0C007B681B680C33FB64FB6C53E8003FBB64A2
:103E1C00BB6C23F01003C7F8AC307B681B680C3309
:103E2C00D7F8AC20BA657B65796DBA6D41E8002393
:103E3C003B653B6D002BE3D17B689B6B1846FDF714
:103E4C0058FE7B689A8D7B68DB8D9BB2D31A9BB234
:103E5C001946786800F0ACF899E000BF17410008EB
:103E6C007B689A8D7B68DB8D9BB2D31AA7F8CE301A
:103E7C007B68DB8D9BB2002B00F08B80B7F8CE30CB
:103E8C00002B00F086807B681B680C33BB63BB6B1C
:103E9C0053E8003F7B637B6B23F49073C7F8C83007
:103EAC007B681B680C33D7F8C8207A643B64396C88
:103EBC007A6C41E80023FB63FB6B002BE3D17B683E
:103ECC001B6814337B627B6A53E8003F3B623B6A9E
:103EDC0023F00103C7F8C4307B681B681433D7F890
:103EEC00C4203A63FB62F96A3A6B41E80023BB6277
:103EFC00BB6A002BE3D17B68202283F83E207B68D1
:103F0C0000221A637B681B680C333B613B6953E8E6
:103F1C00003FFB60FB6823F01003C7F8C0307B68E0
:103F2C001B680C33D7F8C020FA61BB61B969FA6918
:103F3C0041E800237B617B69002BE3D1B7F8CE30DD
:103F4C001946786800F034F823E0D7F8E43003F031
:103F5C008003002B09D0D7F8E03003F08003002B4E
:103F6C0003D0786800F0E5F814E0D7F8E43003F0FB
:103F7C004003002B0ED0D7F8E03003F04003002BA9
:103F8C0008D0786800F025F904E000BF02E000BF1B
:103F9C0000E000BFE837BD4680BD00BF80B483B0F1
:103FAC0000AF786000BF0C37BD465DF8047B7047EE
:103FBC0080B483B000AF78600B467B8000BF0C37B9
:103FCC00BD465DF8047B704780B485B000AFF860E7
:103FDC00B9601346FB80FB68BA689A62FB68FA8882
:103FEC009A85FB68FA88DA85FB6800221A64FB68FC
:103FFC00222283F83E20FB68002283F83C20FB68D9
:10400C001B69002B07D0FB681B68DA68FB681B6810
:10401C0042F48072DA60FB681B685A69FB681B68A3
:10402C0042F001025A61FB681B68DA68FB681B6886
:10403C0042F02002DA60002318461437BD465DF8C2
:10404C00047B704780B495B000AF78607B681B68C8
:10405C000C337B637B6B53E8003F3B633B6B23F47C
:10406C009073FB647B681B680C33FA6C3A64FB63DB
:10407C00F96B3A6C41E80023BB63BB6B002BE5D1B9
:10408C007B681B6814333B623B6A53E8003FFB615F
:10409C00FB6923F00103BB647B681B681433BA6CA7
:1040AC00FA62BB62B96AFA6A41E800237B627B6AF6
:1040BC00002BE5D17B681B6B012B19D17B681B682E
:1040CC000C33FB60FB6853E8003FBB60BB6823F01C
:1040DC0010037B647B681B680C337A6CBA617B6160
:1040EC007969BA6941E800233B613B69002BE5D152
:1040FC007B68202283F83E207B6800221A6300BF75
:10410C005437BD465DF8047B704780B584B000AF72
:10411C0078607B689B6BFB60FB680022DA85FB6830
:10412C000022DA84F868FFF739FF00BF1037BD466C
:10413C0080BD80B485B000AF78607B6893F83D306B
:10414C00DBB2212B3ED17B689B68B3F5805F14D129
:10415C007B681B69002B10D17B681B6AFB60FB68BA
:10416C001B881A467B681B68C2F308025A607B687E
:10417C001B6A9A1C7B681A6208E07B681B6A591CD4
:10418C007A6811621A787B681B685A607B68DB8CD2
:10419C009BB2013B9BB27A681946D184002B0FD19C
:1041AC007B681B68DA687B681B6822F08002DA6027
:1041BC007B681B68DA687B681B6842F04002DA6037
:1041CC00002300E0022318461437BD465DF8047B3B
:1041DC00704780B582B000AF78607B681B68DA6886
:1041EC007B681B6822F04002DA607B68202283F82F
:1041FC003D207868FDF7B8F8002318460837BD460F
:10420C0080BD80B58CB000AF78607B6893F83E3091
:10421C00DBB2222B40F0AB807B689B68B3F5805FF0
:10422C0017D17B681B69002B13D10023FB627B68C1
:10423C009B6ABB627B681B685B689BB2C3F3080319
:10424C009AB2BB6A1A807B689B6A9A1C7B689A62DA
:10425C0026E07B689B6AFB620023BB627B689B68E1
:10426C00B3F5805F07D07B689B68002B0AD17B6815
:10427C001B69002B06D17B681B685B68DAB2FB6A92
:10428C001A7008E07B681B685B68DBB203F07F0385
:10429C00DAB2FB6A1A707B689B6A5A1C7B689A625A
:1042AC007B68DB8D9BB2013B9BB27A681946D1854A
:1042BC00002B5AD17B681B68DA687B681B6822F07C
:1042CC002002DA607B681B68DA687B681B6822F462
:1042DC008072DA607B681B685A697B681B6822F005
:1042EC0001025A617B68202283F83E207B681B6B9D
:1042FC00012B35D17B6800221A637B681B680C3359
:10430C007B617B6953E8003F3B613B6923F0100301
:10431C007B627B681B680C337A6A3A62FB61F969D1
:10432C003A6A41E80023BB61BB69002BE5D17B688D
:10433C001B681B6803F01003102B0AD10023FB60D1
:10434C007B681B681B68FB607B681B685B68FB6099
:10435C00FB687B689B8D19467868FFF729FE02E0A5
:10436C007868FDF721F8002302E0002300E0022327
:10437C0018463037BD4680BD2DE9B04FC0B000AFF8
:10438C00C7F8F400D7F8F4301B681B6923F44050CD
:10439C00D7F8F430D968D7F8F4301A6840EA01033A
:1043AC001361D7F8F4309A68D7F8F4301B691A43C4
:1043BC00D7F8F4305B691A43D7F8F430DB69134350
:1043CC00C7F8F830D7F8F4301B68DB6823F41641D3
:1043DC0021F00C01D7F8F4301A68D7F8F8300B43F9
:1043EC00D360D7F8F4301B685B6923F44070D7F8BE
:1043FC00F4309969D7F8F4301A6840EA0103536134
:10440C00D7F8F4301A688F4B9A4205D0D7F8F430AD
:10441C001A688D4B9A4204D1FEF728FDC7F8FC00B0
:10442C0003E0FEF70FFDC7F8FC00D7F8F430DB69AA
:10443C00B3F5004F40F00C81D7F8FC300022C7F8E0
:10444C00E830C7F8EC20D7E93A4522462B469118BC
:10445C00B9655B41FB65D7E91623214612EB0108D0
:10446C00294643EB01094FF000024FF000034FEADD
:10447C00C90343EA58734FEAC8029046994623464B
:10448C0018EB0303C7F8E0302B4649EB0303C7F8DE
:10449C00E430D7F8F4305B680022C7F8D830C7F89E
:1044AC00DC20D7E936120B46DB183B65134642EB92
:1044BC0003037B65D7E91423D7E93801FBF790FE9A
:1044CC0002460B46614BA3FB02235B091C01D7F888
:1044DC00FC300022C7F8D030C7F8D420D7E9348993
:1044EC0042464B469118B9645B41FB64D7E91223F1
:1044FC00414612EB010A494643EB010B4FF0000217
:10450C004FF000034FEACB0343EA5A734FEACA0257
:10451C0092469B4643461AEB0303C7F8C8304B46FA
:10452C004BEB0303C7F8CC30D7F8F4305B680022B0
:10453C00C7F8C030C7F8C420D7E930120B46DB18D7
:10454C003B64134642EB03037B64D7E91023D7E9A2
:10455C003201FBF745FE02460B4611463B4BA3FBD3
:10456C0001235B09642202FB03F3CB1ADB0003F18A
:10457C003202364BA3FB02235B095B0003F4F87396
:10458C001C44D7F8FC300022C7F8B830C7F8BC2060
:10459C00D7E92E8942464B469118B9635B41FB63C0
:1045AC00D7E90E2341465118396349464B417B6389
:1045BC004FF000024FF00003D7E90CAB5946CB008B
:1045CC00514643EA51735146CA00104619460346F8
:1045DC0042469B18C7F8B0304B460A4642EB0303E1
:1045EC00C7F8B430D7F8F4305B680022C7F8A830AD
:1045FC00C7F8AC20D7E92A120B46DB18BB6213466E
:10460C0042EB0303FB62D7E90A23D7E92C01FBF742
:10461C00E7FD02460B460D4BA3FB02135B0964211D
:10462C0001FB03F3D31ADB003233084AA2FB03234A
:10463C005B0903F00702D7F8F4301B6822449A6038
:10464C0005E100BF00100140001401401F85EB5133
:10465C00D7F8FC300022C7F8A030C7F8A420D7E95F
:10466C00288942464B46911839625B417B62D7E9F7
:10467C00082341465418494643EB01054FF000020C
:10468C004FF00003EB0043EA5473E20014461D465E
:10469C004346E318C7F898304B4645EB0303C7F87D
:1046AC009C30D7F8F4305B680022C7F89030C7F81C
:1046BC0094204FF000024FF00003D7E9244529461F
:1046CC008B00214643EA917321468A00D7E92601E3
:1046DC00FBF786FD02460B46604BA3FB02235B09EE
:1046EC001C01D7F8FC300022C7F88830C7F88C20A2
:1046FC00D7E9228942464B469118B9615B41FB616F
:10470C00D7E9062341465118396149464B417B6133
:10471C004FF000024FF00003D7E904AB5946CB0031
:10472C00514643EA51735146CA0010461946034696
:10473C0042469B18C7F880304B460A4642EB0303AF
:10474C00C7F88430D7F8F4305B680022BB67FA678F
:10475C004FF000024FF00003D7E91E8949468B0049
:10476C00414643EA917341468A00D7E92001FBF7A1
:10477C0037FD02460B46394BA3FB02135B09642140
:10478C0001FB03F3D31A1B013233344AA2FB03237C
:10479C005B0903F0F0031C44D7F8FC3000223B67A4
:1047AC007A67D7E91C8942464B469118B9605B4140
:1047BC00FB60D7E9022341465118396049464B4109
:1047CC007B604FF000024FF00003D7E900AB594675
:1047DC00CB00514643EA51735146CA001046194664
:1047EC00034642469B18BB664B460A4642EB030304
:1047FC00FB66D7F8F4305B6800223B667A664FF0B4
:10480C0000024FF00003D7E9188949468B00414656
:10481C0043EA917341468A00D7E91A01FBF7E0FCA1
:10482C0002460B460D4BA3FB02135B09642101FBF3
:10483C0003F3D31A1B013233084AA2FB03235B098F
:10484C0003F00F02D7F8F4301B6822449A6000BFC3
:10485C0007F58077BD46BDE8B08F00BF1F85EB51D3
:10486C00014B1868704700BF1400002070B50D4D47
:10487C000D4C641BA4100026A64209D10B4D0C4C08
:10488C0000F0DAF8641BA4100026A64205D170BD16
:10489C0055F8043B98470136EEE755F8043B98472A
:1048AC000136F2E7B84A0008B84A0008B84A0008CE
:1048BC00BC4A0008024B0146186800F02BB800BF38
:1048CC001400002002440346934200D1704703F8C1
:1048DC00011BF9E770B50E4E0C463168054611B94F
:1048EC0000F08CF830602146284600F087F8431C15
:1048FC000AD0C41C24F00304A04207D0211A284675
:10490C0000F07CF8013001D14FF0FF34204670BD2F
:10491C00B80101202DE9F041CD1C25F00305083527
:10492C000C2D38BF0C25002D074601DBA94205D9FB
:10493C000C233B6000263046BDE8F0812E4E00F083
:10494C006DF833681C4634BB29463846FFF7C2FF66
:10495C00431C04464DD134682646002E40D12368B2
:10496C003146384604EB030800F048F880453AD14C
:10497C00216803356D1A25F0030508350C2D38BF59
:10498C000C2529463846FFF7A5FF01302BD02368AC
:10499C002B4423600EE02268521B1ED40B2A16D91E
:1049AC006119A342256018BF5960636808BF316064
:1049BC0062514B60384604F10B0600F035F826F0D6
:1049CC000706231DF21AB6D09B1BA350B3E76268EF
:1049DC00A3420CBF32605A60ECE723466468B2E72E
:1049EC0034467668B9E70C233B60384600F01CF877
:1049FC00A1E72560DEE700BFB401012038B5064D04
:104A0C000023044608462B60FCF7C2FB431C02D172
:104A1C002B6803B1236038BDBC010120014800F0B4
:104A2C0009B800BFC0010120014800F004B800BF64
:104A3C00C001012070477047F8B500BFF8BC08BC36
:104A4C009E467047F8B500BFF8BC08BC9E46704740
:104A5C000A0D636865636B73756D206572726F7296
:104A6C0020310A0D000000000A0D636865636B734A
:104A7C00756D206572726F7220320A0D0000000095
:104A8C00737461727465640A0D000000000000000C
:104A9C0000000000010203040607080900000000E2
:044AAC0001020304FC
:084AB0006CB7FF7F010000005C
:044AB800D101000820
:044ABC00AD01000840
:104AC000010000000024F4000100000010000000BC
:104AD000010000001800002000000000000000009D
:104AE00000000000000000000000000000000000C6
:104AF00000000000000000000000000000000000B6
:104B000000000000000000000000000000000000A5
:104B10000000000000000000000000000000000095
:104B20000000000000000000000000000000000085
:084B300000000000000000007D
:04000005080016D900
:00000001FF
